{
  "address": "0x5FbDB2315678afecb367f032d93F642f64180aa3",
  "abi": [
    {
      "inputs": [],
      "stateMutability": "nonpayable",
      "type": "constructor"
    },
    {
      "anonymous": false,
      "inputs": [
        {
          "indexed": false,
          "internalType": "uint32",
          "name": "_empId",
          "type": "uint32"
        },
        {
          "indexed": false,
          "internalType": "string",
          "name": "employeeName",
          "type": "string"
        },
        {
          "indexed": false,
          "internalType": "string",
          "name": "email",
          "type": "string"
        },
        {
          "indexed": false,
          "internalType": "string",
          "name": "_skills",
          "type": "string"
        },
        {
          "indexed": false,
          "internalType": "uint16",
          "name": "tokenId",
          "type": "uint16"
        },
        {
          "indexed": false,
          "internalType": "bytes32",
          "name": "_empHash",
          "type": "bytes32"
        }
      ],
      "name": "NFTMinted",
      "type": "event"
    },
    {
      "anonymous": false,
      "inputs": [
        {
          "indexed": false,
          "internalType": "uint32",
          "name": "_empId",
          "type": "uint32"
        },
        {
          "indexed": false,
          "internalType": "string",
          "name": "employeeName",
          "type": "string"
        },
        {
          "indexed": false,
          "internalType": "string",
          "name": "email",
          "type": "string"
        },
        {
          "indexed": false,
          "internalType": "string",
          "name": "_skills",
          "type": "string"
        },
        {
          "indexed": false,
          "internalType": "string",
          "name": "_projectName",
          "type": "string"
        },
        {
          "indexed": false,
          "internalType": "uint8",
          "name": "team_size",
          "type": "uint8"
        },
        {
          "indexed": false,
          "internalType": "string",
          "name": "startTime",
          "type": "string"
        },
        {
          "indexed": false,
          "internalType": "string",
          "name": "endTime",
          "type": "string"
        },
        {
          "indexed": false,
          "internalType": "uint16",
          "name": "tokenId",
          "type": "uint16"
        },
        {
          "indexed": false,
          "internalType": "bytes32",
          "name": "uriHash",
          "type": "bytes32"
        }
      ],
      "name": "NFTMintedWithProject",
      "type": "event"
    },
    {
      "anonymous": false,
      "inputs": [
        {
          "indexed": true,
          "internalType": "address",
          "name": "previousOwner",
          "type": "address"
        },
        {
          "indexed": true,
          "internalType": "address",
          "name": "newOwner",
          "type": "address"
        }
      ],
      "name": "OwnershipTransferred",
      "type": "event"
    },
    {
      "anonymous": false,
      "inputs": [
        {
          "indexed": false,
          "internalType": "uint16",
          "name": "tokenId",
          "type": "uint16"
        }
      ],
      "name": "burnNFT",
      "type": "event"
    },
    {
      "anonymous": false,
      "inputs": [
        {
          "indexed": false,
          "internalType": "uint8",
          "name": "tokenId",
          "type": "uint8"
        },
        {
          "indexed": false,
          "internalType": "uint8",
          "name": "projectNumber",
          "type": "uint8"
        }
      ],
      "name": "buurnProject",
      "type": "event"
    },
    {
      "anonymous": false,
      "inputs": [
        {
          "indexed": false,
          "internalType": "uint16",
          "name": "tokenId",
          "type": "uint16"
        },
        {
          "indexed": false,
          "internalType": "uint16",
          "name": "team_size",
          "type": "uint16"
        },
        {
          "indexed": false,
          "internalType": "string",
          "name": "_projectName",
          "type": "string"
        },
        {
          "indexed": false,
          "internalType": "string",
          "name": "startTime",
          "type": "string"
        },
        {
          "indexed": false,
          "internalType": "string",
          "name": "endTime",
          "type": "string"
        },
        {
          "indexed": false,
          "internalType": "bytes32",
          "name": "uriHash",
          "type": "bytes32"
        }
      ],
      "name": "projectAdded",
      "type": "event"
    },
    {
      "anonymous": false,
      "inputs": [
        {
          "indexed": false,
          "internalType": "uint16",
          "name": "tokenId",
          "type": "uint16"
        },
        {
          "indexed": false,
          "internalType": "uint16",
          "name": "team_size",
          "type": "uint16"
        },
        {
          "indexed": false,
          "internalType": "string",
          "name": "_projectName",
          "type": "string"
        },
        {
          "indexed": false,
          "internalType": "string",
          "name": "startTime",
          "type": "string"
        },
        {
          "indexed": false,
          "internalType": "string",
          "name": "endTime",
          "type": "string"
        },
        {
          "indexed": false,
          "internalType": "bytes32",
          "name": "uriHash",
          "type": "bytes32"
        }
      ],
      "name": "projectEdited",
      "type": "event"
    },
    {
      "anonymous": false,
      "inputs": [
        {
          "indexed": false,
          "internalType": "uint16",
          "name": "tokenId",
          "type": "uint16"
        },
        {
          "indexed": false,
          "internalType": "string",
          "name": "skills",
          "type": "string"
        },
        {
          "indexed": false,
          "internalType": "bytes32",
          "name": "uriHash",
          "type": "bytes32"
        }
      ],
      "name": "skillUpdated",
      "type": "event"
    },
    {
      "inputs": [
        {
          "internalType": "uint8",
          "name": "tokenId",
          "type": "uint8"
        },
        {
          "internalType": "uint16",
          "name": "team_size",
          "type": "uint16"
        },
        {
          "internalType": "string",
          "name": "_projectName",
          "type": "string"
        },
        {
          "internalType": "string",
          "name": "startTime",
          "type": "string"
        },
        {
          "internalType": "string",
          "name": "endTime",
          "type": "string"
        }
      ],
      "name": "AddProject",
      "outputs": [],
      "stateMutability": "nonpayable",
      "type": "function"
    },
    {
      "inputs": [
        {
          "internalType": "uint8",
          "name": "tokenId",
          "type": "uint8"
        }
      ],
      "name": "burn",
      "outputs": [],
      "stateMutability": "nonpayable",
      "type": "function"
    },
    {
      "inputs": [
        {
          "internalType": "uint8",
          "name": "tokenId",
          "type": "uint8"
        },
        {
          "internalType": "uint8",
          "name": "projectNumber",
          "type": "uint8"
        }
      ],
      "name": "burnProject",
      "outputs": [],
      "stateMutability": "nonpayable",
      "type": "function"
    },
    {
      "inputs": [
        {
          "internalType": "uint8",
          "name": "tokenId",
          "type": "uint8"
        },
        {
          "internalType": "uint16",
          "name": "team_size",
          "type": "uint16"
        },
        {
          "internalType": "string",
          "name": "_projectName",
          "type": "string"
        },
        {
          "internalType": "string",
          "name": "startTime",
          "type": "string"
        },
        {
          "internalType": "string",
          "name": "endTime",
          "type": "string"
        },
        {
          "internalType": "uint8",
          "name": "projectNumber",
          "type": "uint8"
        }
      ],
      "name": "editProject",
      "outputs": [],
      "stateMutability": "nonpayable",
      "type": "function"
    },
    {
      "inputs": [
        {
          "internalType": "uint8",
          "name": "tokenId",
          "type": "uint8"
        }
      ],
      "name": "getAllProject",
      "outputs": [
        {
          "internalType": "bytes32[]",
          "name": "",
          "type": "bytes32[]"
        }
      ],
      "stateMutability": "view",
      "type": "function"
    },
    {
      "inputs": [],
      "name": "getNFT",
      "outputs": [
        {
          "internalType": "contract EmployeeNFT",
          "name": "",
          "type": "address"
        }
      ],
      "stateMutability": "view",
      "type": "function"
    },
    {
      "inputs": [
        {
          "internalType": "uint16",
          "name": "tokenId",
          "type": "uint16"
        }
      ],
      "name": "getcurrentProject",
      "outputs": [
        {
          "internalType": "uint8",
          "name": "",
          "type": "uint8"
        }
      ],
      "stateMutability": "view",
      "type": "function"
    },
    {
      "inputs": [
        {
          "internalType": "string",
          "name": "_employeeName",
          "type": "string"
        },
        {
          "internalType": "uint32",
          "name": "_empId",
          "type": "uint32"
        },
        {
          "internalType": "string",
          "name": "email",
          "type": "string"
        },
        {
          "internalType": "string",
          "name": "_skills",
          "type": "string"
        }
      ],
      "name": "mintEmployeeNFT",
      "outputs": [],
      "stateMutability": "nonpayable",
      "type": "function"
    },
    {
      "inputs": [
        {
          "internalType": "string",
          "name": "_employeeName",
          "type": "string"
        },
        {
          "internalType": "uint32",
          "name": "_empId",
          "type": "uint32"
        },
        {
          "internalType": "string",
          "name": "email",
          "type": "string"
        },
        {
          "internalType": "string",
          "name": "_skills",
          "type": "string"
        },
        {
          "internalType": "string",
          "name": "_projectName",
          "type": "string"
        },
        {
          "internalType": "uint8",
          "name": "team_size",
          "type": "uint8"
        },
        {
          "internalType": "string",
          "name": "startTime",
          "type": "string"
        },
        {
          "internalType": "string",
          "name": "endTime",
          "type": "string"
        }
      ],
      "name": "mintEmployeeNFTwithProject",
      "outputs": [],
      "stateMutability": "nonpayable",
      "type": "function"
    },
    {
      "inputs": [
        {
          "internalType": "address",
          "name": "",
          "type": "address"
        },
        {
          "internalType": "address",
          "name": "",
          "type": "address"
        },
        {
          "internalType": "uint256",
          "name": "",
          "type": "uint256"
        },
        {
          "internalType": "bytes",
          "name": "",
          "type": "bytes"
        }
      ],
      "name": "onERC721Received",
      "outputs": [
        {
          "internalType": "bytes4",
          "name": "",
          "type": "bytes4"
        }
      ],
      "stateMutability": "pure",
      "type": "function"
    },
    {
      "inputs": [],
      "name": "owner",
      "outputs": [
        {
          "internalType": "address",
          "name": "",
          "type": "address"
        }
      ],
      "stateMutability": "view",
      "type": "function"
    },
    {
      "inputs": [],
      "name": "renounceOwnership",
      "outputs": [],
      "stateMutability": "nonpayable",
      "type": "function"
    },
    {
      "inputs": [],
      "name": "returnToken",
      "outputs": [
        {
          "internalType": "uint8",
          "name": "",
          "type": "uint8"
        }
      ],
      "stateMutability": "view",
      "type": "function"
    },
    {
      "inputs": [
        {
          "internalType": "uint16",
          "name": "tokenId",
          "type": "uint16"
        },
        {
          "internalType": "uint8",
          "name": "projectID",
          "type": "uint8"
        }
      ],
      "name": "setcurrentProject",
      "outputs": [],
      "stateMutability": "nonpayable",
      "type": "function"
    },
    {
      "inputs": [
        {
          "internalType": "uint16",
          "name": "tokenId",
          "type": "uint16"
        },
        {
          "internalType": "string",
          "name": "_skills",
          "type": "string"
        }
      ],
      "name": "skillUpdate",
      "outputs": [],
      "stateMutability": "nonpayable",
      "type": "function"
    },
    {
      "inputs": [
        {
          "internalType": "address",
          "name": "newOwner",
          "type": "address"
        }
      ],
      "name": "transferOwnership",
      "outputs": [],
      "stateMutability": "nonpayable",
      "type": "function"
    }
  ],
  "transactionHash": "0xfeaeb6338df52ce57ed3f00b4f4f34769caa9d8f97912629b3e8bb23761bf07b",
  "args": [],
  "numDeployments": 1,
  "solcInputHash": "07e3c4ef891952b9ec3b76127e092df3",
  "bytecode": "0x60806040523480156200001157600080fd5b5060016000819055506200003a6200002e620000ac60201b60201c565b620000b460201b60201c565b60405162000048906200017a565b604051809103906000f08015801562000065573d6000803e3d6000fd5b50600260006101000a81548173ffffffffffffffffffffffffffffffffffffffff021916908373ffffffffffffffffffffffffffffffffffffffff16021790555062000188565b600033905090565b6000600160009054906101000a900473ffffffffffffffffffffffffffffffffffffffff16905081600160006101000a81548173ffffffffffffffffffffffffffffffffffffffff021916908373ffffffffffffffffffffffffffffffffffffffff1602179055508173ffffffffffffffffffffffffffffffffffffffff168173ffffffffffffffffffffffffffffffffffffffff167f8be0079c531659141344cd1fd0a4f28419497f9722a3daafe3b4186f6b6457e060405160405180910390a35050565b6133e58062002c5d83390190565b612ac580620001986000396000f3fe608060405234801561001057600080fd5b50600436106101005760003560e01c806388a6360e11610097578063bab02f5411610066578063bab02f5414610285578063d4c3e178146102a1578063f2fde38b146102bd578063f3370a88146102d957610100565b806388a6360e146102115780638da5cb5b1461022f57806392d2f1181461024d5780639c4e33561461026957610100565b80632b1e6609116100d35780632b1e6609146101b15780632e4a3657146101cd57806365501925146101eb578063715018a61461020757610100565b8063027b82b1146101055780630b01a2b314610135578063141d689014610151578063150b7a0214610181575b600080fd5b61011f600480360381019061011a9190611788565b6102f5565b60405161012c91906117d1565b60405180910390f35b61014f600480360381019061014a919061199a565b610332565b005b61016b60048036038101906101669190611af8565b610658565b6040516101789190611bed565b60405180910390f35b61019b60048036038101906101969190611d03565b6106d5565b6040516101a89190611dc6565b60405180910390f35b6101cb60048036038101906101c69190611de1565b6106ea565b005b6101d56109e2565b6040516101e291906117d1565b60405180910390f35b61020560048036038101906102009190611eb0565b610a9a565b005b61020f610be7565b005b610219610bfb565b6040516102269190611ff0565b60405180910390f35b610237610c2d565b604051610244919061201a565b60405180910390f35b61026760048036038101906102629190611af8565b610c57565b005b610283600480360381019061027e9190612035565b610d29565b005b61029f600480360381019061029a9190612091565b610fe1565b005b6102bb60048036038101906102b691906120d1565b611223565b005b6102d760048036038101906102d2919061218c565b61142c565b005b6102f360048036038101906102ee91906121b9565b6114b0565b005b60006102ff611594565b600360008361ffff1661ffff16815260200190815260200160002060020160009054906101000a900460ff169050919050565b61033a611612565b610342611594565b600088888860405160200161035993929190612290565b60405160208183030381529060405280519060200120905060008660405160200161038491906122d5565b6040516020818303038152906040528051906020012090506000868585886040516020016103b594939291906122f7565b60405160208183030381529060405280519060200120905060008383836040516020016103e493929190612360565b60405160208183030381529060405280519060200120905060008160405160200161040f9190612397565b60405160208183030381529060405290506000600260009054906101000a900473ffffffffffffffffffffffffffffffffffffffff1673ffffffffffffffffffffffffffffffffffffffff1663695850fb836040518263ffffffff1660e01b815260040161047d91906122d5565b602060405180830381600087803b15801561049757600080fd5b505af11580156104ab573d6000803e3d6000fd5b505050506040513d601f19601f820116820180604052508101906104cf91906123c7565b60ff16905085600360008361ffff1661ffff1681526020019081526020016000206000018190555084600360008361ffff1661ffff16815260200190815260200160002060010181905550600360008261ffff1661ffff168152602001908152602001600020600301849080600181540180825580915050600190039060005260206000200160009091909190915055610596816001600360008561ffff1661ffff168152602001908152602001600020600301805490506105919190612423565b610fe1565b600360008261ffff1661ffff168152602001908152602001600020600401600190806001815401808255809150506001900390600052602060002090602091828204019190069091909190916101000a81548160ff0219169083151502179055507f4afc8db5b254c5557e105efbc4f0969af93330b8919ef4835484b54ccad53ec98d8f8e8e8e8e8e8e898c6040516106389a99989796959493929190612466565b60405180910390a150505050505061064e611662565b5050505050505050565b6060610662611594565b600360008360ff1661ffff1681526020019081526020016000206003018054806020026020016040519081016040528092919081815260200182805480156106c957602002820191906000526020600020905b8154815260200190600101908083116106b5575b50505050509050919050565b600063150b7a0260e01b905095945050505050565b6106f2611612565b6106fa611594565b600083838387604051602001610713949392919061252c565b604051602081830303815290604052805190602001209050600360008760ff1661ffff1681526020019081526020016000206003018190806001815401808255809150506001900390600052602060002001600090919091909150556107a88660ff166001600360008a60ff1661ffff168152602001908152602001600020600301805490506107a39190612423565b610fe1565b600360008760ff1661ffff168152602001908152602001600020600401600190806001815401808255809150506001900390600052602060002090602091828204019190069091909190916101000a81548160ff0219169083151502179055506000600360008860ff1661ffff16815260200190815260200160002060000154600360008960ff1661ffff1681526020019081526020016000206003016001600360008b60ff1661ffff168152602001908152602001600020600301805490506108729190612423565b60ff168154811061088657610885612586565b5b9060005260206000200154600360008a60ff1661ffff168152602001908152602001600020600101546040516020016108c193929190612360565b6040516020818303038152906040528051906020012090506000816040516020016108ec9190612397565b6040516020818303038152906040529050600260009054906101000a900473ffffffffffffffffffffffffffffffffffffffff1673ffffffffffffffffffffffffffffffffffffffff1663862440e28960ff16836040518363ffffffff1660e01b815260040161095d9291906125c4565b600060405180830381600087803b15801561097757600080fd5b505af115801561098b573d6000803e3d6000fd5b505050507fa9d45f73e3642f0e4016a34d6344290ae0932b6af0f409e32e04c95a072b8fff8888888888876040516109c896959493929190612625565b60405180910390a15050506109db611662565b5050505050565b600080600260009054906101000a900473ffffffffffffffffffffffffffffffffffffffff1673ffffffffffffffffffffffffffffffffffffffff166384c4bd4b6040518163ffffffff1660e01b815260040160206040518083038186803b158015610a4d57600080fd5b505afa158015610a61573d6000803e3d6000fd5b505050506040513d601f19601f82011682018060405250810190610a8591906126b0565b9050600181610a9491906126dd565b91505090565b600360008760ff1661ffff1681526020019081526020016000206004018160ff1681548110610acc57610acb612586565b5b90600052602060002090602091828204019190069054906101000a900460ff16610b2b576040517f08c379a0000000000000000000000000000000000000000000000000000000008152600401610b229061275d565b60405180910390fd5b600084848488604051602001610b44949392919061252c565b60405160208183030381529060405280519060200120905080600360008960ff1661ffff1681526020019081526020016000206003018360ff1681548110610b8f57610b8e612586565b5b90600052602060002001819055507f0fa75f1c19ca1ea099636fa156638a64f176aa39a8c404156d983376b3811b9d878787878786604051610bd696959493929190612625565b60405180910390a150505050505050565b610bef611594565b610bf9600061166c565b565b6000610c05611594565b600260009054906101000a900473ffffffffffffffffffffffffffffffffffffffff16905090565b6000600160009054906101000a900473ffffffffffffffffffffffffffffffffffffffff16905090565b610c5f611594565b600260009054906101000a900473ffffffffffffffffffffffffffffffffffffffff1673ffffffffffffffffffffffffffffffffffffffff166342966c688260ff166040518263ffffffff1660e01b8152600401610cbd919061277d565b600060405180830381600087803b158015610cd757600080fd5b505af1158015610ceb573d6000803e3d6000fd5b505050507f9a3bad10c2a11d8d0b49e2e109140c4087c7678b7cd9a694fb6510c59846cb0b81604051610d1e9190612798565b60405180910390a150565b610d31611594565b60008082604051602001610d4591906122d5565b60405160208183030381529060405280519060200120905080600360008661ffff1661ffff168152602001908152602001600020600101819055506000600360008661ffff1661ffff168152602001908152602001600020600301805490501415610e1657600360008561ffff1661ffff16815260200190815260200160002060000154600360008661ffff1661ffff16815260200190815260200160002060010154604051602001610df99291906127b3565b604051602081830303815290604052805190602001209150610ee8565b600360008561ffff1661ffff16815260200190815260200160002060000154600360008661ffff1661ffff168152602001908152602001600020600301600360008761ffff1661ffff16815260200190815260200160002060020160009054906101000a900460ff1660ff1681548110610e9357610e92612586565b5b9060005260206000200154600360008761ffff1661ffff16815260200190815260200160002060010154604051602001610ecf93929190612360565b6040516020818303038152906040528051906020012091505b600082604051602001610efb9190612397565b6040516020818303038152906040529050600260009054906101000a900473ffffffffffffffffffffffffffffffffffffffff1673ffffffffffffffffffffffffffffffffffffffff1663862440e28661ffff16836040518363ffffffff1660e01b8152600401610f6d9291906125c4565b600060405180830381600087803b158015610f8757600080fd5b505af1158015610f9b573d6000803e3d6000fd5b505050507f5cf4fdf5bdcdf85f288fc7199dab8d1e9f59f6f69caa0cb72fdd4a94e67fd388858584604051610fd2939291906127dc565b60405180910390a15050505050565b610fe9611594565b8060ff166001600360008561ffff1661ffff1681526020019081526020016000206003018054905061101b9190612423565b101561105c576040517f08c379a000000000000000000000000000000000000000000000000000000000815260040161105390612866565b60405180910390fd5b80600360008461ffff1661ffff16815260200190815260200160002060020160006101000a81548160ff021916908360ff1602179055506000600360008461ffff1661ffff16815260200190815260200160002060000154600360008561ffff1661ffff168152602001908152602001600020600301600360008661ffff1661ffff16815260200190815260200160002060020160009054906101000a900460ff1660ff168154811061111257611111612586565b5b9060005260206000200154600360008661ffff1661ffff1681526020019081526020016000206001015460405160200161114e93929190612360565b6040516020818303038152906040528051906020012090506000816040516020016111799190612397565b6040516020818303038152906040529050600260009054906101000a900473ffffffffffffffffffffffffffffffffffffffff1673ffffffffffffffffffffffffffffffffffffffff1663862440e28561ffff16836040518363ffffffff1660e01b81526004016111eb9291906125c4565b600060405180830381600087803b15801561120557600080fd5b505af1158015611219573d6000803e3d6000fd5b5050505050505050565b61122b611612565b611233611594565b600084848460405160200161124a93929190612290565b60405160208183030381529060405280519060200120905060008260405160200161127591906122d5565b604051602081830303815290604052805190602001209050600082826040516020016112a29291906127b3565b6040516020818303038152906040528051906020012090506000816040516020016112cd9190612397565b60405160208183030381529060405290506000600260009054906101000a900473ffffffffffffffffffffffffffffffffffffffff1673ffffffffffffffffffffffffffffffffffffffff1663695850fb836040518263ffffffff1660e01b815260040161133b91906122d5565b602060405180830381600087803b15801561135557600080fd5b505af1158015611369573d6000803e3d6000fd5b505050506040513d601f19601f8201168201806040525081019061138d91906123c7565b60ff16905084600360008361ffff1661ffff1681526020019081526020016000206000018190555083600360008361ffff1661ffff168152602001908152602001600020600101819055507f34d22ca3f8e4d087027d7871c54467eec072f07a92f0991376e17d9e71792d92888a8989858a60405161141196959493929190612886565b60405180910390a15050505050611426611662565b50505050565b611434611594565b600073ffffffffffffffffffffffffffffffffffffffff168173ffffffffffffffffffffffffffffffffffffffff1614156114a4576040517f08c379a000000000000000000000000000000000000000000000000000000000815260040161149b9061296e565b60405180910390fd5b6114ad8161166c565b50565b6114b8611594565b6000600360008460ff1661ffff1681526020019081526020016000206003018260ff16815481106114ec576114eb612586565b5b90600052602060002001819055506000600360008460ff1661ffff1681526020019081526020016000206004018260ff168154811061152e5761152d612586565b5b90600052602060002090602091828204019190066101000a81548160ff0219169083151502179055507ff9d2a528aad816f3cadf8aabc05ab0f3cb7e6d8113c542af4bab527a0cf2f06f828260405161158892919061298e565b60405180910390a15050565b61159c611732565b73ffffffffffffffffffffffffffffffffffffffff166115ba610c2d565b73ffffffffffffffffffffffffffffffffffffffff1614611610576040517f08c379a000000000000000000000000000000000000000000000000000000000815260040161160790612a03565b60405180910390fd5b565b60026000541415611658576040517f08c379a000000000000000000000000000000000000000000000000000000000815260040161164f90612a6f565b60405180910390fd5b6002600081905550565b6001600081905550565b6000600160009054906101000a900473ffffffffffffffffffffffffffffffffffffffff16905081600160006101000a81548173ffffffffffffffffffffffffffffffffffffffff021916908373ffffffffffffffffffffffffffffffffffffffff1602179055508173ffffffffffffffffffffffffffffffffffffffff168173ffffffffffffffffffffffffffffffffffffffff167f8be0079c531659141344cd1fd0a4f28419497f9722a3daafe3b4186f6b6457e060405160405180910390a35050565b600033905090565b6000604051905090565b600080fd5b600080fd5b600061ffff82169050919050565b6117658161174e565b811461177057600080fd5b50565b6000813590506117828161175c565b92915050565b60006020828403121561179e5761179d611744565b5b60006117ac84828501611773565b91505092915050565b600060ff82169050919050565b6117cb816117b5565b82525050565b60006020820190506117e660008301846117c2565b92915050565b600080fd5b600080fd5b6000601f19601f8301169050919050565b7f4e487b7100000000000000000000000000000000000000000000000000000000600052604160045260246000fd5b61183f826117f6565b810181811067ffffffffffffffff8211171561185e5761185d611807565b5b80604052505050565b600061187161173a565b905061187d8282611836565b919050565b600067ffffffffffffffff82111561189d5761189c611807565b5b6118a6826117f6565b9050602081019050919050565b82818337600083830152505050565b60006118d56118d084611882565b611867565b9050828152602081018484840111156118f1576118f06117f1565b5b6118fc8482856118b3565b509392505050565b600082601f830112611919576119186117ec565b5b81356119298482602086016118c2565b91505092915050565b600063ffffffff82169050919050565b61194b81611932565b811461195657600080fd5b50565b60008135905061196881611942565b92915050565b611977816117b5565b811461198257600080fd5b50565b6000813590506119948161196e565b92915050565b600080600080600080600080610100898b0312156119bb576119ba611744565b5b600089013567ffffffffffffffff8111156119d9576119d8611749565b5b6119e58b828c01611904565b98505060206119f68b828c01611959565b975050604089013567ffffffffffffffff811115611a1757611a16611749565b5b611a238b828c01611904565b965050606089013567ffffffffffffffff811115611a4457611a43611749565b5b611a508b828c01611904565b955050608089013567ffffffffffffffff811115611a7157611a70611749565b5b611a7d8b828c01611904565b94505060a0611a8e8b828c01611985565b93505060c089013567ffffffffffffffff811115611aaf57611aae611749565b5b611abb8b828c01611904565b92505060e089013567ffffffffffffffff811115611adc57611adb611749565b5b611ae88b828c01611904565b9150509295985092959890939650565b600060208284031215611b0e57611b0d611744565b5b6000611b1c84828501611985565b91505092915050565b600081519050919050565b600082825260208201905092915050565b6000819050602082019050919050565b6000819050919050565b611b6481611b51565b82525050565b6000611b768383611b5b565b60208301905092915050565b6000602082019050919050565b6000611b9a82611b25565b611ba48185611b30565b9350611baf83611b41565b8060005b83811015611be0578151611bc78882611b6a565b9750611bd283611b82565b925050600181019050611bb3565b5085935050505092915050565b60006020820190508181036000830152611c078184611b8f565b905092915050565b600073ffffffffffffffffffffffffffffffffffffffff82169050919050565b6000611c3a82611c0f565b9050919050565b611c4a81611c2f565b8114611c5557600080fd5b50565b600081359050611c6781611c41565b92915050565b6000819050919050565b611c8081611c6d565b8114611c8b57600080fd5b50565b600081359050611c9d81611c77565b92915050565b600080fd5b600080fd5b60008083601f840112611cc357611cc26117ec565b5b8235905067ffffffffffffffff811115611ce057611cdf611ca3565b5b602083019150836001820283011115611cfc57611cfb611ca8565b5b9250929050565b600080600080600060808688031215611d1f57611d1e611744565b5b6000611d2d88828901611c58565b9550506020611d3e88828901611c58565b9450506040611d4f88828901611c8e565b935050606086013567ffffffffffffffff811115611d7057611d6f611749565b5b611d7c88828901611cad565b92509250509295509295909350565b60007fffffffff0000000000000000000000000000000000000000000000000000000082169050919050565b611dc081611d8b565b82525050565b6000602082019050611ddb6000830184611db7565b92915050565b600080600080600060a08688031215611dfd57611dfc611744565b5b6000611e0b88828901611985565b9550506020611e1c88828901611773565b945050604086013567ffffffffffffffff811115611e3d57611e3c611749565b5b611e4988828901611904565b935050606086013567ffffffffffffffff811115611e6a57611e69611749565b5b611e7688828901611904565b925050608086013567ffffffffffffffff811115611e9757611e96611749565b5b611ea388828901611904565b9150509295509295909350565b60008060008060008060c08789031215611ecd57611ecc611744565b5b6000611edb89828a01611985565b9650506020611eec89828a01611773565b955050604087013567ffffffffffffffff811115611f0d57611f0c611749565b5b611f1989828a01611904565b945050606087013567ffffffffffffffff811115611f3a57611f39611749565b5b611f4689828a01611904565b935050608087013567ffffffffffffffff811115611f6757611f66611749565b5b611f7389828a01611904565b92505060a0611f8489828a01611985565b9150509295509295509295565b6000819050919050565b6000611fb6611fb1611fac84611c0f565b611f91565b611c0f565b9050919050565b6000611fc882611f9b565b9050919050565b6000611fda82611fbd565b9050919050565b611fea81611fcf565b82525050565b60006020820190506120056000830184611fe1565b92915050565b61201481611c2f565b82525050565b600060208201905061202f600083018461200b565b92915050565b6000806040838503121561204c5761204b611744565b5b600061205a85828601611773565b925050602083013567ffffffffffffffff81111561207b5761207a611749565b5b61208785828601611904565b9150509250929050565b600080604083850312156120a8576120a7611744565b5b60006120b685828601611773565b92505060206120c785828601611985565b9150509250929050565b600080600080608085870312156120eb576120ea611744565b5b600085013567ffffffffffffffff81111561210957612108611749565b5b61211587828801611904565b945050602061212687828801611959565b935050604085013567ffffffffffffffff81111561214757612146611749565b5b61215387828801611904565b925050606085013567ffffffffffffffff81111561217457612173611749565b5b61218087828801611904565b91505092959194509250565b6000602082840312156121a2576121a1611744565b5b60006121b084828501611c58565b91505092915050565b600080604083850312156121d0576121cf611744565b5b60006121de85828601611985565b92505060206121ef85828601611985565b9150509250929050565b600081519050919050565b600082825260208201905092915050565b60005b83811015612233578082015181840152602081019050612218565b83811115612242576000848401525b50505050565b6000612253826121f9565b61225d8185612204565b935061226d818560208601612215565b612276816117f6565b840191505092915050565b61228a81611932565b82525050565b600060608201905081810360008301526122aa8186612248565b90506122b96020830185612281565b81810360408301526122cb8184612248565b9050949350505050565b600060208201905081810360008301526122ef8184612248565b905092915050565b600060808201905081810360008301526123118187612248565b905081810360208301526123258186612248565b905081810360408301526123398185612248565b905061234860608301846117c2565b95945050505050565b61235a81611b51565b82525050565b60006060820190506123756000830186612351565b6123826020830185612351565b61238f6040830184612351565b949350505050565b60006020820190506123ac6000830184612351565b92915050565b6000815190506123c18161196e565b92915050565b6000602082840312156123dd576123dc611744565b5b60006123eb848285016123b2565b91505092915050565b7f4e487b7100000000000000000000000000000000000000000000000000000000600052601160045260246000fd5b600061242e82611c6d565b915061243983611c6d565b92508282101561244c5761244b6123f4565b5b828203905092915050565b6124608161174e565b82525050565b60006101408201905061247c600083018d612281565b818103602083015261248e818c612248565b905081810360408301526124a2818b612248565b905081810360608301526124b6818a612248565b905081810360808301526124ca8189612248565b90506124d960a08301886117c2565b81810360c08301526124eb8187612248565b905081810360e08301526124ff8186612248565b905061250f610100830185612457565b61251d610120830184612351565b9b9a5050505050505050505050565b600060808201905081810360008301526125468187612248565b9050818103602083015261255a8186612248565b9050818103604083015261256e8185612248565b905061257d6060830184612457565b95945050505050565b7f4e487b7100000000000000000000000000000000000000000000000000000000600052603260045260246000fd5b6125be81611c6d565b82525050565b60006040820190506125d960008301856125b5565b81810360208301526125eb8184612248565b90509392505050565b600061260f61260a612605846117b5565b611f91565b61174e565b9050919050565b61261f816125f4565b82525050565b600060c08201905061263a6000830189612616565b6126476020830188612457565b81810360408301526126598187612248565b9050818103606083015261266d8186612248565b905081810360808301526126818185612248565b905061269060a0830184612351565b979650505050505050565b6000815190506126aa81611c77565b92915050565b6000602082840312156126c6576126c5611744565b5b60006126d48482850161269b565b91505092915050565b60006126e8826117b5565b91506126f3836117b5565b925082821015612706576127056123f4565b5b828203905092915050565b7f50726f6a65637420646f6573206e6f7420657869737400000000000000000000600082015250565b6000612747601683612204565b915061275282612711565b602082019050919050565b600060208201905081810360008301526127768161273a565b9050919050565b600060208201905061279260008301846125b5565b92915050565b60006020820190506127ad6000830184612616565b92915050565b60006040820190506127c86000830185612351565b6127d56020830184612351565b9392505050565b60006060820190506127f16000830186612457565b81810360208301526128038185612248565b90506128126040830184612351565b949350505050565b7f70726f6a6563744944206e6f7420657869737400000000000000000000000000600082015250565b6000612850601383612204565b915061285b8261281a565b602082019050919050565b6000602082019050818103600083015261287f81612843565b9050919050565b600060c08201905061289b6000830189612281565b81810360208301526128ad8188612248565b905081810360408301526128c18187612248565b905081810360608301526128d58186612248565b90506128e46080830185612457565b6128f160a0830184612351565b979650505050505050565b7f4f776e61626c653a206e6577206f776e657220697320746865207a65726f206160008201527f6464726573730000000000000000000000000000000000000000000000000000602082015250565b6000612958602683612204565b9150612963826128fc565b604082019050919050565b600060208201905081810360008301526129878161294b565b9050919050565b60006040820190506129a360008301856117c2565b6129b060208301846117c2565b9392505050565b7f4f776e61626c653a2063616c6c6572206973206e6f7420746865206f776e6572600082015250565b60006129ed602083612204565b91506129f8826129b7565b602082019050919050565b60006020820190508181036000830152612a1c816129e0565b9050919050565b7f5265656e7472616e637947756172643a207265656e7472616e742063616c6c00600082015250565b6000612a59601f83612204565b9150612a6482612a23565b602082019050919050565b60006020820190508181036000830152612a8881612a4c565b905091905056fea26469706673582212206735e4388997b99eb3aa6455196f5eaa35031f79f359080d28d170b65361e5e864736f6c6343000809003360806040523480156200001157600080fd5b506040518060400160405280600381526020017f454d5300000000000000000000000000000000000000000000000000000000008152506040518060400160405280600381526020017f5446540000000000000000000000000000000000000000000000000000000000815250816000908051906020019062000096929190620001a6565b508060019080519060200190620000af929190620001a6565b505050620000d2620000c6620000d860201b60201c565b620000e060201b60201c565b620002bb565b600033905090565b6000600760009054906101000a900473ffffffffffffffffffffffffffffffffffffffff16905081600760006101000a81548173ffffffffffffffffffffffffffffffffffffffff021916908373ffffffffffffffffffffffffffffffffffffffff1602179055508173ffffffffffffffffffffffffffffffffffffffff168173ffffffffffffffffffffffffffffffffffffffff167f8be0079c531659141344cd1fd0a4f28419497f9722a3daafe3b4186f6b6457e060405160405180910390a35050565b828054620001b49062000285565b90600052602060002090601f016020900481019282620001d8576000855562000224565b82601f10620001f357805160ff191683800117855562000224565b8280016001018555821562000224579182015b828111156200022357825182559160200191906001019062000206565b5b50905062000233919062000237565b5090565b5b808211156200025257600081600090555060010162000238565b5090565b7f4e487b7100000000000000000000000000000000000000000000000000000000600052602260045260246000fd5b600060028204905060018216806200029e57607f821691505b60208210811415620002b557620002b462000256565b5b50919050565b61311a80620002cb6000396000f3fe608060405234801561001057600080fd5b506004361061012c5760003560e01c8063715018a6116100ad578063a22cb46511610071578063a22cb4651461032f578063b88d4fde1461034b578063c87b56dd14610367578063e985e9c514610397578063f2fde38b146103c75761012c565b8063715018a6146102af57806384c4bd4b146102b9578063862440e2146102d75780638da5cb5b146102f357806395d89b41146103115761012c565b806342842e0e116100f457806342842e0e146101e757806342966c68146102035780636352211e1461021f578063695850fb1461024f57806370a082311461027f5761012c565b806301ffc9a71461013157806306fdde0314610161578063081812fc1461017f578063095ea7b3146101af57806323b872dd146101cb575b600080fd5b61014b60048036038101906101469190612093565b6103e3565b60405161015891906120db565b60405180910390f35b6101696104c5565b604051610176919061218f565b60405180910390f35b610199600480360381019061019491906121e7565b610557565b6040516101a69190612255565b60405180910390f35b6101c960048036038101906101c4919061229c565b61059d565b005b6101e560048036038101906101e091906122dc565b6106b5565b005b61020160048036038101906101fc91906122dc565b610715565b005b61021d600480360381019061021891906121e7565b610735565b005b610239600480360381019061023491906121e7565b610791565b6040516102469190612255565b60405180910390f35b61026960048036038101906102649190612464565b610818565b60405161027691906124c9565b60405180910390f35b610299600480360381019061029491906124e4565b610857565b6040516102a69190612520565b60405180910390f35b6102b761090f565b005b6102c1610923565b6040516102ce9190612520565b60405180910390f35b6102f160048036038101906102ec919061253b565b61092f565b005b6102fb610945565b6040516103089190612255565b60405180910390f35b61031961096f565b604051610326919061218f565b60405180910390f35b610349600480360381019061034491906125c3565b610a01565b005b610365600480360381019061036091906126a4565b610a17565b005b610381600480360381019061037c91906121e7565b610a79565b60405161038e919061218f565b60405180910390f35b6103b160048036038101906103ac9190612727565b610a8b565b6040516103be91906120db565b60405180910390f35b6103e160048036038101906103dc91906124e4565b610b1f565b005b60007f80ac58cd000000000000000000000000000000000000000000000000000000007bffffffffffffffffffffffffffffffffffffffffffffffffffffffff1916827bffffffffffffffffffffffffffffffffffffffffffffffffffffffff191614806104ae57507f5b5e139f000000000000000000000000000000000000000000000000000000007bffffffffffffffffffffffffffffffffffffffffffffffffffffffff1916827bffffffffffffffffffffffffffffffffffffffffffffffffffffffff1916145b806104be57506104bd82610ba3565b5b9050919050565b6060600080546104d490612796565b80601f016020809104026020016040519081016040528092919081815260200182805461050090612796565b801561054d5780601f106105225761010080835404028352916020019161054d565b820191906000526020600020905b81548152906001019060200180831161053057829003601f168201915b5050505050905090565b600061056282610c0d565b6004600083815260200190815260200160002060009054906101000a900473ffffffffffffffffffffffffffffffffffffffff169050919050565b60006105a882610791565b90508073ffffffffffffffffffffffffffffffffffffffff168373ffffffffffffffffffffffffffffffffffffffff161415610619576040517f08c379a00000000000000000000000000000000000000000000000000000000081526004016106109061283a565b60405180910390fd5b8073ffffffffffffffffffffffffffffffffffffffff16610638610c58565b73ffffffffffffffffffffffffffffffffffffffff161480610667575061066681610661610c58565b610a8b565b5b6106a6576040517f08c379a000000000000000000000000000000000000000000000000000000000815260040161069d906128cc565b60405180910390fd5b6106b08383610c60565b505050565b6106c66106c0610c58565b82610d19565b610705576040517f08c379a00000000000000000000000000000000000000000000000000000000081526004016106fc9061295e565b60405180910390fd5b610710838383610dae565b505050565b61073083838360405180602001604052806000815250610a17565b505050565b610746610740610c58565b82610d19565b610785576040517f08c379a000000000000000000000000000000000000000000000000000000000815260040161077c9061295e565b60405180910390fd5b61078e816110a8565b50565b60008061079d836110b4565b9050600073ffffffffffffffffffffffffffffffffffffffff168173ffffffffffffffffffffffffffffffffffffffff16141561080f576040517f08c379a0000000000000000000000000000000000000000000000000000000008152600401610806906129ca565b60405180910390fd5b80915050919050565b60006108226110f1565b600061082e600861116f565b905061083a600861117d565b6108443382611193565b61084e81846111b1565b80915050919050565b60008073ffffffffffffffffffffffffffffffffffffffff168273ffffffffffffffffffffffffffffffffffffffff1614156108c8576040517f08c379a00000000000000000000000000000000000000000000000000000000081526004016108bf90612a5c565b60405180910390fd5b600360008373ffffffffffffffffffffffffffffffffffffffff1673ffffffffffffffffffffffffffffffffffffffff168152602001908152602001600020549050919050565b6109176110f1565b6109216000611225565b565b60088060000154905081565b6109376110f1565b61094182826111b1565b5050565b6000600760009054906101000a900473ffffffffffffffffffffffffffffffffffffffff16905090565b60606001805461097e90612796565b80601f01602080910402602001604051908101604052809291908181526020018280546109aa90612796565b80156109f75780601f106109cc576101008083540402835291602001916109f7565b820191906000526020600020905b8154815290600101906020018083116109da57829003601f168201915b5050505050905090565b610a13610a0c610c58565b83836112eb565b5050565b610a28610a22610c58565b83610d19565b610a67576040517f08c379a0000000000000000000000000000000000000000000000000000000008152600401610a5e9061295e565b60405180910390fd5b610a7384848484611458565b50505050565b6060610a84826114b4565b9050919050565b6000600560008473ffffffffffffffffffffffffffffffffffffffff1673ffffffffffffffffffffffffffffffffffffffff16815260200190815260200160002060008373ffffffffffffffffffffffffffffffffffffffff1673ffffffffffffffffffffffffffffffffffffffff16815260200190815260200160002060009054906101000a900460ff16905092915050565b610b276110f1565b600073ffffffffffffffffffffffffffffffffffffffff168173ffffffffffffffffffffffffffffffffffffffff161415610b97576040517f08c379a0000000000000000000000000000000000000000000000000000000008152600401610b8e90612aee565b60405180910390fd5b610ba081611225565b50565b60007f01ffc9a7000000000000000000000000000000000000000000000000000000007bffffffffffffffffffffffffffffffffffffffffffffffffffffffff1916827bffffffffffffffffffffffffffffffffffffffffffffffffffffffff1916149050919050565b610c16816115c7565b610c55576040517f08c379a0000000000000000000000000000000000000000000000000000000008152600401610c4c906129ca565b60405180910390fd5b50565b600033905090565b816004600083815260200190815260200160002060006101000a81548173ffffffffffffffffffffffffffffffffffffffff021916908373ffffffffffffffffffffffffffffffffffffffff160217905550808273ffffffffffffffffffffffffffffffffffffffff16610cd383610791565b73ffffffffffffffffffffffffffffffffffffffff167f8c5be1e5ebec7d5bd14f71427d1e84f3dd0314c0f7b2291e5b200ac8c7c3b92560405160405180910390a45050565b600080610d2583610791565b90508073ffffffffffffffffffffffffffffffffffffffff168473ffffffffffffffffffffffffffffffffffffffff161480610d675750610d668185610a8b565b5b80610da557508373ffffffffffffffffffffffffffffffffffffffff16610d8d84610557565b73ffffffffffffffffffffffffffffffffffffffff16145b91505092915050565b8273ffffffffffffffffffffffffffffffffffffffff16610dce82610791565b73ffffffffffffffffffffffffffffffffffffffff1614610e24576040517f08c379a0000000000000000000000000000000000000000000000000000000008152600401610e1b90612b80565b60405180910390fd5b600073ffffffffffffffffffffffffffffffffffffffff168273ffffffffffffffffffffffffffffffffffffffff161415610e94576040517f08c379a0000000000000000000000000000000000000000000000000000000008152600401610e8b90612c12565b60405180910390fd5b610ea18383836001611608565b8273ffffffffffffffffffffffffffffffffffffffff16610ec182610791565b73ffffffffffffffffffffffffffffffffffffffff1614610f17576040517f08c379a0000000000000000000000000000000000000000000000000000000008152600401610f0e90612b80565b60405180910390fd5b6004600082815260200190815260200160002060006101000a81549073ffffffffffffffffffffffffffffffffffffffff02191690556001600360008573ffffffffffffffffffffffffffffffffffffffff1673ffffffffffffffffffffffffffffffffffffffff168152602001908152602001600020600082825403925050819055506001600360008473ffffffffffffffffffffffffffffffffffffffff1673ffffffffffffffffffffffffffffffffffffffff16815260200190815260200160002060008282540192505081905550816002600083815260200190815260200160002060006101000a81548173ffffffffffffffffffffffffffffffffffffffff021916908373ffffffffffffffffffffffffffffffffffffffff160217905550808273ffffffffffffffffffffffffffffffffffffffff168473ffffffffffffffffffffffffffffffffffffffff167fddf252ad1be2c89b69c2b068fc378daa952ba7f163c4a11628f55a4df523b3ef60405160405180910390a46110a383838360016116c0565b505050565b6110b1816116c6565b50565b60006002600083815260200190815260200160002060009054906101000a900473ffffffffffffffffffffffffffffffffffffffff169050919050565b6110f9610c58565b73ffffffffffffffffffffffffffffffffffffffff16611117610945565b73ffffffffffffffffffffffffffffffffffffffff161461116d576040517f08c379a000000000000000000000000000000000000000000000000000000000815260040161116490612c7e565b60405180910390fd5b565b600081600001549050919050565b6001816000016000828254019250508190555050565b6111ad828260405180602001604052806000815250611719565b5050565b6111ba826115c7565b6111f9576040517f08c379a00000000000000000000000000000000000000000000000000000000081526004016111f090612d10565b60405180910390fd5b80600660008481526020019081526020016000209080519060200190611220929190611f44565b505050565b6000600760009054906101000a900473ffffffffffffffffffffffffffffffffffffffff16905081600760006101000a81548173ffffffffffffffffffffffffffffffffffffffff021916908373ffffffffffffffffffffffffffffffffffffffff1602179055508173ffffffffffffffffffffffffffffffffffffffff168173ffffffffffffffffffffffffffffffffffffffff167f8be0079c531659141344cd1fd0a4f28419497f9722a3daafe3b4186f6b6457e060405160405180910390a35050565b8173ffffffffffffffffffffffffffffffffffffffff168373ffffffffffffffffffffffffffffffffffffffff16141561135a576040517f08c379a000000000000000000000000000000000000000000000000000000000815260040161135190612d7c565b60405180910390fd5b80600560008573ffffffffffffffffffffffffffffffffffffffff1673ffffffffffffffffffffffffffffffffffffffff16815260200190815260200160002060008473ffffffffffffffffffffffffffffffffffffffff1673ffffffffffffffffffffffffffffffffffffffff16815260200190815260200160002060006101000a81548160ff0219169083151502179055508173ffffffffffffffffffffffffffffffffffffffff168373ffffffffffffffffffffffffffffffffffffffff167f17307eab39ab6107e8899845ad3d59bd9653f200f220920489ca2b5937696c318360405161144b91906120db565b60405180910390a3505050565b611463848484610dae565b61146f84848484611774565b6114ae576040517f08c379a00000000000000000000000000000000000000000000000000000000081526004016114a590612e0e565b60405180910390fd5b50505050565b60606114bf82610c0d565b60006006600084815260200190815260200160002080546114df90612796565b80601f016020809104026020016040519081016040528092919081815260200182805461150b90612796565b80156115585780601f1061152d57610100808354040283529160200191611558565b820191906000526020600020905b81548152906001019060200180831161153b57829003601f168201915b50505050509050600061156961190b565b905060008151141561157f5781925050506115c2565b6000825111156115b457808260405160200161159c929190612e6a565b604051602081830303815290604052925050506115c2565b6115bd84611922565b925050505b919050565b60008073ffffffffffffffffffffffffffffffffffffffff166115e9836110b4565b73ffffffffffffffffffffffffffffffffffffffff1614159050919050565b611610610945565b73ffffffffffffffffffffffffffffffffffffffff168473ffffffffffffffffffffffffffffffffffffffff16148061167b575061164c610945565b73ffffffffffffffffffffffffffffffffffffffff168373ffffffffffffffffffffffffffffffffffffffff16145b6116ba576040517f08c379a00000000000000000000000000000000000000000000000000000000081526004016116b190612eda565b60405180910390fd5b50505050565b50505050565b6116cf8161198a565b60006006600083815260200190815260200160002080546116ef90612796565b905014611716576006600082815260200190815260200160002060006117159190611fca565b5b50565b6117238383611ad8565b6117306000848484611774565b61176f576040517f08c379a000000000000000000000000000000000000000000000000000000000815260040161176690612e0e565b60405180910390fd5b505050565b60006117958473ffffffffffffffffffffffffffffffffffffffff16611cf6565b156118fe578373ffffffffffffffffffffffffffffffffffffffff1663150b7a026117be610c58565b8786866040518563ffffffff1660e01b81526004016117e09493929190612f4f565b602060405180830381600087803b1580156117fa57600080fd5b505af192505050801561182b57506040513d601f19601f820116820180604052508101906118289190612fb0565b60015b6118ae573d806000811461185b576040519150601f19603f3d011682016040523d82523d6000602084013e611860565b606091505b506000815114156118a6576040517f08c379a000000000000000000000000000000000000000000000000000000000815260040161189d90612e0e565b60405180910390fd5b805181602001fd5b63150b7a0260e01b7bffffffffffffffffffffffffffffffffffffffffffffffffffffffff1916817bffffffffffffffffffffffffffffffffffffffffffffffffffffffff191614915050611903565b600190505b949350505050565b606060405180602001604052806000815250905090565b606061192d82610c0d565b600061193761190b565b905060008151116119575760405180602001604052806000815250611982565b8061196184611d19565b604051602001611972929190612e6a565b6040516020818303038152906040525b915050919050565b600061199582610791565b90506119a5816000846001611608565b6119ae82610791565b90506004600083815260200190815260200160002060006101000a81549073ffffffffffffffffffffffffffffffffffffffff02191690556001600360008373ffffffffffffffffffffffffffffffffffffffff1673ffffffffffffffffffffffffffffffffffffffff168152602001908152602001600020600082825403925050819055506002600083815260200190815260200160002060006101000a81549073ffffffffffffffffffffffffffffffffffffffff021916905581600073ffffffffffffffffffffffffffffffffffffffff168273ffffffffffffffffffffffffffffffffffffffff167fddf252ad1be2c89b69c2b068fc378daa952ba7f163c4a11628f55a4df523b3ef60405160405180910390a4611ad48160008460016116c0565b5050565b600073ffffffffffffffffffffffffffffffffffffffff168273ffffffffffffffffffffffffffffffffffffffff161415611b48576040517f08c379a0000000000000000000000000000000000000000000000000000000008152600401611b3f90613029565b60405180910390fd5b611b51816115c7565b15611b91576040517f08c379a0000000000000000000000000000000000000000000000000000000008152600401611b8890613095565b60405180910390fd5b611b9f600083836001611608565b611ba8816115c7565b15611be8576040517f08c379a0000000000000000000000000000000000000000000000000000000008152600401611bdf90613095565b60405180910390fd5b6001600360008473ffffffffffffffffffffffffffffffffffffffff1673ffffffffffffffffffffffffffffffffffffffff16815260200190815260200160002060008282540192505081905550816002600083815260200190815260200160002060006101000a81548173ffffffffffffffffffffffffffffffffffffffff021916908373ffffffffffffffffffffffffffffffffffffffff160217905550808273ffffffffffffffffffffffffffffffffffffffff16600073ffffffffffffffffffffffffffffffffffffffff167fddf252ad1be2c89b69c2b068fc378daa952ba7f163c4a11628f55a4df523b3ef60405160405180910390a4611cf26000838360016116c0565b5050565b6000808273ffffffffffffffffffffffffffffffffffffffff163b119050919050565b606060006001611d2884611df1565b01905060008167ffffffffffffffff811115611d4757611d46612339565b5b6040519080825280601f01601f191660200182016040528015611d795781602001600182028036833780820191505090505b509050600082602001820190505b600115611de6578080600190039150507f3031323334353637383961626364656600000000000000000000000000000000600a86061a8153600a8581611dd057611dcf6130b5565b5b0494506000851415611de157611de6565b611d87565b819350505050919050565b600080600090507a184f03e93ff9f4daa797ed6e38ed64bf6a1f0100000000000000008310611e4f577a184f03e93ff9f4daa797ed6e38ed64bf6a1f0100000000000000008381611e4557611e446130b5565b5b0492506040810190505b6d04ee2d6d415b85acef81000000008310611e8c576d04ee2d6d415b85acef81000000008381611e8257611e816130b5565b5b0492506020810190505b662386f26fc100008310611ebb57662386f26fc100008381611eb157611eb06130b5565b5b0492506010810190505b6305f5e1008310611ee4576305f5e1008381611eda57611ed96130b5565b5b0492506008810190505b6127108310611f09576127108381611eff57611efe6130b5565b5b0492506004810190505b60648310611f2c5760648381611f2257611f216130b5565b5b0492506002810190505b600a8310611f3b576001810190505b80915050919050565b828054611f5090612796565b90600052602060002090601f016020900481019282611f725760008555611fb9565b82601f10611f8b57805160ff1916838001178555611fb9565b82800160010185558215611fb9579182015b82811115611fb8578251825591602001919060010190611f9d565b5b509050611fc6919061200a565b5090565b508054611fd690612796565b6000825580601f10611fe85750612007565b601f016020900490600052602060002090810190612006919061200a565b5b50565b5b8082111561202357600081600090555060010161200b565b5090565b6000604051905090565b600080fd5b600080fd5b60007fffffffff0000000000000000000000000000000000000000000000000000000082169050919050565b6120708161203b565b811461207b57600080fd5b50565b60008135905061208d81612067565b92915050565b6000602082840312156120a9576120a8612031565b5b60006120b78482850161207e565b91505092915050565b60008115159050919050565b6120d5816120c0565b82525050565b60006020820190506120f060008301846120cc565b92915050565b600081519050919050565b600082825260208201905092915050565b60005b83811015612130578082015181840152602081019050612115565b8381111561213f576000848401525b50505050565b6000601f19601f8301169050919050565b6000612161826120f6565b61216b8185612101565b935061217b818560208601612112565b61218481612145565b840191505092915050565b600060208201905081810360008301526121a98184612156565b905092915050565b6000819050919050565b6121c4816121b1565b81146121cf57600080fd5b50565b6000813590506121e1816121bb565b92915050565b6000602082840312156121fd576121fc612031565b5b600061220b848285016121d2565b91505092915050565b600073ffffffffffffffffffffffffffffffffffffffff82169050919050565b600061223f82612214565b9050919050565b61224f81612234565b82525050565b600060208201905061226a6000830184612246565b92915050565b61227981612234565b811461228457600080fd5b50565b60008135905061229681612270565b92915050565b600080604083850312156122b3576122b2612031565b5b60006122c185828601612287565b92505060206122d2858286016121d2565b9150509250929050565b6000806000606084860312156122f5576122f4612031565b5b600061230386828701612287565b935050602061231486828701612287565b9250506040612325868287016121d2565b9150509250925092565b600080fd5b600080fd5b7f4e487b7100000000000000000000000000000000000000000000000000000000600052604160045260246000fd5b61237182612145565b810181811067ffffffffffffffff821117156123905761238f612339565b5b80604052505050565b60006123a3612027565b90506123af8282612368565b919050565b600067ffffffffffffffff8211156123cf576123ce612339565b5b6123d882612145565b9050602081019050919050565b82818337600083830152505050565b6000612407612402846123b4565b612399565b90508281526020810184848401111561242357612422612334565b5b61242e8482856123e5565b509392505050565b600082601f83011261244b5761244a61232f565b5b813561245b8482602086016123f4565b91505092915050565b60006020828403121561247a57612479612031565b5b600082013567ffffffffffffffff81111561249857612497612036565b5b6124a484828501612436565b91505092915050565b600060ff82169050919050565b6124c3816124ad565b82525050565b60006020820190506124de60008301846124ba565b92915050565b6000602082840312156124fa576124f9612031565b5b600061250884828501612287565b91505092915050565b61251a816121b1565b82525050565b60006020820190506125356000830184612511565b92915050565b6000806040838503121561255257612551612031565b5b6000612560858286016121d2565b925050602083013567ffffffffffffffff81111561258157612580612036565b5b61258d85828601612436565b9150509250929050565b6125a0816120c0565b81146125ab57600080fd5b50565b6000813590506125bd81612597565b92915050565b600080604083850312156125da576125d9612031565b5b60006125e885828601612287565b92505060206125f9858286016125ae565b9150509250929050565b600067ffffffffffffffff82111561261e5761261d612339565b5b61262782612145565b9050602081019050919050565b600061264761264284612603565b612399565b90508281526020810184848401111561266357612662612334565b5b61266e8482856123e5565b509392505050565b600082601f83011261268b5761268a61232f565b5b813561269b848260208601612634565b91505092915050565b600080600080608085870312156126be576126bd612031565b5b60006126cc87828801612287565b94505060206126dd87828801612287565b93505060406126ee878288016121d2565b925050606085013567ffffffffffffffff81111561270f5761270e612036565b5b61271b87828801612676565b91505092959194509250565b6000806040838503121561273e5761273d612031565b5b600061274c85828601612287565b925050602061275d85828601612287565b9150509250929050565b7f4e487b7100000000000000000000000000000000000000000000000000000000600052602260045260246000fd5b600060028204905060018216806127ae57607f821691505b602082108114156127c2576127c1612767565b5b50919050565b7f4552433732313a20617070726f76616c20746f2063757272656e74206f776e6560008201527f7200000000000000000000000000000000000000000000000000000000000000602082015250565b6000612824602183612101565b915061282f826127c8565b604082019050919050565b6000602082019050818103600083015261285381612817565b9050919050565b7f4552433732313a20617070726f76652063616c6c6572206973206e6f7420746f60008201527f6b656e206f776e6572206f7220617070726f76656420666f7220616c6c000000602082015250565b60006128b6603d83612101565b91506128c18261285a565b604082019050919050565b600060208201905081810360008301526128e5816128a9565b9050919050565b7f4552433732313a2063616c6c6572206973206e6f7420746f6b656e206f776e6560008201527f72206f7220617070726f76656400000000000000000000000000000000000000602082015250565b6000612948602d83612101565b9150612953826128ec565b604082019050919050565b600060208201905081810360008301526129778161293b565b9050919050565b7f4552433732313a20696e76616c696420746f6b656e2049440000000000000000600082015250565b60006129b4601883612101565b91506129bf8261297e565b602082019050919050565b600060208201905081810360008301526129e3816129a7565b9050919050565b7f4552433732313a2061646472657373207a65726f206973206e6f74206120766160008201527f6c6964206f776e65720000000000000000000000000000000000000000000000602082015250565b6000612a46602983612101565b9150612a51826129ea565b604082019050919050565b60006020820190508181036000830152612a7581612a39565b9050919050565b7f4f776e61626c653a206e6577206f776e657220697320746865207a65726f206160008201527f6464726573730000000000000000000000000000000000000000000000000000602082015250565b6000612ad8602683612101565b9150612ae382612a7c565b604082019050919050565b60006020820190508181036000830152612b0781612acb565b9050919050565b7f4552433732313a207472616e736665722066726f6d20696e636f72726563742060008201527f6f776e6572000000000000000000000000000000000000000000000000000000602082015250565b6000612b6a602583612101565b9150612b7582612b0e565b604082019050919050565b60006020820190508181036000830152612b9981612b5d565b9050919050565b7f4552433732313a207472616e7366657220746f20746865207a65726f2061646460008201527f7265737300000000000000000000000000000000000000000000000000000000602082015250565b6000612bfc602483612101565b9150612c0782612ba0565b604082019050919050565b60006020820190508181036000830152612c2b81612bef565b9050919050565b7f4f776e61626c653a2063616c6c6572206973206e6f7420746865206f776e6572600082015250565b6000612c68602083612101565b9150612c7382612c32565b602082019050919050565b60006020820190508181036000830152612c9781612c5b565b9050919050565b7f45524337323155524953746f726167653a2055524920736574206f66206e6f6e60008201527f6578697374656e7420746f6b656e000000000000000000000000000000000000602082015250565b6000612cfa602e83612101565b9150612d0582612c9e565b604082019050919050565b60006020820190508181036000830152612d2981612ced565b9050919050565b7f4552433732313a20617070726f766520746f2063616c6c657200000000000000600082015250565b6000612d66601983612101565b9150612d7182612d30565b602082019050919050565b60006020820190508181036000830152612d9581612d59565b9050919050565b7f4552433732313a207472616e7366657220746f206e6f6e20455243373231526560008201527f63656976657220696d706c656d656e7465720000000000000000000000000000602082015250565b6000612df8603283612101565b9150612e0382612d9c565b604082019050919050565b60006020820190508181036000830152612e2781612deb565b9050919050565b600081905092915050565b6000612e44826120f6565b612e4e8185612e2e565b9350612e5e818560208601612112565b80840191505092915050565b6000612e768285612e39565b9150612e828284612e39565b91508190509392505050565b7f596f752063616e2774207472616e736665722074686973204e46540000000000600082015250565b6000612ec4601b83612101565b9150612ecf82612e8e565b602082019050919050565b60006020820190508181036000830152612ef381612eb7565b9050919050565b600081519050919050565b600082825260208201905092915050565b6000612f2182612efa565b612f2b8185612f05565b9350612f3b818560208601612112565b612f4481612145565b840191505092915050565b6000608082019050612f646000830187612246565b612f716020830186612246565b612f7e6040830185612511565b8181036060830152612f908184612f16565b905095945050505050565b600081519050612faa81612067565b92915050565b600060208284031215612fc657612fc5612031565b5b6000612fd484828501612f9b565b91505092915050565b7f4552433732313a206d696e7420746f20746865207a65726f2061646472657373600082015250565b6000613013602083612101565b915061301e82612fdd565b602082019050919050565b6000602082019050818103600083015261304281613006565b9050919050565b7f4552433732313a20746f6b656e20616c7265616479206d696e74656400000000600082015250565b600061307f601c83612101565b915061308a82613049565b602082019050919050565b600060208201905081810360008301526130ae81613072565b9050919050565b7f4e487b7100000000000000000000000000000000000000000000000000000000600052601260045260246000fdfea26469706673582212200dcba8ca3303c680909dfa463f13a70fe075f26fd37144c624e5198ffbec9b0d64736f6c63430008090033",
  "devdoc": {
    "author": "Shivam Arora",
    "details": "Employee Management Contract allows users to create employeesNFTs and manage them",
    "kind": "dev",
    "methods": {
      "owner()": {
        "details": "Returns the address of the current owner."
      },
      "renounceOwnership()": {
        "details": "Leaves the contract without owner. It will not be possible to call `onlyOwner` functions anymore. Can only be called by the current owner. NOTE: Renouncing ownership will leave the contract without an owner, thereby removing any functionality that is only available to the owner."
      },
      "transferOwnership(address)": {
        "details": "Transfers ownership of the contract to a new account (`newOwner`). Can only be called by the current owner."
      }
    },
    "title": "EmployeeManagementContract",
    "version": 1
  },
  "userdoc": {
    "kind": "user",
    "methods": {},
    "version": 1
  },
  "storageLayout": {
    "storage": [
      {
        "astId": 123,
        "contract": "contracts/EMS.sol:EMS",
        "label": "_status",
        "offset": 0,
        "slot": "0",
        "type": "t_uint256"
      },
      {
        "astId": 7,
        "contract": "contracts/EMS.sol:EMS",
        "label": "_owner",
        "offset": 0,
        "slot": "1",
        "type": "t_address"
      },
      {
        "astId": 2946,
        "contract": "contracts/EMS.sol:EMS",
        "label": "NFT",
        "offset": 0,
        "slot": "2",
        "type": "t_contract(EmployeeNFT)3917"
      },
      {
        "astId": 2964,
        "contract": "contracts/EMS.sol:EMS",
        "label": "employees",
        "offset": 0,
        "slot": "3",
        "type": "t_mapping(t_uint16,t_struct(Employee)2959_storage)"
      }
    ],
    "types": {
      "t_address": {
        "encoding": "inplace",
        "label": "address",
        "numberOfBytes": "20"
      },
      "t_array(t_bool)dyn_storage": {
        "base": "t_bool",
        "encoding": "dynamic_array",
        "label": "bool[]",
        "numberOfBytes": "32"
      },
      "t_array(t_bytes32)dyn_storage": {
        "base": "t_bytes32",
        "encoding": "dynamic_array",
        "label": "bytes32[]",
        "numberOfBytes": "32"
      },
      "t_bool": {
        "encoding": "inplace",
        "label": "bool",
        "numberOfBytes": "1"
      },
      "t_bytes32": {
        "encoding": "inplace",
        "label": "bytes32",
        "numberOfBytes": "32"
      },
      "t_contract(EmployeeNFT)3917": {
        "encoding": "inplace",
        "label": "contract EmployeeNFT",
        "numberOfBytes": "20"
      },
      "t_mapping(t_uint16,t_struct(Employee)2959_storage)": {
        "encoding": "mapping",
        "key": "t_uint16",
        "label": "mapping(uint16 => struct EMS.Employee)",
        "numberOfBytes": "32",
        "value": "t_struct(Employee)2959_storage"
      },
      "t_struct(Employee)2959_storage": {
        "encoding": "inplace",
        "label": "struct EMS.Employee",
        "members": [
          {
            "astId": 2948,
            "contract": "contracts/EMS.sol:EMS",
            "label": "empDetails",
            "offset": 0,
            "slot": "0",
            "type": "t_bytes32"
          },
          {
            "astId": 2950,
            "contract": "contracts/EMS.sol:EMS",
            "label": "skillHash",
            "offset": 0,
            "slot": "1",
            "type": "t_bytes32"
          },
          {
            "astId": 2952,
            "contract": "contracts/EMS.sol:EMS",
            "label": "_currentProject",
            "offset": 0,
            "slot": "2",
            "type": "t_uint8"
          },
          {
            "astId": 2955,
            "contract": "contracts/EMS.sol:EMS",
            "label": "projDetails",
            "offset": 0,
            "slot": "3",
            "type": "t_array(t_bytes32)dyn_storage"
          },
          {
            "astId": 2958,
            "contract": "contracts/EMS.sol:EMS",
            "label": "exists",
            "offset": 0,
            "slot": "4",
            "type": "t_array(t_bool)dyn_storage"
          }
        ],
        "numberOfBytes": "160"
      },
      "t_uint16": {
        "encoding": "inplace",
        "label": "uint16",
        "numberOfBytes": "2"
      },
      "t_uint256": {
        "encoding": "inplace",
        "label": "uint256",
        "numberOfBytes": "32"
      },
      "t_uint8": {
        "encoding": "inplace",
        "label": "uint8",
        "numberOfBytes": "1"
      }
    }
  }
}