{
  "address": "0x5FbDB2315678afecb367f032d93F642f64180aa3",
  "abi": [
    {
      "inputs": [],
      "stateMutability": "nonpayable",
      "type": "constructor"
    },
    {
      "anonymous": false,
      "inputs": [
        {
          "indexed": false,
          "internalType": "uint256",
          "name": "tokenId",
          "type": "uint256"
        },
        {
          "indexed": false,
          "internalType": "string",
          "name": "_projectName",
          "type": "string"
        },
        {
          "indexed": false,
          "internalType": "uint256",
          "name": "startTime",
          "type": "uint256"
        },
        {
          "indexed": false,
          "internalType": "uint256",
          "name": "endTime",
          "type": "uint256"
        }
      ],
      "name": "NFTChanged",
      "type": "event"
    },
    {
      "anonymous": false,
      "inputs": [
        {
          "indexed": false,
          "internalType": "uint256",
          "name": "_empId",
          "type": "uint256"
        },
        {
          "indexed": false,
          "internalType": "string",
          "name": "_employeeName",
          "type": "string"
        },
        {
          "indexed": false,
          "internalType": "string",
          "name": "_projectName",
          "type": "string"
        },
        {
          "indexed": false,
          "internalType": "uint256",
          "name": "startTime",
          "type": "uint256"
        },
        {
          "indexed": false,
          "internalType": "uint256",
          "name": "endTime",
          "type": "uint256"
        },
        {
          "indexed": false,
          "internalType": "uint256",
          "name": "tokenId",
          "type": "uint256"
        }
      ],
      "name": "NFTMinted",
      "type": "event"
    },
    {
      "inputs": [],
      "name": "getNFT",
      "outputs": [
        {
          "internalType": "contract EmployeeNFT",
          "name": "",
          "type": "address"
        }
      ],
      "stateMutability": "view",
      "type": "function"
    },
    {
      "inputs": [
        {
          "internalType": "string",
          "name": "_employeeName",
          "type": "string"
        },
        {
          "internalType": "uint256",
          "name": "_empId",
          "type": "uint256"
        },
        {
          "internalType": "string",
          "name": "_projectName",
          "type": "string"
        },
        {
          "internalType": "uint256",
          "name": "startTime",
          "type": "uint256"
        },
        {
          "internalType": "uint256",
          "name": "endTime",
          "type": "uint256"
        }
      ],
      "name": "mintEmployeeNFT",
      "outputs": [
        {
          "internalType": "uint256",
          "name": "",
          "type": "uint256"
        }
      ],
      "stateMutability": "nonpayable",
      "type": "function"
    },
    {
      "inputs": [
        {
          "internalType": "address",
          "name": "",
          "type": "address"
        },
        {
          "internalType": "address",
          "name": "",
          "type": "address"
        },
        {
          "internalType": "uint256",
          "name": "",
          "type": "uint256"
        },
        {
          "internalType": "bytes",
          "name": "",
          "type": "bytes"
        }
      ],
      "name": "onERC721Received",
      "outputs": [
        {
          "internalType": "bytes4",
          "name": "",
          "type": "bytes4"
        }
      ],
      "stateMutability": "pure",
      "type": "function"
    },
    {
      "inputs": [
        {
          "internalType": "uint256",
          "name": "tokenId",
          "type": "uint256"
        },
        {
          "internalType": "string",
          "name": "_projectName",
          "type": "string"
        },
        {
          "internalType": "uint256",
          "name": "startTime",
          "type": "uint256"
        },
        {
          "internalType": "uint256",
          "name": "endTime",
          "type": "uint256"
        }
      ],
      "name": "updateEmployeeNFT",
      "outputs": [],
      "stateMutability": "nonpayable",
      "type": "function"
    }
  ],
  "transactionHash": "0xb36d9968a2d42bc48e69ff2274290f247935cdb63ff0816415fd653a962d719f",
  "args": [],
  "numDeployments": 1,
  "solcInputHash": "68e9c11340f5ec6e5cc047e15b766bd8",
  "bytecode": "0x608060405234801561001057600080fd5b50600160008190555060405161002590610087565b604051809103906000f080158015610041573d6000803e3d6000fd5b50600160006101000a81548173ffffffffffffffffffffffffffffffffffffffff021916908373ffffffffffffffffffffffffffffffffffffffff160217905550610094565b61337980610e1983390190565b610d76806100a36000396000f3fe608060405234801561001057600080fd5b506004361061004c5760003560e01c8063150b7a02146100515780634fb7fdb31461008157806388a6360e1461009d578063eb1b0dce146100bb575b600080fd5b61006b60048036038101906100669190610618565b6100eb565b60405161007891906106db565b60405180910390f35b61009b60048036038101906100969190610837565b610100565b005b6100a5610286565b6040516100b29190610919565b60405180910390f35b6100d560048036038101906100d09190610934565b6102b0565b6040516100e291906109f6565b60405180910390f35b600063150b7a0260e01b905095945050505050565b600083838360405160200161011793929190610a99565b6040516020818303038152906040528051906020012090508060026000878152602001908152602001600020600101819055506000600260008781526020019081526020016000206000015482604051602001610175929190610af0565b6040516020818303038152906040528051906020012090506000816040516020016101a09190610b3a565b6040516020818303038152906040529050600160009054906101000a900473ffffffffffffffffffffffffffffffffffffffff1673ffffffffffffffffffffffffffffffffffffffff1663862440e288836040518363ffffffff1660e01b815260040161020e929190610b55565b600060405180830381600087803b15801561022857600080fd5b505af115801561023c573d6000803e3d6000fd5b505050507fe0e72fdf69a12f71a9756091d13fff63d51312aeafbdd6f795e6b62d09b9c8a4878787876040516102759493929190610b85565b60405180910390a150505050505050565b6000600160009054906101000a900473ffffffffffffffffffffffffffffffffffffffff16905090565b60006102ba6104b1565b600086866040516020016102cf929190610bd1565b60405160208183030381529060405280519060200120905060008585856040516020016102fe93929190610a99565b6040516020818303038152906040528051906020012090506000828260405160200161032b929190610af0565b6040516020818303038152906040528051906020012090506000816040516020016103569190610b3a565b60405160208183030381529060405290506000600160009054906101000a900473ffffffffffffffffffffffffffffffffffffffff1673ffffffffffffffffffffffffffffffffffffffff1663695850fb836040518263ffffffff1660e01b81526004016103c49190610c01565b602060405180830381600087803b1580156103de57600080fd5b505af11580156103f2573d6000803e3d6000fd5b505050506040513d601f19601f820116820180604052508101906104169190610c38565b90506040518060400160405280868152602001858152506002600083815260200190815260200160002060008201518160000155602082015181600101559050507f8cad9150e5be17cf0333c6d81e66ae09bee247924044e581a139b086a5932d068a8c8b8b8b8660405161049096959493929190610c65565b60405180910390a180955050505050506104a8610501565b95945050505050565b600260005414156104f7576040517f08c379a00000000000000000000000000000000000000000000000000000000081526004016104ee90610d20565b60405180910390fd5b6002600081905550565b6001600081905550565b6000604051905090565b600080fd5b600080fd5b600073ffffffffffffffffffffffffffffffffffffffff82169050919050565b600061054a8261051f565b9050919050565b61055a8161053f565b811461056557600080fd5b50565b60008135905061057781610551565b92915050565b6000819050919050565b6105908161057d565b811461059b57600080fd5b50565b6000813590506105ad81610587565b92915050565b600080fd5b600080fd5b600080fd5b60008083601f8401126105d8576105d76105b3565b5b8235905067ffffffffffffffff8111156105f5576105f46105b8565b5b602083019150836001820283011115610611576106106105bd565b5b9250929050565b60008060008060006080868803121561063457610633610515565b5b600061064288828901610568565b955050602061065388828901610568565b94505060406106648882890161059e565b935050606086013567ffffffffffffffff8111156106855761068461051a565b5b610691888289016105c2565b92509250509295509295909350565b60007fffffffff0000000000000000000000000000000000000000000000000000000082169050919050565b6106d5816106a0565b82525050565b60006020820190506106f060008301846106cc565b92915050565b600080fd5b6000601f19601f8301169050919050565b7f4e487b7100000000000000000000000000000000000000000000000000000000600052604160045260246000fd5b610744826106fb565b810181811067ffffffffffffffff821117156107635761076261070c565b5b80604052505050565b600061077661050b565b9050610782828261073b565b919050565b600067ffffffffffffffff8211156107a2576107a161070c565b5b6107ab826106fb565b9050602081019050919050565b82818337600083830152505050565b60006107da6107d584610787565b61076c565b9050828152602081018484840111156107f6576107f56106f6565b5b6108018482856107b8565b509392505050565b600082601f83011261081e5761081d6105b3565b5b813561082e8482602086016107c7565b91505092915050565b6000806000806080858703121561085157610850610515565b5b600061085f8782880161059e565b945050602085013567ffffffffffffffff8111156108805761087f61051a565b5b61088c87828801610809565b935050604061089d8782880161059e565b92505060606108ae8782880161059e565b91505092959194509250565b6000819050919050565b60006108df6108da6108d58461051f565b6108ba565b61051f565b9050919050565b60006108f1826108c4565b9050919050565b6000610903826108e6565b9050919050565b610913816108f8565b82525050565b600060208201905061092e600083018461090a565b92915050565b600080600080600060a086880312156109505761094f610515565b5b600086013567ffffffffffffffff81111561096e5761096d61051a565b5b61097a88828901610809565b955050602061098b8882890161059e565b945050604086013567ffffffffffffffff8111156109ac576109ab61051a565b5b6109b888828901610809565b93505060606109c98882890161059e565b92505060806109da8882890161059e565b9150509295509295909350565b6109f08161057d565b82525050565b6000602082019050610a0b60008301846109e7565b92915050565b600081519050919050565b600082825260208201905092915050565b60005b83811015610a4b578082015181840152602081019050610a30565b83811115610a5a576000848401525b50505050565b6000610a6b82610a11565b610a758185610a1c565b9350610a85818560208601610a2d565b610a8e816106fb565b840191505092915050565b60006060820190508181036000830152610ab38186610a60565b9050610ac260208301856109e7565b610acf60408301846109e7565b949350505050565b6000819050919050565b610aea81610ad7565b82525050565b6000604082019050610b056000830185610ae1565b610b126020830184610ae1565b9392505050565b6000819050919050565b610b34610b2f82610ad7565b610b19565b82525050565b6000610b468284610b23565b60208201915081905092915050565b6000604082019050610b6a60008301856109e7565b8181036020830152610b7c8184610a60565b90509392505050565b6000608082019050610b9a60008301876109e7565b8181036020830152610bac8186610a60565b9050610bbb60408301856109e7565b610bc860608301846109e7565b95945050505050565b60006040820190508181036000830152610beb8185610a60565b9050610bfa60208301846109e7565b9392505050565b60006020820190508181036000830152610c1b8184610a60565b905092915050565b600081519050610c3281610587565b92915050565b600060208284031215610c4e57610c4d610515565b5b6000610c5c84828501610c23565b91505092915050565b600060c082019050610c7a60008301896109e7565b8181036020830152610c8c8188610a60565b90508181036040830152610ca08187610a60565b9050610caf60608301866109e7565b610cbc60808301856109e7565b610cc960a08301846109e7565b979650505050505050565b7f5265656e7472616e637947756172643a207265656e7472616e742063616c6c00600082015250565b6000610d0a601f83610a1c565b9150610d1582610cd4565b602082019050919050565b60006020820190508181036000830152610d3981610cfd565b905091905056fea26469706673582212208fe7099459a074024a4a4d1e06d3094f2bd7248746a1ed494b5873200fdb5f6b64736f6c6343000809003360806040523480156200001157600080fd5b506040518060400160405280600381526020017f454d5300000000000000000000000000000000000000000000000000000000008152506040518060400160405280600381526020017f5446540000000000000000000000000000000000000000000000000000000000815250816000908051906020019062000096929190620001a6565b508060019080519060200190620000af929190620001a6565b505050620000d2620000c6620000d860201b60201c565b620000e060201b60201c565b620002bb565b600033905090565b6000600760009054906101000a900473ffffffffffffffffffffffffffffffffffffffff16905081600760006101000a81548173ffffffffffffffffffffffffffffffffffffffff021916908373ffffffffffffffffffffffffffffffffffffffff1602179055508173ffffffffffffffffffffffffffffffffffffffff168173ffffffffffffffffffffffffffffffffffffffff167f8be0079c531659141344cd1fd0a4f28419497f9722a3daafe3b4186f6b6457e060405160405180910390a35050565b828054620001b49062000285565b90600052602060002090601f016020900481019282620001d8576000855562000224565b82601f10620001f357805160ff191683800117855562000224565b8280016001018555821562000224579182015b828111156200022357825182559160200191906001019062000206565b5b50905062000233919062000237565b5090565b5b808211156200025257600081600090555060010162000238565b5090565b7f4e487b7100000000000000000000000000000000000000000000000000000000600052602260045260246000fd5b600060028204905060018216806200029e57607f821691505b60208210811415620002b557620002b462000256565b5b50919050565b6130ae80620002cb6000396000f3fe608060405234801561001057600080fd5b50600436106101215760003560e01c806370a08231116100ad578063a22cb46511610071578063a22cb46514610306578063b88d4fde14610322578063c87b56dd1461033e578063e985e9c51461036e578063f2fde38b1461039e57610121565b806370a0823114610274578063715018a6146102a4578063862440e2146102ae5780638da5cb5b146102ca57806395d89b41146102e857610121565b806323b872dd116100f457806323b872dd146101c057806342842e0e146101dc57806342966c68146101f85780636352211e14610214578063695850fb1461024457610121565b806301ffc9a71461012657806306fdde0314610156578063081812fc14610174578063095ea7b3146101a4575b600080fd5b610140600480360381019061013b919061205e565b6103ba565b60405161014d91906120a6565b60405180910390f35b61015e61049c565b60405161016b919061215a565b60405180910390f35b61018e600480360381019061018991906121b2565b61052e565b60405161019b9190612220565b60405180910390f35b6101be60048036038101906101b99190612267565b610574565b005b6101da60048036038101906101d591906122a7565b61068c565b005b6101f660048036038101906101f191906122a7565b6106ec565b005b610212600480360381019061020d91906121b2565b61070c565b005b61022e600480360381019061022991906121b2565b610768565b60405161023b9190612220565b60405180910390f35b61025e6004803603810190610259919061242f565b6107ef565b60405161026b9190612487565b60405180910390f35b61028e600480360381019061028991906124a2565b61082e565b60405161029b9190612487565b60405180910390f35b6102ac6108e6565b005b6102c860048036038101906102c391906124cf565b6108fa565b005b6102d2610910565b6040516102df9190612220565b60405180910390f35b6102f061093a565b6040516102fd919061215a565b60405180910390f35b610320600480360381019061031b9190612557565b6109cc565b005b61033c60048036038101906103379190612638565b6109e2565b005b610358600480360381019061035391906121b2565b610a44565b604051610365919061215a565b60405180910390f35b610388600480360381019061038391906126bb565b610a56565b60405161039591906120a6565b60405180910390f35b6103b860048036038101906103b391906124a2565b610aea565b005b60007f80ac58cd000000000000000000000000000000000000000000000000000000007bffffffffffffffffffffffffffffffffffffffffffffffffffffffff1916827bffffffffffffffffffffffffffffffffffffffffffffffffffffffff1916148061048557507f5b5e139f000000000000000000000000000000000000000000000000000000007bffffffffffffffffffffffffffffffffffffffffffffffffffffffff1916827bffffffffffffffffffffffffffffffffffffffffffffffffffffffff1916145b80610495575061049482610b6e565b5b9050919050565b6060600080546104ab9061272a565b80601f01602080910402602001604051908101604052809291908181526020018280546104d79061272a565b80156105245780601f106104f957610100808354040283529160200191610524565b820191906000526020600020905b81548152906001019060200180831161050757829003601f168201915b5050505050905090565b600061053982610bd8565b6004600083815260200190815260200160002060009054906101000a900473ffffffffffffffffffffffffffffffffffffffff169050919050565b600061057f82610768565b90508073ffffffffffffffffffffffffffffffffffffffff168373ffffffffffffffffffffffffffffffffffffffff1614156105f0576040517f08c379a00000000000000000000000000000000000000000000000000000000081526004016105e7906127ce565b60405180910390fd5b8073ffffffffffffffffffffffffffffffffffffffff1661060f610c23565b73ffffffffffffffffffffffffffffffffffffffff16148061063e575061063d81610638610c23565b610a56565b5b61067d576040517f08c379a000000000000000000000000000000000000000000000000000000000815260040161067490612860565b60405180910390fd5b6106878383610c2b565b505050565b61069d610697610c23565b82610ce4565b6106dc576040517f08c379a00000000000000000000000000000000000000000000000000000000081526004016106d3906128f2565b60405180910390fd5b6106e7838383610d79565b505050565b610707838383604051806020016040528060008152506109e2565b505050565b61071d610717610c23565b82610ce4565b61075c576040517f08c379a0000000000000000000000000000000000000000000000000000000008152600401610753906128f2565b60405180910390fd5b61076581611073565b50565b6000806107748361107f565b9050600073ffffffffffffffffffffffffffffffffffffffff168173ffffffffffffffffffffffffffffffffffffffff1614156107e6576040517f08c379a00000000000000000000000000000000000000000000000000000000081526004016107dd9061295e565b60405180910390fd5b80915050919050565b60006107f96110bc565b6000610805600861113a565b90506108116008611148565b61081b338261115e565b610825818461117c565b80915050919050565b60008073ffffffffffffffffffffffffffffffffffffffff168273ffffffffffffffffffffffffffffffffffffffff16141561089f576040517f08c379a0000000000000000000000000000000000000000000000000000000008152600401610896906129f0565b60405180910390fd5b600360008373ffffffffffffffffffffffffffffffffffffffff1673ffffffffffffffffffffffffffffffffffffffff168152602001908152602001600020549050919050565b6108ee6110bc565b6108f860006111f0565b565b6109026110bc565b61090c828261117c565b5050565b6000600760009054906101000a900473ffffffffffffffffffffffffffffffffffffffff16905090565b6060600180546109499061272a565b80601f01602080910402602001604051908101604052809291908181526020018280546109759061272a565b80156109c25780601f10610997576101008083540402835291602001916109c2565b820191906000526020600020905b8154815290600101906020018083116109a557829003601f168201915b5050505050905090565b6109de6109d7610c23565b83836112b6565b5050565b6109f36109ed610c23565b83610ce4565b610a32576040517f08c379a0000000000000000000000000000000000000000000000000000000008152600401610a29906128f2565b60405180910390fd5b610a3e84848484611423565b50505050565b6060610a4f8261147f565b9050919050565b6000600560008473ffffffffffffffffffffffffffffffffffffffff1673ffffffffffffffffffffffffffffffffffffffff16815260200190815260200160002060008373ffffffffffffffffffffffffffffffffffffffff1673ffffffffffffffffffffffffffffffffffffffff16815260200190815260200160002060009054906101000a900460ff16905092915050565b610af26110bc565b600073ffffffffffffffffffffffffffffffffffffffff168173ffffffffffffffffffffffffffffffffffffffff161415610b62576040517f08c379a0000000000000000000000000000000000000000000000000000000008152600401610b5990612a82565b60405180910390fd5b610b6b816111f0565b50565b60007f01ffc9a7000000000000000000000000000000000000000000000000000000007bffffffffffffffffffffffffffffffffffffffffffffffffffffffff1916827bffffffffffffffffffffffffffffffffffffffffffffffffffffffff1916149050919050565b610be181611592565b610c20576040517f08c379a0000000000000000000000000000000000000000000000000000000008152600401610c179061295e565b60405180910390fd5b50565b600033905090565b816004600083815260200190815260200160002060006101000a81548173ffffffffffffffffffffffffffffffffffffffff021916908373ffffffffffffffffffffffffffffffffffffffff160217905550808273ffffffffffffffffffffffffffffffffffffffff16610c9e83610768565b73ffffffffffffffffffffffffffffffffffffffff167f8c5be1e5ebec7d5bd14f71427d1e84f3dd0314c0f7b2291e5b200ac8c7c3b92560405160405180910390a45050565b600080610cf083610768565b90508073ffffffffffffffffffffffffffffffffffffffff168473ffffffffffffffffffffffffffffffffffffffff161480610d325750610d318185610a56565b5b80610d7057508373ffffffffffffffffffffffffffffffffffffffff16610d588461052e565b73ffffffffffffffffffffffffffffffffffffffff16145b91505092915050565b8273ffffffffffffffffffffffffffffffffffffffff16610d9982610768565b73ffffffffffffffffffffffffffffffffffffffff1614610def576040517f08c379a0000000000000000000000000000000000000000000000000000000008152600401610de690612b14565b60405180910390fd5b600073ffffffffffffffffffffffffffffffffffffffff168273ffffffffffffffffffffffffffffffffffffffff161415610e5f576040517f08c379a0000000000000000000000000000000000000000000000000000000008152600401610e5690612ba6565b60405180910390fd5b610e6c83838360016115d3565b8273ffffffffffffffffffffffffffffffffffffffff16610e8c82610768565b73ffffffffffffffffffffffffffffffffffffffff1614610ee2576040517f08c379a0000000000000000000000000000000000000000000000000000000008152600401610ed990612b14565b60405180910390fd5b6004600082815260200190815260200160002060006101000a81549073ffffffffffffffffffffffffffffffffffffffff02191690556001600360008573ffffffffffffffffffffffffffffffffffffffff1673ffffffffffffffffffffffffffffffffffffffff168152602001908152602001600020600082825403925050819055506001600360008473ffffffffffffffffffffffffffffffffffffffff1673ffffffffffffffffffffffffffffffffffffffff16815260200190815260200160002060008282540192505081905550816002600083815260200190815260200160002060006101000a81548173ffffffffffffffffffffffffffffffffffffffff021916908373ffffffffffffffffffffffffffffffffffffffff160217905550808273ffffffffffffffffffffffffffffffffffffffff168473ffffffffffffffffffffffffffffffffffffffff167fddf252ad1be2c89b69c2b068fc378daa952ba7f163c4a11628f55a4df523b3ef60405160405180910390a461106e838383600161168b565b505050565b61107c81611691565b50565b60006002600083815260200190815260200160002060009054906101000a900473ffffffffffffffffffffffffffffffffffffffff169050919050565b6110c4610c23565b73ffffffffffffffffffffffffffffffffffffffff166110e2610910565b73ffffffffffffffffffffffffffffffffffffffff1614611138576040517f08c379a000000000000000000000000000000000000000000000000000000000815260040161112f90612c12565b60405180910390fd5b565b600081600001549050919050565b6001816000016000828254019250508190555050565b6111788282604051806020016040528060008152506116e4565b5050565b61118582611592565b6111c4576040517f08c379a00000000000000000000000000000000000000000000000000000000081526004016111bb90612ca4565b60405180910390fd5b806006600084815260200190815260200160002090805190602001906111eb929190611f0f565b505050565b6000600760009054906101000a900473ffffffffffffffffffffffffffffffffffffffff16905081600760006101000a81548173ffffffffffffffffffffffffffffffffffffffff021916908373ffffffffffffffffffffffffffffffffffffffff1602179055508173ffffffffffffffffffffffffffffffffffffffff168173ffffffffffffffffffffffffffffffffffffffff167f8be0079c531659141344cd1fd0a4f28419497f9722a3daafe3b4186f6b6457e060405160405180910390a35050565b8173ffffffffffffffffffffffffffffffffffffffff168373ffffffffffffffffffffffffffffffffffffffff161415611325576040517f08c379a000000000000000000000000000000000000000000000000000000000815260040161131c90612d10565b60405180910390fd5b80600560008573ffffffffffffffffffffffffffffffffffffffff1673ffffffffffffffffffffffffffffffffffffffff16815260200190815260200160002060008473ffffffffffffffffffffffffffffffffffffffff1673ffffffffffffffffffffffffffffffffffffffff16815260200190815260200160002060006101000a81548160ff0219169083151502179055508173ffffffffffffffffffffffffffffffffffffffff168373ffffffffffffffffffffffffffffffffffffffff167f17307eab39ab6107e8899845ad3d59bd9653f200f220920489ca2b5937696c318360405161141691906120a6565b60405180910390a3505050565b61142e848484610d79565b61143a8484848461173f565b611479576040517f08c379a000000000000000000000000000000000000000000000000000000000815260040161147090612da2565b60405180910390fd5b50505050565b606061148a82610bd8565b60006006600084815260200190815260200160002080546114aa9061272a565b80601f01602080910402602001604051908101604052809291908181526020018280546114d69061272a565b80156115235780601f106114f857610100808354040283529160200191611523565b820191906000526020600020905b81548152906001019060200180831161150657829003601f168201915b5050505050905060006115346118d6565b905060008151141561154a57819250505061158d565b60008251111561157f578082604051602001611567929190612dfe565b6040516020818303038152906040529250505061158d565b611588846118ed565b925050505b919050565b60008073ffffffffffffffffffffffffffffffffffffffff166115b48361107f565b73ffffffffffffffffffffffffffffffffffffffff1614159050919050565b6115db610910565b73ffffffffffffffffffffffffffffffffffffffff168473ffffffffffffffffffffffffffffffffffffffff1614806116465750611617610910565b73ffffffffffffffffffffffffffffffffffffffff168373ffffffffffffffffffffffffffffffffffffffff16145b611685576040517f08c379a000000000000000000000000000000000000000000000000000000000815260040161167c90612e6e565b60405180910390fd5b50505050565b50505050565b61169a81611955565b60006006600083815260200190815260200160002080546116ba9061272a565b9050146116e1576006600082815260200190815260200160002060006116e09190611f95565b5b50565b6116ee8383611aa3565b6116fb600084848461173f565b61173a576040517f08c379a000000000000000000000000000000000000000000000000000000000815260040161173190612da2565b60405180910390fd5b505050565b60006117608473ffffffffffffffffffffffffffffffffffffffff16611cc1565b156118c9578373ffffffffffffffffffffffffffffffffffffffff1663150b7a02611789610c23565b8786866040518563ffffffff1660e01b81526004016117ab9493929190612ee3565b602060405180830381600087803b1580156117c557600080fd5b505af19250505080156117f657506040513d601f19601f820116820180604052508101906117f39190612f44565b60015b611879573d8060008114611826576040519150601f19603f3d011682016040523d82523d6000602084013e61182b565b606091505b50600081511415611871576040517f08c379a000000000000000000000000000000000000000000000000000000000815260040161186890612da2565b60405180910390fd5b805181602001fd5b63150b7a0260e01b7bffffffffffffffffffffffffffffffffffffffffffffffffffffffff1916817bffffffffffffffffffffffffffffffffffffffffffffffffffffffff1916149150506118ce565b600190505b949350505050565b606060405180602001604052806000815250905090565b60606118f882610bd8565b60006119026118d6565b90506000815111611922576040518060200160405280600081525061194d565b8061192c84611ce4565b60405160200161193d929190612dfe565b6040516020818303038152906040525b915050919050565b600061196082610768565b90506119708160008460016115d3565b61197982610768565b90506004600083815260200190815260200160002060006101000a81549073ffffffffffffffffffffffffffffffffffffffff02191690556001600360008373ffffffffffffffffffffffffffffffffffffffff1673ffffffffffffffffffffffffffffffffffffffff168152602001908152602001600020600082825403925050819055506002600083815260200190815260200160002060006101000a81549073ffffffffffffffffffffffffffffffffffffffff021916905581600073ffffffffffffffffffffffffffffffffffffffff168273ffffffffffffffffffffffffffffffffffffffff167fddf252ad1be2c89b69c2b068fc378daa952ba7f163c4a11628f55a4df523b3ef60405160405180910390a4611a9f81600084600161168b565b5050565b600073ffffffffffffffffffffffffffffffffffffffff168273ffffffffffffffffffffffffffffffffffffffff161415611b13576040517f08c379a0000000000000000000000000000000000000000000000000000000008152600401611b0a90612fbd565b60405180910390fd5b611b1c81611592565b15611b5c576040517f08c379a0000000000000000000000000000000000000000000000000000000008152600401611b5390613029565b60405180910390fd5b611b6a6000838360016115d3565b611b7381611592565b15611bb3576040517f08c379a0000000000000000000000000000000000000000000000000000000008152600401611baa90613029565b60405180910390fd5b6001600360008473ffffffffffffffffffffffffffffffffffffffff1673ffffffffffffffffffffffffffffffffffffffff16815260200190815260200160002060008282540192505081905550816002600083815260200190815260200160002060006101000a81548173ffffffffffffffffffffffffffffffffffffffff021916908373ffffffffffffffffffffffffffffffffffffffff160217905550808273ffffffffffffffffffffffffffffffffffffffff16600073ffffffffffffffffffffffffffffffffffffffff167fddf252ad1be2c89b69c2b068fc378daa952ba7f163c4a11628f55a4df523b3ef60405160405180910390a4611cbd60008383600161168b565b5050565b6000808273ffffffffffffffffffffffffffffffffffffffff163b119050919050565b606060006001611cf384611dbc565b01905060008167ffffffffffffffff811115611d1257611d11612304565b5b6040519080825280601f01601f191660200182016040528015611d445781602001600182028036833780820191505090505b509050600082602001820190505b600115611db1578080600190039150507f3031323334353637383961626364656600000000000000000000000000000000600a86061a8153600a8581611d9b57611d9a613049565b5b0494506000851415611dac57611db1565b611d52565b819350505050919050565b600080600090507a184f03e93ff9f4daa797ed6e38ed64bf6a1f0100000000000000008310611e1a577a184f03e93ff9f4daa797ed6e38ed64bf6a1f0100000000000000008381611e1057611e0f613049565b5b0492506040810190505b6d04ee2d6d415b85acef81000000008310611e57576d04ee2d6d415b85acef81000000008381611e4d57611e4c613049565b5b0492506020810190505b662386f26fc100008310611e8657662386f26fc100008381611e7c57611e7b613049565b5b0492506010810190505b6305f5e1008310611eaf576305f5e1008381611ea557611ea4613049565b5b0492506008810190505b6127108310611ed4576127108381611eca57611ec9613049565b5b0492506004810190505b60648310611ef75760648381611eed57611eec613049565b5b0492506002810190505b600a8310611f06576001810190505b80915050919050565b828054611f1b9061272a565b90600052602060002090601f016020900481019282611f3d5760008555611f84565b82601f10611f5657805160ff1916838001178555611f84565b82800160010185558215611f84579182015b82811115611f83578251825591602001919060010190611f68565b5b509050611f919190611fd5565b5090565b508054611fa19061272a565b6000825580601f10611fb35750611fd2565b601f016020900490600052602060002090810190611fd19190611fd5565b5b50565b5b80821115611fee576000816000905550600101611fd6565b5090565b6000604051905090565b600080fd5b600080fd5b60007fffffffff0000000000000000000000000000000000000000000000000000000082169050919050565b61203b81612006565b811461204657600080fd5b50565b60008135905061205881612032565b92915050565b60006020828403121561207457612073611ffc565b5b600061208284828501612049565b91505092915050565b60008115159050919050565b6120a08161208b565b82525050565b60006020820190506120bb6000830184612097565b92915050565b600081519050919050565b600082825260208201905092915050565b60005b838110156120fb5780820151818401526020810190506120e0565b8381111561210a576000848401525b50505050565b6000601f19601f8301169050919050565b600061212c826120c1565b61213681856120cc565b93506121468185602086016120dd565b61214f81612110565b840191505092915050565b600060208201905081810360008301526121748184612121565b905092915050565b6000819050919050565b61218f8161217c565b811461219a57600080fd5b50565b6000813590506121ac81612186565b92915050565b6000602082840312156121c8576121c7611ffc565b5b60006121d68482850161219d565b91505092915050565b600073ffffffffffffffffffffffffffffffffffffffff82169050919050565b600061220a826121df565b9050919050565b61221a816121ff565b82525050565b60006020820190506122356000830184612211565b92915050565b612244816121ff565b811461224f57600080fd5b50565b6000813590506122618161223b565b92915050565b6000806040838503121561227e5761227d611ffc565b5b600061228c85828601612252565b925050602061229d8582860161219d565b9150509250929050565b6000806000606084860312156122c0576122bf611ffc565b5b60006122ce86828701612252565b93505060206122df86828701612252565b92505060406122f08682870161219d565b9150509250925092565b600080fd5b600080fd5b7f4e487b7100000000000000000000000000000000000000000000000000000000600052604160045260246000fd5b61233c82612110565b810181811067ffffffffffffffff8211171561235b5761235a612304565b5b80604052505050565b600061236e611ff2565b905061237a8282612333565b919050565b600067ffffffffffffffff82111561239a57612399612304565b5b6123a382612110565b9050602081019050919050565b82818337600083830152505050565b60006123d26123cd8461237f565b612364565b9050828152602081018484840111156123ee576123ed6122ff565b5b6123f98482856123b0565b509392505050565b600082601f830112612416576124156122fa565b5b81356124268482602086016123bf565b91505092915050565b60006020828403121561244557612444611ffc565b5b600082013567ffffffffffffffff81111561246357612462612001565b5b61246f84828501612401565b91505092915050565b6124818161217c565b82525050565b600060208201905061249c6000830184612478565b92915050565b6000602082840312156124b8576124b7611ffc565b5b60006124c684828501612252565b91505092915050565b600080604083850312156124e6576124e5611ffc565b5b60006124f48582860161219d565b925050602083013567ffffffffffffffff81111561251557612514612001565b5b61252185828601612401565b9150509250929050565b6125348161208b565b811461253f57600080fd5b50565b6000813590506125518161252b565b92915050565b6000806040838503121561256e5761256d611ffc565b5b600061257c85828601612252565b925050602061258d85828601612542565b9150509250929050565b600067ffffffffffffffff8211156125b2576125b1612304565b5b6125bb82612110565b9050602081019050919050565b60006125db6125d684612597565b612364565b9050828152602081018484840111156125f7576125f66122ff565b5b6126028482856123b0565b509392505050565b600082601f83011261261f5761261e6122fa565b5b813561262f8482602086016125c8565b91505092915050565b6000806000806080858703121561265257612651611ffc565b5b600061266087828801612252565b945050602061267187828801612252565b93505060406126828782880161219d565b925050606085013567ffffffffffffffff8111156126a3576126a2612001565b5b6126af8782880161260a565b91505092959194509250565b600080604083850312156126d2576126d1611ffc565b5b60006126e085828601612252565b92505060206126f185828601612252565b9150509250929050565b7f4e487b7100000000000000000000000000000000000000000000000000000000600052602260045260246000fd5b6000600282049050600182168061274257607f821691505b60208210811415612756576127556126fb565b5b50919050565b7f4552433732313a20617070726f76616c20746f2063757272656e74206f776e6560008201527f7200000000000000000000000000000000000000000000000000000000000000602082015250565b60006127b86021836120cc565b91506127c38261275c565b604082019050919050565b600060208201905081810360008301526127e7816127ab565b9050919050565b7f4552433732313a20617070726f76652063616c6c6572206973206e6f7420746f60008201527f6b656e206f776e6572206f7220617070726f76656420666f7220616c6c000000602082015250565b600061284a603d836120cc565b9150612855826127ee565b604082019050919050565b600060208201905081810360008301526128798161283d565b9050919050565b7f4552433732313a2063616c6c6572206973206e6f7420746f6b656e206f776e6560008201527f72206f7220617070726f76656400000000000000000000000000000000000000602082015250565b60006128dc602d836120cc565b91506128e782612880565b604082019050919050565b6000602082019050818103600083015261290b816128cf565b9050919050565b7f4552433732313a20696e76616c696420746f6b656e2049440000000000000000600082015250565b60006129486018836120cc565b915061295382612912565b602082019050919050565b600060208201905081810360008301526129778161293b565b9050919050565b7f4552433732313a2061646472657373207a65726f206973206e6f74206120766160008201527f6c6964206f776e65720000000000000000000000000000000000000000000000602082015250565b60006129da6029836120cc565b91506129e58261297e565b604082019050919050565b60006020820190508181036000830152612a09816129cd565b9050919050565b7f4f776e61626c653a206e6577206f776e657220697320746865207a65726f206160008201527f6464726573730000000000000000000000000000000000000000000000000000602082015250565b6000612a6c6026836120cc565b9150612a7782612a10565b604082019050919050565b60006020820190508181036000830152612a9b81612a5f565b9050919050565b7f4552433732313a207472616e736665722066726f6d20696e636f72726563742060008201527f6f776e6572000000000000000000000000000000000000000000000000000000602082015250565b6000612afe6025836120cc565b9150612b0982612aa2565b604082019050919050565b60006020820190508181036000830152612b2d81612af1565b9050919050565b7f4552433732313a207472616e7366657220746f20746865207a65726f2061646460008201527f7265737300000000000000000000000000000000000000000000000000000000602082015250565b6000612b906024836120cc565b9150612b9b82612b34565b604082019050919050565b60006020820190508181036000830152612bbf81612b83565b9050919050565b7f4f776e61626c653a2063616c6c6572206973206e6f7420746865206f776e6572600082015250565b6000612bfc6020836120cc565b9150612c0782612bc6565b602082019050919050565b60006020820190508181036000830152612c2b81612bef565b9050919050565b7f45524337323155524953746f726167653a2055524920736574206f66206e6f6e60008201527f6578697374656e7420746f6b656e000000000000000000000000000000000000602082015250565b6000612c8e602e836120cc565b9150612c9982612c32565b604082019050919050565b60006020820190508181036000830152612cbd81612c81565b9050919050565b7f4552433732313a20617070726f766520746f2063616c6c657200000000000000600082015250565b6000612cfa6019836120cc565b9150612d0582612cc4565b602082019050919050565b60006020820190508181036000830152612d2981612ced565b9050919050565b7f4552433732313a207472616e7366657220746f206e6f6e20455243373231526560008201527f63656976657220696d706c656d656e7465720000000000000000000000000000602082015250565b6000612d8c6032836120cc565b9150612d9782612d30565b604082019050919050565b60006020820190508181036000830152612dbb81612d7f565b9050919050565b600081905092915050565b6000612dd8826120c1565b612de28185612dc2565b9350612df28185602086016120dd565b80840191505092915050565b6000612e0a8285612dcd565b9150612e168284612dcd565b91508190509392505050565b7f596f752063616e2774207472616e736665722074686973204e46540000000000600082015250565b6000612e58601b836120cc565b9150612e6382612e22565b602082019050919050565b60006020820190508181036000830152612e8781612e4b565b9050919050565b600081519050919050565b600082825260208201905092915050565b6000612eb582612e8e565b612ebf8185612e99565b9350612ecf8185602086016120dd565b612ed881612110565b840191505092915050565b6000608082019050612ef86000830187612211565b612f056020830186612211565b612f126040830185612478565b8181036060830152612f248184612eaa565b905095945050505050565b600081519050612f3e81612032565b92915050565b600060208284031215612f5a57612f59611ffc565b5b6000612f6884828501612f2f565b91505092915050565b7f4552433732313a206d696e7420746f20746865207a65726f2061646472657373600082015250565b6000612fa76020836120cc565b9150612fb282612f71565b602082019050919050565b60006020820190508181036000830152612fd681612f9a565b9050919050565b7f4552433732313a20746f6b656e20616c7265616479206d696e74656400000000600082015250565b6000613013601c836120cc565b915061301e82612fdd565b602082019050919050565b6000602082019050818103600083015261304281613006565b9050919050565b7f4e487b7100000000000000000000000000000000000000000000000000000000600052601260045260246000fdfea26469706673582212202043c5ca6e4026160a0b684ed4837dcc43e9efd3e81c256b2251b609914ac72164736f6c63430008090033",
  "devdoc": {
    "author": "Shivam Arora",
    "details": "Employee Management Contract allows users to create employeesNFTs and manage them",
    "kind": "dev",
    "methods": {},
    "title": "EmployeeManagementContract",
    "version": 1
  },
  "userdoc": {
    "kind": "user",
    "methods": {},
    "version": 1
  },
  "storageLayout": {
    "storage": [
      {
        "astId": 123,
        "contract": "contracts/EMS.sol:EMS",
        "label": "_status",
        "offset": 0,
        "slot": "0",
        "type": "t_uint256"
      },
      {
        "astId": 2943,
        "contract": "contracts/EMS.sol:EMS",
        "label": "NFT",
        "offset": 0,
        "slot": "1",
        "type": "t_contract(EmployeeNFT)3306"
      },
      {
        "astId": 2953,
        "contract": "contracts/EMS.sol:EMS",
        "label": "employees",
        "offset": 0,
        "slot": "2",
        "type": "t_mapping(t_uint256,t_struct(Employee)2948_storage)"
      }
    ],
    "types": {
      "t_bytes32": {
        "encoding": "inplace",
        "label": "bytes32",
        "numberOfBytes": "32"
      },
      "t_contract(EmployeeNFT)3306": {
        "encoding": "inplace",
        "label": "contract EmployeeNFT",
        "numberOfBytes": "20"
      },
      "t_mapping(t_uint256,t_struct(Employee)2948_storage)": {
        "encoding": "mapping",
        "key": "t_uint256",
        "label": "mapping(uint256 => struct EMS.Employee)",
        "numberOfBytes": "32",
        "value": "t_struct(Employee)2948_storage"
      },
      "t_struct(Employee)2948_storage": {
        "encoding": "inplace",
        "label": "struct EMS.Employee",
        "members": [
          {
            "astId": 2945,
            "contract": "contracts/EMS.sol:EMS",
            "label": "empDetails",
            "offset": 0,
            "slot": "0",
            "type": "t_bytes32"
          },
          {
            "astId": 2947,
            "contract": "contracts/EMS.sol:EMS",
            "label": "projDetails",
            "offset": 0,
            "slot": "1",
            "type": "t_bytes32"
          }
        ],
        "numberOfBytes": "64"
      },
      "t_uint256": {
        "encoding": "inplace",
        "label": "uint256",
        "numberOfBytes": "32"
      }
    }
  }
}