{
  "address": "0x5FbDB2315678afecb367f032d93F642f64180aa3",
  "abi": [
    {
      "inputs": [],
      "stateMutability": "nonpayable",
      "type": "constructor"
    },
    {
      "anonymous": false,
      "inputs": [
        {
          "indexed": false,
          "internalType": "uint256",
          "name": "tokenId",
          "type": "uint256"
        },
        {
          "indexed": false,
          "internalType": "string",
          "name": "skills",
          "type": "string"
        },
        {
          "indexed": false,
          "internalType": "uint256",
          "name": "team_size",
          "type": "uint256"
        },
        {
          "indexed": false,
          "internalType": "string",
          "name": "_projectName",
          "type": "string"
        },
        {
          "indexed": false,
          "internalType": "uint256",
          "name": "startTime",
          "type": "uint256"
        },
        {
          "indexed": false,
          "internalType": "uint256",
          "name": "endTime",
          "type": "uint256"
        }
      ],
      "name": "NFTChanged",
      "type": "event"
    },
    {
      "anonymous": false,
      "inputs": [
        {
          "indexed": false,
          "internalType": "uint256",
          "name": "_empId",
          "type": "uint256"
        },
        {
          "indexed": false,
          "internalType": "string",
          "name": "employeeName",
          "type": "string"
        },
        {
          "indexed": false,
          "internalType": "string",
          "name": "email",
          "type": "string"
        },
        {
          "indexed": false,
          "internalType": "string",
          "name": "skills",
          "type": "string"
        },
        {
          "indexed": false,
          "internalType": "uint256",
          "name": "team_size",
          "type": "uint256"
        },
        {
          "indexed": false,
          "internalType": "string",
          "name": "_projectName",
          "type": "string"
        },
        {
          "indexed": false,
          "internalType": "uint256",
          "name": "startTime",
          "type": "uint256"
        },
        {
          "indexed": false,
          "internalType": "uint256",
          "name": "endTime",
          "type": "uint256"
        },
        {
          "indexed": false,
          "internalType": "uint256",
          "name": "tokenId",
          "type": "uint256"
        }
      ],
      "name": "NFTMinted",
      "type": "event"
    },
    {
      "anonymous": false,
      "inputs": [
        {
          "indexed": true,
          "internalType": "address",
          "name": "previousOwner",
          "type": "address"
        },
        {
          "indexed": true,
          "internalType": "address",
          "name": "newOwner",
          "type": "address"
        }
      ],
      "name": "OwnershipTransferred",
      "type": "event"
    },
    {
      "inputs": [
        {
          "internalType": "uint256",
          "name": "tokenId",
          "type": "uint256"
        }
      ],
      "name": "burn",
      "outputs": [],
      "stateMutability": "nonpayable",
      "type": "function"
    },
    {
      "inputs": [],
      "name": "getNFT",
      "outputs": [
        {
          "internalType": "contract EmployeeNFT",
          "name": "",
          "type": "address"
        }
      ],
      "stateMutability": "view",
      "type": "function"
    },
    {
      "inputs": [
        {
          "internalType": "string",
          "name": "_employeeName",
          "type": "string"
        },
        {
          "internalType": "uint256",
          "name": "_empId",
          "type": "uint256"
        },
        {
          "internalType": "string",
          "name": "email",
          "type": "string"
        },
        {
          "internalType": "string",
          "name": "_skills",
          "type": "string"
        },
        {
          "internalType": "uint256",
          "name": "team_size",
          "type": "uint256"
        },
        {
          "internalType": "string",
          "name": "_projectName",
          "type": "string"
        },
        {
          "internalType": "uint256",
          "name": "startTime",
          "type": "uint256"
        },
        {
          "internalType": "uint256",
          "name": "endTime",
          "type": "uint256"
        }
      ],
      "name": "mintEmployeeNFT",
      "outputs": [
        {
          "internalType": "uint256",
          "name": "",
          "type": "uint256"
        }
      ],
      "stateMutability": "nonpayable",
      "type": "function"
    },
    {
      "inputs": [
        {
          "internalType": "address",
          "name": "",
          "type": "address"
        },
        {
          "internalType": "address",
          "name": "",
          "type": "address"
        },
        {
          "internalType": "uint256",
          "name": "",
          "type": "uint256"
        },
        {
          "internalType": "bytes",
          "name": "",
          "type": "bytes"
        }
      ],
      "name": "onERC721Received",
      "outputs": [
        {
          "internalType": "bytes4",
          "name": "",
          "type": "bytes4"
        }
      ],
      "stateMutability": "pure",
      "type": "function"
    },
    {
      "inputs": [],
      "name": "owner",
      "outputs": [
        {
          "internalType": "address",
          "name": "",
          "type": "address"
        }
      ],
      "stateMutability": "view",
      "type": "function"
    },
    {
      "inputs": [],
      "name": "renounceOwnership",
      "outputs": [],
      "stateMutability": "nonpayable",
      "type": "function"
    },
    {
      "inputs": [],
      "name": "returnToken",
      "outputs": [
        {
          "internalType": "uint16",
          "name": "",
          "type": "uint16"
        }
      ],
      "stateMutability": "view",
      "type": "function"
    },
    {
      "inputs": [
        {
          "internalType": "address",
          "name": "newOwner",
          "type": "address"
        }
      ],
      "name": "transferOwnership",
      "outputs": [],
      "stateMutability": "nonpayable",
      "type": "function"
    },
    {
      "inputs": [
        {
          "internalType": "uint256",
          "name": "tokenId",
          "type": "uint256"
        },
        {
          "internalType": "string",
          "name": "skills",
          "type": "string"
        },
        {
          "internalType": "uint256",
          "name": "team_size",
          "type": "uint256"
        },
        {
          "internalType": "string",
          "name": "_projectName",
          "type": "string"
        },
        {
          "internalType": "uint256",
          "name": "startTime",
          "type": "uint256"
        },
        {
          "internalType": "uint256",
          "name": "endTime",
          "type": "uint256"
        }
      ],
      "name": "updateEmployeeNFT",
      "outputs": [],
      "stateMutability": "nonpayable",
      "type": "function"
    }
  ],
  "transactionHash": "0x48ac47496b0cf2ef0e1f1a6ac29071c2ba8078b9f3edc6a57c34172d98203003",
  "args": [],
  "numDeployments": 1,
  "solcInputHash": "f0ada0294e0efbbf3629d1c800629a49",
  "bytecode": "0x608060405234801561001057600080fd5b50600160008190555061003561002a6100a360201b60201c565b6100ab60201b60201c565b60405161004190610171565b604051809103906000f08015801561005d573d6000803e3d6000fd5b50600260006101000a81548173ffffffffffffffffffffffffffffffffffffffff021916908373ffffffffffffffffffffffffffffffffffffffff16021790555061017f565b600033905090565b6000600160009054906101000a900473ffffffffffffffffffffffffffffffffffffffff16905081600160006101000a81548173ffffffffffffffffffffffffffffffffffffffff021916908373ffffffffffffffffffffffffffffffffffffffff1602179055508173ffffffffffffffffffffffffffffffffffffffff168173ffffffffffffffffffffffffffffffffffffffff167f8be0079c531659141344cd1fd0a4f28419497f9722a3daafe3b4186f6b6457e060405160405180910390a35050565b6133ae80620016a883390190565b611519806200018f6000396000f3fe608060405234801561001057600080fd5b50600436106100935760003560e01c806366cdf3b11161006657806366cdf3b11461011e578063715018a61461014e57806388a6360e146101585780638da5cb5b14610176578063f2fde38b1461019457610093565b8063150b7a02146100985780632e4a3657146100c8578063425b9b53146100e657806342966c6814610102575b600080fd5b6100b260048036038101906100ad9190610a54565b6101b0565b6040516100bf9190610b17565b60405180910390f35b6100d06101c5565b6040516100dd9190610b4f565b60405180910390f35b61010060048036038101906100fb9190610cab565b61027d565b005b61011c60048036038101906101179190610d70565b61040d565b005b61013860048036038101906101339190610d9d565b6104a5565b6040516101459190610ed2565b60405180910390f35b6101566106b5565b005b6101606106c9565b60405161016d9190610f4c565b60405180910390f35b61017e6106f3565b60405161018b9190610f76565b60405180910390f35b6101ae60048036038101906101a99190610f91565b61071d565b005b600063150b7a0260e01b905095945050505050565b600080600260009054906101000a900473ffffffffffffffffffffffffffffffffffffffff1673ffffffffffffffffffffffffffffffffffffffff166384c4bd4b6040518163ffffffff1660e01b815260040160206040518083038186803b15801561023057600080fd5b505afa158015610244573d6000803e3d6000fd5b505050506040513d601f19601f820116820180604052508101906102689190610fd3565b9050600181610277919061102f565b91505090565b600083838388886040516020016102989594939291906110eb565b60405160208183030381529060405280519060200120905080600360008981526020019081526020016000206001018190555060006003600089815260200190815260200160002060000154826040516020016102f6929190611165565b60405160208183030381529060405280519060200120905060008160405160200161032191906111af565b6040516020818303038152906040529050600260009054906101000a900473ffffffffffffffffffffffffffffffffffffffff1673ffffffffffffffffffffffffffffffffffffffff1663862440e28a836040518363ffffffff1660e01b815260040161038f9291906111ca565b600060405180830381600087803b1580156103a957600080fd5b505af11580156103bd573d6000803e3d6000fd5b505050507fa31fc86f715667d6f9608ed74d9a4bcc4a3df113f0bcc7fc496648ede9e2f0f08989898989896040516103fa969594939291906111fa565b60405180910390a1505050505050505050565b6104156107a1565b600260009054906101000a900473ffffffffffffffffffffffffffffffffffffffff1673ffffffffffffffffffffffffffffffffffffffff166342966c68826040518263ffffffff1660e01b81526004016104709190610ed2565b600060405180830381600087803b15801561048a57600080fd5b505af115801561049e573d6000803e3d6000fd5b5050505050565b60006104af61081f565b60008989896040516020016104c693929190611269565b60405160208183030381529060405280519060200120905060008585858a8a6040516020016104f99594939291906110eb565b60405160208183030381529060405280519060200120905060008282604051602001610526929190611165565b60405160208183030381529060405280519060200120905060008160405160200161055191906111af565b60405160208183030381529060405290506000600260009054906101000a900473ffffffffffffffffffffffffffffffffffffffff1673ffffffffffffffffffffffffffffffffffffffff1663695850fb836040518263ffffffff1660e01b81526004016105bf91906112ae565b602060405180830381600087803b1580156105d957600080fd5b505af11580156105ed573d6000803e3d6000fd5b505050506040513d601f19601f820116820180604052508101906106119190610fd3565b90506040518060400160405280868152602001858152506003600083815260200190815260200160002060008201518160000155602082015181600101559050507fbb9531518032d7da243e2251906829c7a2ed6f17c0a62032325d5e1f6766944f8d8f8e8e8e8e8e8e89604051610691999897969594939291906112d0565b60405180910390a180955050505050506106a961086f565b98975050505050505050565b6106bd6107a1565b6106c76000610879565b565b6000600260009054906101000a900473ffffffffffffffffffffffffffffffffffffffff16905090565b6000600160009054906101000a900473ffffffffffffffffffffffffffffffffffffffff16905090565b6107256107a1565b600073ffffffffffffffffffffffffffffffffffffffff168173ffffffffffffffffffffffffffffffffffffffff161415610795576040517f08c379a000000000000000000000000000000000000000000000000000000000815260040161078c906113eb565b60405180910390fd5b61079e81610879565b50565b6107a961093f565b73ffffffffffffffffffffffffffffffffffffffff166107c76106f3565b73ffffffffffffffffffffffffffffffffffffffff161461081d576040517f08c379a000000000000000000000000000000000000000000000000000000000815260040161081490611457565b60405180910390fd5b565b60026000541415610865576040517f08c379a000000000000000000000000000000000000000000000000000000000815260040161085c906114c3565b60405180910390fd5b6002600081905550565b6001600081905550565b6000600160009054906101000a900473ffffffffffffffffffffffffffffffffffffffff16905081600160006101000a81548173ffffffffffffffffffffffffffffffffffffffff021916908373ffffffffffffffffffffffffffffffffffffffff1602179055508173ffffffffffffffffffffffffffffffffffffffff168173ffffffffffffffffffffffffffffffffffffffff167f8be0079c531659141344cd1fd0a4f28419497f9722a3daafe3b4186f6b6457e060405160405180910390a35050565b600033905090565b6000604051905090565b600080fd5b600080fd5b600073ffffffffffffffffffffffffffffffffffffffff82169050919050565b60006109868261095b565b9050919050565b6109968161097b565b81146109a157600080fd5b50565b6000813590506109b38161098d565b92915050565b6000819050919050565b6109cc816109b9565b81146109d757600080fd5b50565b6000813590506109e9816109c3565b92915050565b600080fd5b600080fd5b600080fd5b60008083601f840112610a1457610a136109ef565b5b8235905067ffffffffffffffff811115610a3157610a306109f4565b5b602083019150836001820283011115610a4d57610a4c6109f9565b5b9250929050565b600080600080600060808688031215610a7057610a6f610951565b5b6000610a7e888289016109a4565b9550506020610a8f888289016109a4565b9450506040610aa0888289016109da565b935050606086013567ffffffffffffffff811115610ac157610ac0610956565b5b610acd888289016109fe565b92509250509295509295909350565b60007fffffffff0000000000000000000000000000000000000000000000000000000082169050919050565b610b1181610adc565b82525050565b6000602082019050610b2c6000830184610b08565b92915050565b600061ffff82169050919050565b610b4981610b32565b82525050565b6000602082019050610b646000830184610b40565b92915050565b600080fd5b6000601f19601f8301169050919050565b7f4e487b7100000000000000000000000000000000000000000000000000000000600052604160045260246000fd5b610bb882610b6f565b810181811067ffffffffffffffff82111715610bd757610bd6610b80565b5b80604052505050565b6000610bea610947565b9050610bf68282610baf565b919050565b600067ffffffffffffffff821115610c1657610c15610b80565b5b610c1f82610b6f565b9050602081019050919050565b82818337600083830152505050565b6000610c4e610c4984610bfb565b610be0565b905082815260208101848484011115610c6a57610c69610b6a565b5b610c75848285610c2c565b509392505050565b600082601f830112610c9257610c916109ef565b5b8135610ca2848260208601610c3b565b91505092915050565b60008060008060008060c08789031215610cc857610cc7610951565b5b6000610cd689828a016109da565b965050602087013567ffffffffffffffff811115610cf757610cf6610956565b5b610d0389828a01610c7d565b9550506040610d1489828a016109da565b945050606087013567ffffffffffffffff811115610d3557610d34610956565b5b610d4189828a01610c7d565b9350506080610d5289828a016109da565b92505060a0610d6389828a016109da565b9150509295509295509295565b600060208284031215610d8657610d85610951565b5b6000610d94848285016109da565b91505092915050565b600080600080600080600080610100898b031215610dbe57610dbd610951565b5b600089013567ffffffffffffffff811115610ddc57610ddb610956565b5b610de88b828c01610c7d565b9850506020610df98b828c016109da565b975050604089013567ffffffffffffffff811115610e1a57610e19610956565b5b610e268b828c01610c7d565b965050606089013567ffffffffffffffff811115610e4757610e46610956565b5b610e538b828c01610c7d565b9550506080610e648b828c016109da565b94505060a089013567ffffffffffffffff811115610e8557610e84610956565b5b610e918b828c01610c7d565b93505060c0610ea28b828c016109da565b92505060e0610eb38b828c016109da565b9150509295985092959890939650565b610ecc816109b9565b82525050565b6000602082019050610ee76000830184610ec3565b92915050565b6000819050919050565b6000610f12610f0d610f088461095b565b610eed565b61095b565b9050919050565b6000610f2482610ef7565b9050919050565b6000610f3682610f19565b9050919050565b610f4681610f2b565b82525050565b6000602082019050610f616000830184610f3d565b92915050565b610f708161097b565b82525050565b6000602082019050610f8b6000830184610f67565b92915050565b600060208284031215610fa757610fa6610951565b5b6000610fb5848285016109a4565b91505092915050565b600081519050610fcd816109c3565b92915050565b600060208284031215610fe957610fe8610951565b5b6000610ff784828501610fbe565b91505092915050565b7f4e487b7100000000000000000000000000000000000000000000000000000000600052601160045260246000fd5b600061103a82610b32565b915061104583610b32565b92508282101561105857611057611000565b5b828203905092915050565b600081519050919050565b600082825260208201905092915050565b60005b8381101561109d578082015181840152602081019050611082565b838111156110ac576000848401525b50505050565b60006110bd82611063565b6110c7818561106e565b93506110d781856020860161107f565b6110e081610b6f565b840191505092915050565b600060a082019050818103600083015261110581886110b2565b90506111146020830187610ec3565b6111216040830186610ec3565b818103606083015261113381856110b2565b90506111426080830184610ec3565b9695505050505050565b6000819050919050565b61115f8161114c565b82525050565b600060408201905061117a6000830185611156565b6111876020830184611156565b9392505050565b6000819050919050565b6111a96111a48261114c565b61118e565b82525050565b60006111bb8284611198565b60208201915081905092915050565b60006040820190506111df6000830185610ec3565b81810360208301526111f181846110b2565b90509392505050565b600060c08201905061120f6000830189610ec3565b818103602083015261122181886110b2565b90506112306040830187610ec3565b818103606083015261124281866110b2565b90506112516080830185610ec3565b61125e60a0830184610ec3565b979650505050505050565b6000606082019050818103600083015261128381866110b2565b90506112926020830185610ec3565b81810360408301526112a481846110b2565b9050949350505050565b600060208201905081810360008301526112c881846110b2565b905092915050565b6000610120820190506112e6600083018c610ec3565b81810360208301526112f8818b6110b2565b9050818103604083015261130c818a6110b2565b9050818103606083015261132081896110b2565b905061132f6080830188610ec3565b81810360a083015261134181876110b2565b905061135060c0830186610ec3565b61135d60e0830185610ec3565b61136b610100830184610ec3565b9a9950505050505050505050565b7f4f776e61626c653a206e6577206f776e657220697320746865207a65726f206160008201527f6464726573730000000000000000000000000000000000000000000000000000602082015250565b60006113d560268361106e565b91506113e082611379565b604082019050919050565b60006020820190508181036000830152611404816113c8565b9050919050565b7f4f776e61626c653a2063616c6c6572206973206e6f7420746865206f776e6572600082015250565b600061144160208361106e565b915061144c8261140b565b602082019050919050565b6000602082019050818103600083015261147081611434565b9050919050565b7f5265656e7472616e637947756172643a207265656e7472616e742063616c6c00600082015250565b60006114ad601f8361106e565b91506114b882611477565b602082019050919050565b600060208201905081810360008301526114dc816114a0565b905091905056fea2646970667358221220efcc6309deb7247e6a4930a1361bdfc5498d2c5dd2736e77af387f25157799a064736f6c6343000809003360806040523480156200001157600080fd5b506040518060400160405280600381526020017f454d5300000000000000000000000000000000000000000000000000000000008152506040518060400160405280600381526020017f5446540000000000000000000000000000000000000000000000000000000000815250816000908051906020019062000096929190620001a6565b508060019080519060200190620000af929190620001a6565b505050620000d2620000c6620000d860201b60201c565b620000e060201b60201c565b620002bb565b600033905090565b6000600760009054906101000a900473ffffffffffffffffffffffffffffffffffffffff16905081600760006101000a81548173ffffffffffffffffffffffffffffffffffffffff021916908373ffffffffffffffffffffffffffffffffffffffff1602179055508173ffffffffffffffffffffffffffffffffffffffff168173ffffffffffffffffffffffffffffffffffffffff167f8be0079c531659141344cd1fd0a4f28419497f9722a3daafe3b4186f6b6457e060405160405180910390a35050565b828054620001b49062000285565b90600052602060002090601f016020900481019282620001d8576000855562000224565b82601f10620001f357805160ff191683800117855562000224565b8280016001018555821562000224579182015b828111156200022357825182559160200191906001019062000206565b5b50905062000233919062000237565b5090565b5b808211156200025257600081600090555060010162000238565b5090565b7f4e487b7100000000000000000000000000000000000000000000000000000000600052602260045260246000fd5b600060028204905060018216806200029e57607f821691505b60208210811415620002b557620002b462000256565b5b50919050565b6130e380620002cb6000396000f3fe608060405234801561001057600080fd5b506004361061012c5760003560e01c8063715018a6116100ad578063a22cb46511610071578063a22cb4651461032f578063b88d4fde1461034b578063c87b56dd14610367578063e985e9c514610397578063f2fde38b146103c75761012c565b8063715018a6146102af57806384c4bd4b146102b9578063862440e2146102d75780638da5cb5b146102f357806395d89b41146103115761012c565b806342842e0e116100f457806342842e0e146101e757806342966c68146102035780636352211e1461021f578063695850fb1461024f57806370a082311461027f5761012c565b806301ffc9a71461013157806306fdde0314610161578063081812fc1461017f578063095ea7b3146101af57806323b872dd146101cb575b600080fd5b61014b60048036038101906101469190612093565b6103e3565b60405161015891906120db565b60405180910390f35b6101696104c5565b604051610176919061218f565b60405180910390f35b610199600480360381019061019491906121e7565b610557565b6040516101a69190612255565b60405180910390f35b6101c960048036038101906101c4919061229c565b61059d565b005b6101e560048036038101906101e091906122dc565b6106b5565b005b61020160048036038101906101fc91906122dc565b610715565b005b61021d600480360381019061021891906121e7565b610735565b005b610239600480360381019061023491906121e7565b610791565b6040516102469190612255565b60405180910390f35b61026960048036038101906102649190612464565b610818565b60405161027691906124bc565b60405180910390f35b610299600480360381019061029491906124d7565b610857565b6040516102a691906124bc565b60405180910390f35b6102b761090f565b005b6102c1610923565b6040516102ce91906124bc565b60405180910390f35b6102f160048036038101906102ec9190612504565b61092f565b005b6102fb610945565b6040516103089190612255565b60405180910390f35b61031961096f565b604051610326919061218f565b60405180910390f35b6103496004803603810190610344919061258c565b610a01565b005b6103656004803603810190610360919061266d565b610a17565b005b610381600480360381019061037c91906121e7565b610a79565b60405161038e919061218f565b60405180910390f35b6103b160048036038101906103ac91906126f0565b610a8b565b6040516103be91906120db565b60405180910390f35b6103e160048036038101906103dc91906124d7565b610b1f565b005b60007f80ac58cd000000000000000000000000000000000000000000000000000000007bffffffffffffffffffffffffffffffffffffffffffffffffffffffff1916827bffffffffffffffffffffffffffffffffffffffffffffffffffffffff191614806104ae57507f5b5e139f000000000000000000000000000000000000000000000000000000007bffffffffffffffffffffffffffffffffffffffffffffffffffffffff1916827bffffffffffffffffffffffffffffffffffffffffffffffffffffffff1916145b806104be57506104bd82610ba3565b5b9050919050565b6060600080546104d49061275f565b80601f01602080910402602001604051908101604052809291908181526020018280546105009061275f565b801561054d5780601f106105225761010080835404028352916020019161054d565b820191906000526020600020905b81548152906001019060200180831161053057829003601f168201915b5050505050905090565b600061056282610c0d565b6004600083815260200190815260200160002060009054906101000a900473ffffffffffffffffffffffffffffffffffffffff169050919050565b60006105a882610791565b90508073ffffffffffffffffffffffffffffffffffffffff168373ffffffffffffffffffffffffffffffffffffffff161415610619576040517f08c379a000000000000000000000000000000000000000000000000000000000815260040161061090612803565b60405180910390fd5b8073ffffffffffffffffffffffffffffffffffffffff16610638610c58565b73ffffffffffffffffffffffffffffffffffffffff161480610667575061066681610661610c58565b610a8b565b5b6106a6576040517f08c379a000000000000000000000000000000000000000000000000000000000815260040161069d90612895565b60405180910390fd5b6106b08383610c60565b505050565b6106c66106c0610c58565b82610d19565b610705576040517f08c379a00000000000000000000000000000000000000000000000000000000081526004016106fc90612927565b60405180910390fd5b610710838383610dae565b505050565b61073083838360405180602001604052806000815250610a17565b505050565b610746610740610c58565b82610d19565b610785576040517f08c379a000000000000000000000000000000000000000000000000000000000815260040161077c90612927565b60405180910390fd5b61078e816110a8565b50565b60008061079d836110b4565b9050600073ffffffffffffffffffffffffffffffffffffffff168173ffffffffffffffffffffffffffffffffffffffff16141561080f576040517f08c379a000000000000000000000000000000000000000000000000000000000815260040161080690612993565b60405180910390fd5b80915050919050565b60006108226110f1565b600061082e600861116f565b905061083a600861117d565b6108443382611193565b61084e81846111b1565b80915050919050565b60008073ffffffffffffffffffffffffffffffffffffffff168273ffffffffffffffffffffffffffffffffffffffff1614156108c8576040517f08c379a00000000000000000000000000000000000000000000000000000000081526004016108bf90612a25565b60405180910390fd5b600360008373ffffffffffffffffffffffffffffffffffffffff1673ffffffffffffffffffffffffffffffffffffffff168152602001908152602001600020549050919050565b6109176110f1565b6109216000611225565b565b60088060000154905081565b6109376110f1565b61094182826111b1565b5050565b6000600760009054906101000a900473ffffffffffffffffffffffffffffffffffffffff16905090565b60606001805461097e9061275f565b80601f01602080910402602001604051908101604052809291908181526020018280546109aa9061275f565b80156109f75780601f106109cc576101008083540402835291602001916109f7565b820191906000526020600020905b8154815290600101906020018083116109da57829003601f168201915b5050505050905090565b610a13610a0c610c58565b83836112eb565b5050565b610a28610a22610c58565b83610d19565b610a67576040517f08c379a0000000000000000000000000000000000000000000000000000000008152600401610a5e90612927565b60405180910390fd5b610a7384848484611458565b50505050565b6060610a84826114b4565b9050919050565b6000600560008473ffffffffffffffffffffffffffffffffffffffff1673ffffffffffffffffffffffffffffffffffffffff16815260200190815260200160002060008373ffffffffffffffffffffffffffffffffffffffff1673ffffffffffffffffffffffffffffffffffffffff16815260200190815260200160002060009054906101000a900460ff16905092915050565b610b276110f1565b600073ffffffffffffffffffffffffffffffffffffffff168173ffffffffffffffffffffffffffffffffffffffff161415610b97576040517f08c379a0000000000000000000000000000000000000000000000000000000008152600401610b8e90612ab7565b60405180910390fd5b610ba081611225565b50565b60007f01ffc9a7000000000000000000000000000000000000000000000000000000007bffffffffffffffffffffffffffffffffffffffffffffffffffffffff1916827bffffffffffffffffffffffffffffffffffffffffffffffffffffffff1916149050919050565b610c16816115c7565b610c55576040517f08c379a0000000000000000000000000000000000000000000000000000000008152600401610c4c90612993565b60405180910390fd5b50565b600033905090565b816004600083815260200190815260200160002060006101000a81548173ffffffffffffffffffffffffffffffffffffffff021916908373ffffffffffffffffffffffffffffffffffffffff160217905550808273ffffffffffffffffffffffffffffffffffffffff16610cd383610791565b73ffffffffffffffffffffffffffffffffffffffff167f8c5be1e5ebec7d5bd14f71427d1e84f3dd0314c0f7b2291e5b200ac8c7c3b92560405160405180910390a45050565b600080610d2583610791565b90508073ffffffffffffffffffffffffffffffffffffffff168473ffffffffffffffffffffffffffffffffffffffff161480610d675750610d668185610a8b565b5b80610da557508373ffffffffffffffffffffffffffffffffffffffff16610d8d84610557565b73ffffffffffffffffffffffffffffffffffffffff16145b91505092915050565b8273ffffffffffffffffffffffffffffffffffffffff16610dce82610791565b73ffffffffffffffffffffffffffffffffffffffff1614610e24576040517f08c379a0000000000000000000000000000000000000000000000000000000008152600401610e1b90612b49565b60405180910390fd5b600073ffffffffffffffffffffffffffffffffffffffff168273ffffffffffffffffffffffffffffffffffffffff161415610e94576040517f08c379a0000000000000000000000000000000000000000000000000000000008152600401610e8b90612bdb565b60405180910390fd5b610ea18383836001611608565b8273ffffffffffffffffffffffffffffffffffffffff16610ec182610791565b73ffffffffffffffffffffffffffffffffffffffff1614610f17576040517f08c379a0000000000000000000000000000000000000000000000000000000008152600401610f0e90612b49565b60405180910390fd5b6004600082815260200190815260200160002060006101000a81549073ffffffffffffffffffffffffffffffffffffffff02191690556001600360008573ffffffffffffffffffffffffffffffffffffffff1673ffffffffffffffffffffffffffffffffffffffff168152602001908152602001600020600082825403925050819055506001600360008473ffffffffffffffffffffffffffffffffffffffff1673ffffffffffffffffffffffffffffffffffffffff16815260200190815260200160002060008282540192505081905550816002600083815260200190815260200160002060006101000a81548173ffffffffffffffffffffffffffffffffffffffff021916908373ffffffffffffffffffffffffffffffffffffffff160217905550808273ffffffffffffffffffffffffffffffffffffffff168473ffffffffffffffffffffffffffffffffffffffff167fddf252ad1be2c89b69c2b068fc378daa952ba7f163c4a11628f55a4df523b3ef60405160405180910390a46110a383838360016116c0565b505050565b6110b1816116c6565b50565b60006002600083815260200190815260200160002060009054906101000a900473ffffffffffffffffffffffffffffffffffffffff169050919050565b6110f9610c58565b73ffffffffffffffffffffffffffffffffffffffff16611117610945565b73ffffffffffffffffffffffffffffffffffffffff161461116d576040517f08c379a000000000000000000000000000000000000000000000000000000000815260040161116490612c47565b60405180910390fd5b565b600081600001549050919050565b6001816000016000828254019250508190555050565b6111ad828260405180602001604052806000815250611719565b5050565b6111ba826115c7565b6111f9576040517f08c379a00000000000000000000000000000000000000000000000000000000081526004016111f090612cd9565b60405180910390fd5b80600660008481526020019081526020016000209080519060200190611220929190611f44565b505050565b6000600760009054906101000a900473ffffffffffffffffffffffffffffffffffffffff16905081600760006101000a81548173ffffffffffffffffffffffffffffffffffffffff021916908373ffffffffffffffffffffffffffffffffffffffff1602179055508173ffffffffffffffffffffffffffffffffffffffff168173ffffffffffffffffffffffffffffffffffffffff167f8be0079c531659141344cd1fd0a4f28419497f9722a3daafe3b4186f6b6457e060405160405180910390a35050565b8173ffffffffffffffffffffffffffffffffffffffff168373ffffffffffffffffffffffffffffffffffffffff16141561135a576040517f08c379a000000000000000000000000000000000000000000000000000000000815260040161135190612d45565b60405180910390fd5b80600560008573ffffffffffffffffffffffffffffffffffffffff1673ffffffffffffffffffffffffffffffffffffffff16815260200190815260200160002060008473ffffffffffffffffffffffffffffffffffffffff1673ffffffffffffffffffffffffffffffffffffffff16815260200190815260200160002060006101000a81548160ff0219169083151502179055508173ffffffffffffffffffffffffffffffffffffffff168373ffffffffffffffffffffffffffffffffffffffff167f17307eab39ab6107e8899845ad3d59bd9653f200f220920489ca2b5937696c318360405161144b91906120db565b60405180910390a3505050565b611463848484610dae565b61146f84848484611774565b6114ae576040517f08c379a00000000000000000000000000000000000000000000000000000000081526004016114a590612dd7565b60405180910390fd5b50505050565b60606114bf82610c0d565b60006006600084815260200190815260200160002080546114df9061275f565b80601f016020809104026020016040519081016040528092919081815260200182805461150b9061275f565b80156115585780601f1061152d57610100808354040283529160200191611558565b820191906000526020600020905b81548152906001019060200180831161153b57829003601f168201915b50505050509050600061156961190b565b905060008151141561157f5781925050506115c2565b6000825111156115b457808260405160200161159c929190612e33565b604051602081830303815290604052925050506115c2565b6115bd84611922565b925050505b919050565b60008073ffffffffffffffffffffffffffffffffffffffff166115e9836110b4565b73ffffffffffffffffffffffffffffffffffffffff1614159050919050565b611610610945565b73ffffffffffffffffffffffffffffffffffffffff168473ffffffffffffffffffffffffffffffffffffffff16148061167b575061164c610945565b73ffffffffffffffffffffffffffffffffffffffff168373ffffffffffffffffffffffffffffffffffffffff16145b6116ba576040517f08c379a00000000000000000000000000000000000000000000000000000000081526004016116b190612ea3565b60405180910390fd5b50505050565b50505050565b6116cf8161198a565b60006006600083815260200190815260200160002080546116ef9061275f565b905014611716576006600082815260200190815260200160002060006117159190611fca565b5b50565b6117238383611ad8565b6117306000848484611774565b61176f576040517f08c379a000000000000000000000000000000000000000000000000000000000815260040161176690612dd7565b60405180910390fd5b505050565b60006117958473ffffffffffffffffffffffffffffffffffffffff16611cf6565b156118fe578373ffffffffffffffffffffffffffffffffffffffff1663150b7a026117be610c58565b8786866040518563ffffffff1660e01b81526004016117e09493929190612f18565b602060405180830381600087803b1580156117fa57600080fd5b505af192505050801561182b57506040513d601f19601f820116820180604052508101906118289190612f79565b60015b6118ae573d806000811461185b576040519150601f19603f3d011682016040523d82523d6000602084013e611860565b606091505b506000815114156118a6576040517f08c379a000000000000000000000000000000000000000000000000000000000815260040161189d90612dd7565b60405180910390fd5b805181602001fd5b63150b7a0260e01b7bffffffffffffffffffffffffffffffffffffffffffffffffffffffff1916817bffffffffffffffffffffffffffffffffffffffffffffffffffffffff191614915050611903565b600190505b949350505050565b606060405180602001604052806000815250905090565b606061192d82610c0d565b600061193761190b565b905060008151116119575760405180602001604052806000815250611982565b8061196184611d19565b604051602001611972929190612e33565b6040516020818303038152906040525b915050919050565b600061199582610791565b90506119a5816000846001611608565b6119ae82610791565b90506004600083815260200190815260200160002060006101000a81549073ffffffffffffffffffffffffffffffffffffffff02191690556001600360008373ffffffffffffffffffffffffffffffffffffffff1673ffffffffffffffffffffffffffffffffffffffff168152602001908152602001600020600082825403925050819055506002600083815260200190815260200160002060006101000a81549073ffffffffffffffffffffffffffffffffffffffff021916905581600073ffffffffffffffffffffffffffffffffffffffff168273ffffffffffffffffffffffffffffffffffffffff167fddf252ad1be2c89b69c2b068fc378daa952ba7f163c4a11628f55a4df523b3ef60405160405180910390a4611ad48160008460016116c0565b5050565b600073ffffffffffffffffffffffffffffffffffffffff168273ffffffffffffffffffffffffffffffffffffffff161415611b48576040517f08c379a0000000000000000000000000000000000000000000000000000000008152600401611b3f90612ff2565b60405180910390fd5b611b51816115c7565b15611b91576040517f08c379a0000000000000000000000000000000000000000000000000000000008152600401611b889061305e565b60405180910390fd5b611b9f600083836001611608565b611ba8816115c7565b15611be8576040517f08c379a0000000000000000000000000000000000000000000000000000000008152600401611bdf9061305e565b60405180910390fd5b6001600360008473ffffffffffffffffffffffffffffffffffffffff1673ffffffffffffffffffffffffffffffffffffffff16815260200190815260200160002060008282540192505081905550816002600083815260200190815260200160002060006101000a81548173ffffffffffffffffffffffffffffffffffffffff021916908373ffffffffffffffffffffffffffffffffffffffff160217905550808273ffffffffffffffffffffffffffffffffffffffff16600073ffffffffffffffffffffffffffffffffffffffff167fddf252ad1be2c89b69c2b068fc378daa952ba7f163c4a11628f55a4df523b3ef60405160405180910390a4611cf26000838360016116c0565b5050565b6000808273ffffffffffffffffffffffffffffffffffffffff163b119050919050565b606060006001611d2884611df1565b01905060008167ffffffffffffffff811115611d4757611d46612339565b5b6040519080825280601f01601f191660200182016040528015611d795781602001600182028036833780820191505090505b509050600082602001820190505b600115611de6578080600190039150507f3031323334353637383961626364656600000000000000000000000000000000600a86061a8153600a8581611dd057611dcf61307e565b5b0494506000851415611de157611de6565b611d87565b819350505050919050565b600080600090507a184f03e93ff9f4daa797ed6e38ed64bf6a1f0100000000000000008310611e4f577a184f03e93ff9f4daa797ed6e38ed64bf6a1f0100000000000000008381611e4557611e4461307e565b5b0492506040810190505b6d04ee2d6d415b85acef81000000008310611e8c576d04ee2d6d415b85acef81000000008381611e8257611e8161307e565b5b0492506020810190505b662386f26fc100008310611ebb57662386f26fc100008381611eb157611eb061307e565b5b0492506010810190505b6305f5e1008310611ee4576305f5e1008381611eda57611ed961307e565b5b0492506008810190505b6127108310611f09576127108381611eff57611efe61307e565b5b0492506004810190505b60648310611f2c5760648381611f2257611f2161307e565b5b0492506002810190505b600a8310611f3b576001810190505b80915050919050565b828054611f509061275f565b90600052602060002090601f016020900481019282611f725760008555611fb9565b82601f10611f8b57805160ff1916838001178555611fb9565b82800160010185558215611fb9579182015b82811115611fb8578251825591602001919060010190611f9d565b5b509050611fc6919061200a565b5090565b508054611fd69061275f565b6000825580601f10611fe85750612007565b601f016020900490600052602060002090810190612006919061200a565b5b50565b5b8082111561202357600081600090555060010161200b565b5090565b6000604051905090565b600080fd5b600080fd5b60007fffffffff0000000000000000000000000000000000000000000000000000000082169050919050565b6120708161203b565b811461207b57600080fd5b50565b60008135905061208d81612067565b92915050565b6000602082840312156120a9576120a8612031565b5b60006120b78482850161207e565b91505092915050565b60008115159050919050565b6120d5816120c0565b82525050565b60006020820190506120f060008301846120cc565b92915050565b600081519050919050565b600082825260208201905092915050565b60005b83811015612130578082015181840152602081019050612115565b8381111561213f576000848401525b50505050565b6000601f19601f8301169050919050565b6000612161826120f6565b61216b8185612101565b935061217b818560208601612112565b61218481612145565b840191505092915050565b600060208201905081810360008301526121a98184612156565b905092915050565b6000819050919050565b6121c4816121b1565b81146121cf57600080fd5b50565b6000813590506121e1816121bb565b92915050565b6000602082840312156121fd576121fc612031565b5b600061220b848285016121d2565b91505092915050565b600073ffffffffffffffffffffffffffffffffffffffff82169050919050565b600061223f82612214565b9050919050565b61224f81612234565b82525050565b600060208201905061226a6000830184612246565b92915050565b61227981612234565b811461228457600080fd5b50565b60008135905061229681612270565b92915050565b600080604083850312156122b3576122b2612031565b5b60006122c185828601612287565b92505060206122d2858286016121d2565b9150509250929050565b6000806000606084860312156122f5576122f4612031565b5b600061230386828701612287565b935050602061231486828701612287565b9250506040612325868287016121d2565b9150509250925092565b600080fd5b600080fd5b7f4e487b7100000000000000000000000000000000000000000000000000000000600052604160045260246000fd5b61237182612145565b810181811067ffffffffffffffff821117156123905761238f612339565b5b80604052505050565b60006123a3612027565b90506123af8282612368565b919050565b600067ffffffffffffffff8211156123cf576123ce612339565b5b6123d882612145565b9050602081019050919050565b82818337600083830152505050565b6000612407612402846123b4565b612399565b90508281526020810184848401111561242357612422612334565b5b61242e8482856123e5565b509392505050565b600082601f83011261244b5761244a61232f565b5b813561245b8482602086016123f4565b91505092915050565b60006020828403121561247a57612479612031565b5b600082013567ffffffffffffffff81111561249857612497612036565b5b6124a484828501612436565b91505092915050565b6124b6816121b1565b82525050565b60006020820190506124d160008301846124ad565b92915050565b6000602082840312156124ed576124ec612031565b5b60006124fb84828501612287565b91505092915050565b6000806040838503121561251b5761251a612031565b5b6000612529858286016121d2565b925050602083013567ffffffffffffffff81111561254a57612549612036565b5b61255685828601612436565b9150509250929050565b612569816120c0565b811461257457600080fd5b50565b60008135905061258681612560565b92915050565b600080604083850312156125a3576125a2612031565b5b60006125b185828601612287565b92505060206125c285828601612577565b9150509250929050565b600067ffffffffffffffff8211156125e7576125e6612339565b5b6125f082612145565b9050602081019050919050565b600061261061260b846125cc565b612399565b90508281526020810184848401111561262c5761262b612334565b5b6126378482856123e5565b509392505050565b600082601f8301126126545761265361232f565b5b81356126648482602086016125fd565b91505092915050565b6000806000806080858703121561268757612686612031565b5b600061269587828801612287565b94505060206126a687828801612287565b93505060406126b7878288016121d2565b925050606085013567ffffffffffffffff8111156126d8576126d7612036565b5b6126e48782880161263f565b91505092959194509250565b6000806040838503121561270757612706612031565b5b600061271585828601612287565b925050602061272685828601612287565b9150509250929050565b7f4e487b7100000000000000000000000000000000000000000000000000000000600052602260045260246000fd5b6000600282049050600182168061277757607f821691505b6020821081141561278b5761278a612730565b5b50919050565b7f4552433732313a20617070726f76616c20746f2063757272656e74206f776e6560008201527f7200000000000000000000000000000000000000000000000000000000000000602082015250565b60006127ed602183612101565b91506127f882612791565b604082019050919050565b6000602082019050818103600083015261281c816127e0565b9050919050565b7f4552433732313a20617070726f76652063616c6c6572206973206e6f7420746f60008201527f6b656e206f776e6572206f7220617070726f76656420666f7220616c6c000000602082015250565b600061287f603d83612101565b915061288a82612823565b604082019050919050565b600060208201905081810360008301526128ae81612872565b9050919050565b7f4552433732313a2063616c6c6572206973206e6f7420746f6b656e206f776e6560008201527f72206f7220617070726f76656400000000000000000000000000000000000000602082015250565b6000612911602d83612101565b915061291c826128b5565b604082019050919050565b6000602082019050818103600083015261294081612904565b9050919050565b7f4552433732313a20696e76616c696420746f6b656e2049440000000000000000600082015250565b600061297d601883612101565b915061298882612947565b602082019050919050565b600060208201905081810360008301526129ac81612970565b9050919050565b7f4552433732313a2061646472657373207a65726f206973206e6f74206120766160008201527f6c6964206f776e65720000000000000000000000000000000000000000000000602082015250565b6000612a0f602983612101565b9150612a1a826129b3565b604082019050919050565b60006020820190508181036000830152612a3e81612a02565b9050919050565b7f4f776e61626c653a206e6577206f776e657220697320746865207a65726f206160008201527f6464726573730000000000000000000000000000000000000000000000000000602082015250565b6000612aa1602683612101565b9150612aac82612a45565b604082019050919050565b60006020820190508181036000830152612ad081612a94565b9050919050565b7f4552433732313a207472616e736665722066726f6d20696e636f72726563742060008201527f6f776e6572000000000000000000000000000000000000000000000000000000602082015250565b6000612b33602583612101565b9150612b3e82612ad7565b604082019050919050565b60006020820190508181036000830152612b6281612b26565b9050919050565b7f4552433732313a207472616e7366657220746f20746865207a65726f2061646460008201527f7265737300000000000000000000000000000000000000000000000000000000602082015250565b6000612bc5602483612101565b9150612bd082612b69565b604082019050919050565b60006020820190508181036000830152612bf481612bb8565b9050919050565b7f4f776e61626c653a2063616c6c6572206973206e6f7420746865206f776e6572600082015250565b6000612c31602083612101565b9150612c3c82612bfb565b602082019050919050565b60006020820190508181036000830152612c6081612c24565b9050919050565b7f45524337323155524953746f726167653a2055524920736574206f66206e6f6e60008201527f6578697374656e7420746f6b656e000000000000000000000000000000000000602082015250565b6000612cc3602e83612101565b9150612cce82612c67565b604082019050919050565b60006020820190508181036000830152612cf281612cb6565b9050919050565b7f4552433732313a20617070726f766520746f2063616c6c657200000000000000600082015250565b6000612d2f601983612101565b9150612d3a82612cf9565b602082019050919050565b60006020820190508181036000830152612d5e81612d22565b9050919050565b7f4552433732313a207472616e7366657220746f206e6f6e20455243373231526560008201527f63656976657220696d706c656d656e7465720000000000000000000000000000602082015250565b6000612dc1603283612101565b9150612dcc82612d65565b604082019050919050565b60006020820190508181036000830152612df081612db4565b9050919050565b600081905092915050565b6000612e0d826120f6565b612e178185612df7565b9350612e27818560208601612112565b80840191505092915050565b6000612e3f8285612e02565b9150612e4b8284612e02565b91508190509392505050565b7f596f752063616e2774207472616e736665722074686973204e46540000000000600082015250565b6000612e8d601b83612101565b9150612e9882612e57565b602082019050919050565b60006020820190508181036000830152612ebc81612e80565b9050919050565b600081519050919050565b600082825260208201905092915050565b6000612eea82612ec3565b612ef48185612ece565b9350612f04818560208601612112565b612f0d81612145565b840191505092915050565b6000608082019050612f2d6000830187612246565b612f3a6020830186612246565b612f4760408301856124ad565b8181036060830152612f598184612edf565b905095945050505050565b600081519050612f7381612067565b92915050565b600060208284031215612f8f57612f8e612031565b5b6000612f9d84828501612f64565b91505092915050565b7f4552433732313a206d696e7420746f20746865207a65726f2061646472657373600082015250565b6000612fdc602083612101565b9150612fe782612fa6565b602082019050919050565b6000602082019050818103600083015261300b81612fcf565b9050919050565b7f4552433732313a20746f6b656e20616c7265616479206d696e74656400000000600082015250565b6000613048601c83612101565b915061305382613012565b602082019050919050565b600060208201905081810360008301526130778161303b565b9050919050565b7f4e487b7100000000000000000000000000000000000000000000000000000000600052601260045260246000fdfea2646970667358221220f3302d0bfd5324c8b9caa889eae5b18ecdd86b850de14243f5f726613972ce0864736f6c63430008090033",
  "devdoc": {
    "author": "Shivam Arora",
    "details": "Employee Management Contract allows users to create employeesNFTs and manage them",
    "kind": "dev",
    "methods": {
      "owner()": {
        "details": "Returns the address of the current owner."
      },
      "renounceOwnership()": {
        "details": "Leaves the contract without owner. It will not be possible to call `onlyOwner` functions anymore. Can only be called by the current owner. NOTE: Renouncing ownership will leave the contract without an owner, thereby removing any functionality that is only available to the owner."
      },
      "transferOwnership(address)": {
        "details": "Transfers ownership of the contract to a new account (`newOwner`). Can only be called by the current owner."
      }
    },
    "title": "EmployeeManagementContract",
    "version": 1
  },
  "userdoc": {
    "kind": "user",
    "methods": {},
    "version": 1
  },
  "storageLayout": {
    "storage": [
      {
        "astId": 123,
        "contract": "contracts/EMS.sol:EMS",
        "label": "_status",
        "offset": 0,
        "slot": "0",
        "type": "t_uint256"
      },
      {
        "astId": 7,
        "contract": "contracts/EMS.sol:EMS",
        "label": "_owner",
        "offset": 0,
        "slot": "1",
        "type": "t_address"
      },
      {
        "astId": 2946,
        "contract": "contracts/EMS.sol:EMS",
        "label": "NFT",
        "offset": 0,
        "slot": "2",
        "type": "t_contract(EmployeeNFT)3373"
      },
      {
        "astId": 2956,
        "contract": "contracts/EMS.sol:EMS",
        "label": "employees",
        "offset": 0,
        "slot": "3",
        "type": "t_mapping(t_uint256,t_struct(Employee)2951_storage)"
      }
    ],
    "types": {
      "t_address": {
        "encoding": "inplace",
        "label": "address",
        "numberOfBytes": "20"
      },
      "t_bytes32": {
        "encoding": "inplace",
        "label": "bytes32",
        "numberOfBytes": "32"
      },
      "t_contract(EmployeeNFT)3373": {
        "encoding": "inplace",
        "label": "contract EmployeeNFT",
        "numberOfBytes": "20"
      },
      "t_mapping(t_uint256,t_struct(Employee)2951_storage)": {
        "encoding": "mapping",
        "key": "t_uint256",
        "label": "mapping(uint256 => struct EMS.Employee)",
        "numberOfBytes": "32",
        "value": "t_struct(Employee)2951_storage"
      },
      "t_struct(Employee)2951_storage": {
        "encoding": "inplace",
        "label": "struct EMS.Employee",
        "members": [
          {
            "astId": 2948,
            "contract": "contracts/EMS.sol:EMS",
            "label": "empDetails",
            "offset": 0,
            "slot": "0",
            "type": "t_bytes32"
          },
          {
            "astId": 2950,
            "contract": "contracts/EMS.sol:EMS",
            "label": "projDetails",
            "offset": 0,
            "slot": "1",
            "type": "t_bytes32"
          }
        ],
        "numberOfBytes": "64"
      },
      "t_uint256": {
        "encoding": "inplace",
        "label": "uint256",
        "numberOfBytes": "32"
      }
    }
  }
}