{
  "address": "0x5FbDB2315678afecb367f032d93F642f64180aa3",
  "abi": [
    {
      "inputs": [],
      "stateMutability": "nonpayable",
      "type": "constructor"
    },
    {
      "anonymous": false,
      "inputs": [
        {
          "indexed": true,
          "internalType": "address",
          "name": "owner",
          "type": "address"
        },
        {
          "indexed": true,
          "internalType": "address",
          "name": "approved",
          "type": "address"
        },
        {
          "indexed": true,
          "internalType": "uint256",
          "name": "tokenId",
          "type": "uint256"
        }
      ],
      "name": "Approval",
      "type": "event"
    },
    {
      "anonymous": false,
      "inputs": [
        {
          "indexed": true,
          "internalType": "address",
          "name": "owner",
          "type": "address"
        },
        {
          "indexed": true,
          "internalType": "address",
          "name": "operator",
          "type": "address"
        },
        {
          "indexed": false,
          "internalType": "bool",
          "name": "approved",
          "type": "bool"
        }
      ],
      "name": "ApprovalForAll",
      "type": "event"
    },
    {
      "anonymous": false,
      "inputs": [
        {
          "indexed": false,
          "internalType": "uint256",
          "name": "tokenId",
          "type": "uint256"
        },
        {
          "indexed": false,
          "internalType": "uint256",
          "name": "price",
          "type": "uint256"
        },
        {
          "indexed": false,
          "internalType": "address",
          "name": "creator",
          "type": "address"
        },
        {
          "indexed": false,
          "internalType": "bool",
          "name": "isListed",
          "type": "bool"
        }
      ],
      "name": "NftItemCreated",
      "type": "event"
    },
    {
      "anonymous": false,
      "inputs": [
        {
          "indexed": true,
          "internalType": "address",
          "name": "previousOwner",
          "type": "address"
        },
        {
          "indexed": true,
          "internalType": "address",
          "name": "newOwner",
          "type": "address"
        }
      ],
      "name": "OwnershipTransferred",
      "type": "event"
    },
    {
      "anonymous": false,
      "inputs": [
        {
          "indexed": true,
          "internalType": "address",
          "name": "from",
          "type": "address"
        },
        {
          "indexed": true,
          "internalType": "address",
          "name": "to",
          "type": "address"
        },
        {
          "indexed": true,
          "internalType": "uint256",
          "name": "tokenId",
          "type": "uint256"
        }
      ],
      "name": "Transfer",
      "type": "event"
    },
    {
      "inputs": [
        {
          "internalType": "address",
          "name": "to",
          "type": "address"
        },
        {
          "internalType": "uint256",
          "name": "tokenId",
          "type": "uint256"
        }
      ],
      "name": "approve",
      "outputs": [],
      "stateMutability": "nonpayable",
      "type": "function"
    },
    {
      "inputs": [
        {
          "internalType": "address",
          "name": "owner",
          "type": "address"
        }
      ],
      "name": "balanceOf",
      "outputs": [
        {
          "internalType": "uint256",
          "name": "",
          "type": "uint256"
        }
      ],
      "stateMutability": "view",
      "type": "function"
    },
    {
      "inputs": [
        {
          "internalType": "uint256",
          "name": "tokenId",
          "type": "uint256"
        }
      ],
      "name": "buyNft",
      "outputs": [],
      "stateMutability": "payable",
      "type": "function"
    },
    {
      "inputs": [],
      "name": "getAllNftsOnSale",
      "outputs": [
        {
          "components": [
            {
              "internalType": "uint256",
              "name": "tokenId",
              "type": "uint256"
            },
            {
              "internalType": "uint256",
              "name": "price",
              "type": "uint256"
            },
            {
              "internalType": "address",
              "name": "creator",
              "type": "address"
            },
            {
              "internalType": "bool",
              "name": "isListed",
              "type": "bool"
            },
            {
              "internalType": "string",
              "name": "_tokenURI",
              "type": "string"
            }
          ],
          "internalType": "struct NftMarket.NftItem[]",
          "name": "",
          "type": "tuple[]"
        }
      ],
      "stateMutability": "view",
      "type": "function"
    },
    {
      "inputs": [
        {
          "internalType": "uint256",
          "name": "tokenId",
          "type": "uint256"
        }
      ],
      "name": "getApproved",
      "outputs": [
        {
          "internalType": "address",
          "name": "",
          "type": "address"
        }
      ],
      "stateMutability": "view",
      "type": "function"
    },
    {
      "inputs": [
        {
          "internalType": "uint256",
          "name": "tokenId",
          "type": "uint256"
        }
      ],
      "name": "getNftItem",
      "outputs": [
        {
          "components": [
            {
              "internalType": "uint256",
              "name": "tokenId",
              "type": "uint256"
            },
            {
              "internalType": "uint256",
              "name": "price",
              "type": "uint256"
            },
            {
              "internalType": "address",
              "name": "creator",
              "type": "address"
            },
            {
              "internalType": "bool",
              "name": "isListed",
              "type": "bool"
            },
            {
              "internalType": "string",
              "name": "_tokenURI",
              "type": "string"
            }
          ],
          "internalType": "struct NftMarket.NftItem",
          "name": "",
          "type": "tuple"
        }
      ],
      "stateMutability": "view",
      "type": "function"
    },
    {
      "inputs": [],
      "name": "getOwnedNfts",
      "outputs": [
        {
          "components": [
            {
              "internalType": "uint256",
              "name": "tokenId",
              "type": "uint256"
            },
            {
              "internalType": "uint256",
              "name": "price",
              "type": "uint256"
            },
            {
              "internalType": "address",
              "name": "creator",
              "type": "address"
            },
            {
              "internalType": "bool",
              "name": "isListed",
              "type": "bool"
            },
            {
              "internalType": "string",
              "name": "_tokenURI",
              "type": "string"
            }
          ],
          "internalType": "struct NftMarket.NftItem[]",
          "name": "",
          "type": "tuple[]"
        }
      ],
      "stateMutability": "view",
      "type": "function"
    },
    {
      "inputs": [
        {
          "internalType": "address",
          "name": "owner",
          "type": "address"
        },
        {
          "internalType": "address",
          "name": "operator",
          "type": "address"
        }
      ],
      "name": "isApprovedForAll",
      "outputs": [
        {
          "internalType": "bool",
          "name": "",
          "type": "bool"
        }
      ],
      "stateMutability": "view",
      "type": "function"
    },
    {
      "inputs": [],
      "name": "listedItemsCount",
      "outputs": [
        {
          "internalType": "uint256",
          "name": "",
          "type": "uint256"
        }
      ],
      "stateMutability": "view",
      "type": "function"
    },
    {
      "inputs": [],
      "name": "listingPrice",
      "outputs": [
        {
          "internalType": "uint256",
          "name": "",
          "type": "uint256"
        }
      ],
      "stateMutability": "view",
      "type": "function"
    },
    {
      "inputs": [
        {
          "internalType": "string",
          "name": "_tokenURI",
          "type": "string"
        },
        {
          "internalType": "uint256",
          "name": "price",
          "type": "uint256"
        }
      ],
      "name": "mintToken",
      "outputs": [
        {
          "internalType": "uint256",
          "name": "",
          "type": "uint256"
        }
      ],
      "stateMutability": "payable",
      "type": "function"
    },
    {
      "inputs": [],
      "name": "name",
      "outputs": [
        {
          "internalType": "string",
          "name": "",
          "type": "string"
        }
      ],
      "stateMutability": "view",
      "type": "function"
    },
    {
      "inputs": [],
      "name": "owner",
      "outputs": [
        {
          "internalType": "address",
          "name": "",
          "type": "address"
        }
      ],
      "stateMutability": "view",
      "type": "function"
    },
    {
      "inputs": [
        {
          "internalType": "uint256",
          "name": "tokenId",
          "type": "uint256"
        }
      ],
      "name": "ownerOf",
      "outputs": [
        {
          "internalType": "address",
          "name": "",
          "type": "address"
        }
      ],
      "stateMutability": "view",
      "type": "function"
    },
    {
      "inputs": [
        {
          "internalType": "uint256",
          "name": "tokenId",
          "type": "uint256"
        },
        {
          "internalType": "uint256",
          "name": "newPrice",
          "type": "uint256"
        }
      ],
      "name": "placeNftOnSale",
      "outputs": [],
      "stateMutability": "payable",
      "type": "function"
    },
    {
      "inputs": [],
      "name": "renounceOwnership",
      "outputs": [],
      "stateMutability": "nonpayable",
      "type": "function"
    },
    {
      "inputs": [
        {
          "internalType": "address",
          "name": "from",
          "type": "address"
        },
        {
          "internalType": "address",
          "name": "to",
          "type": "address"
        },
        {
          "internalType": "uint256",
          "name": "tokenId",
          "type": "uint256"
        }
      ],
      "name": "safeTransferFrom",
      "outputs": [],
      "stateMutability": "nonpayable",
      "type": "function"
    },
    {
      "inputs": [
        {
          "internalType": "address",
          "name": "from",
          "type": "address"
        },
        {
          "internalType": "address",
          "name": "to",
          "type": "address"
        },
        {
          "internalType": "uint256",
          "name": "tokenId",
          "type": "uint256"
        },
        {
          "internalType": "bytes",
          "name": "data",
          "type": "bytes"
        }
      ],
      "name": "safeTransferFrom",
      "outputs": [],
      "stateMutability": "nonpayable",
      "type": "function"
    },
    {
      "inputs": [
        {
          "internalType": "address",
          "name": "operator",
          "type": "address"
        },
        {
          "internalType": "bool",
          "name": "approved",
          "type": "bool"
        }
      ],
      "name": "setApprovalForAll",
      "outputs": [],
      "stateMutability": "nonpayable",
      "type": "function"
    },
    {
      "inputs": [
        {
          "internalType": "uint256",
          "name": "newPrice",
          "type": "uint256"
        }
      ],
      "name": "setListingPrice",
      "outputs": [],
      "stateMutability": "nonpayable",
      "type": "function"
    },
    {
      "inputs": [
        {
          "internalType": "bytes4",
          "name": "interfaceId",
          "type": "bytes4"
        }
      ],
      "name": "supportsInterface",
      "outputs": [
        {
          "internalType": "bool",
          "name": "",
          "type": "bool"
        }
      ],
      "stateMutability": "view",
      "type": "function"
    },
    {
      "inputs": [],
      "name": "symbol",
      "outputs": [
        {
          "internalType": "string",
          "name": "",
          "type": "string"
        }
      ],
      "stateMutability": "view",
      "type": "function"
    },
    {
      "inputs": [
        {
          "internalType": "uint256",
          "name": "index",
          "type": "uint256"
        }
      ],
      "name": "tokenByIndex",
      "outputs": [
        {
          "internalType": "uint256",
          "name": "",
          "type": "uint256"
        }
      ],
      "stateMutability": "view",
      "type": "function"
    },
    {
      "inputs": [
        {
          "internalType": "address",
          "name": "owner",
          "type": "address"
        },
        {
          "internalType": "uint256",
          "name": "index",
          "type": "uint256"
        }
      ],
      "name": "tokenOfOwnerByIndex",
      "outputs": [
        {
          "internalType": "uint256",
          "name": "",
          "type": "uint256"
        }
      ],
      "stateMutability": "view",
      "type": "function"
    },
    {
      "inputs": [
        {
          "internalType": "uint256",
          "name": "tokenId",
          "type": "uint256"
        }
      ],
      "name": "tokenURI",
      "outputs": [
        {
          "internalType": "string",
          "name": "",
          "type": "string"
        }
      ],
      "stateMutability": "view",
      "type": "function"
    },
    {
      "inputs": [
        {
          "internalType": "string",
          "name": "_tokenURI",
          "type": "string"
        }
      ],
      "name": "tokenURIExists",
      "outputs": [
        {
          "internalType": "bool",
          "name": "",
          "type": "bool"
        }
      ],
      "stateMutability": "view",
      "type": "function"
    },
    {
      "inputs": [],
      "name": "totalSupply",
      "outputs": [
        {
          "internalType": "uint256",
          "name": "",
          "type": "uint256"
        }
      ],
      "stateMutability": "view",
      "type": "function"
    },
    {
      "inputs": [
        {
          "internalType": "address",
          "name": "from",
          "type": "address"
        },
        {
          "internalType": "address",
          "name": "to",
          "type": "address"
        },
        {
          "internalType": "uint256",
          "name": "tokenId",
          "type": "uint256"
        }
      ],
      "name": "transferFrom",
      "outputs": [],
      "stateMutability": "nonpayable",
      "type": "function"
    },
    {
      "inputs": [
        {
          "internalType": "address",
          "name": "newOwner",
          "type": "address"
        }
      ],
      "name": "transferOwnership",
      "outputs": [],
      "stateMutability": "nonpayable",
      "type": "function"
    }
  ],
  "transactionHash": "0x6b247668561ff316f3dcffd225ae60d27005948b6c21c7ead491c53db00fb5e5",
  "args": [],
  "numDeployments": 1,
  "solcInputHash": "b8c5260946a0ea9ae76ddb01e1603746",
  "bytecode": "0x60806040526658d15e17628000600c553480156200001c57600080fd5b506040518060400160405280600c81526020017f4372656174757265734e465400000000000000000000000000000000000000008152506040518060400160405280600481526020017f434e4654000000000000000000000000000000000000000000000000000000008152508160009080519060200190620000a1929190620001b1565b508060019080519060200190620000ba929190620001b1565b505050620000dd620000d1620000e360201b60201c565b620000eb60201b60201c565b620002c6565b600033905090565b6000600b60009054906101000a900473ffffffffffffffffffffffffffffffffffffffff16905081600b60006101000a81548173ffffffffffffffffffffffffffffffffffffffff021916908373ffffffffffffffffffffffffffffffffffffffff1602179055508173ffffffffffffffffffffffffffffffffffffffff168173ffffffffffffffffffffffffffffffffffffffff167f8be0079c531659141344cd1fd0a4f28419497f9722a3daafe3b4186f6b6457e060405160405180910390a35050565b828054620001bf9062000290565b90600052602060002090601f016020900481019282620001e357600085556200022f565b82601f10620001fe57805160ff19168380011785556200022f565b828001600101855582156200022f579182015b828111156200022e57825182559160200191906001019062000211565b5b5090506200023e919062000242565b5090565b5b808211156200025d57600081600090555060010162000243565b5090565b7f4e487b7100000000000000000000000000000000000000000000000000000000600052602260045260246000fd5b60006002820490506001821680620002a957607f821691505b60208210811415620002c057620002bf62000261565b5b50919050565b614e2980620002d66000396000f3fe6080604052600436106101c25760003560e01c80636f1a0af5116100f7578063a22cb46511610095578063c87b56dd11610064578063c87b56dd14610651578063ccb4918d1461068e578063e985e9c5146106b9578063f2fde38b146106f6576101c2565b8063a22cb465146105a4578063b88d4fde146105cd578063c046372c146105f6578063c78f19f914610626576101c2565b8063715018a6116100d1578063715018a61461050e5780637c726b69146105255780638da5cb5b1461054e57806395d89b4114610579576101c2565b80636f1a0af51461046957806370a08231146104a657806370cbcb43146104e3576101c2565b8063243adbdd1161016457806342842e0e1161013e57806342842e0e1461038957806343d32ae7146103b25780634f6ccce7146103ef5780636352211e1461042c576101c2565b8063243adbdd146103055780632f745c591461032157806336b536be1461035e576101c2565b8063095ea7b3116101a0578063095ea7b31461026c57806318160ddd1461029557806321f422e5146102c057806323b872dd146102dc576101c2565b806301ffc9a7146101c757806306fdde0314610204578063081812fc1461022f575b600080fd5b3480156101d357600080fd5b506101ee60048036038101906101e991906134a4565b61071f565b6040516101fb91906134ec565b60405180910390f35b34801561021057600080fd5b50610219610731565b60405161022691906135a0565b60405180910390f35b34801561023b57600080fd5b50610256600480360381019061025191906135f8565b6107c3565b6040516102639190613666565b60405180910390f35b34801561027857600080fd5b50610293600480360381019061028e91906136ad565b610809565b005b3480156102a157600080fd5b506102aa610921565b6040516102b791906136fc565b60405180910390f35b6102da60048036038101906102d59190613717565b61092e565b005b3480156102e857600080fd5b5061030360048036038101906102fe9190613757565b610aaa565b005b61031f600480360381019061031a91906135f8565b610b0a565b005b34801561032d57600080fd5b50610348600480360381019061034391906136ad565b610c73565b60405161035591906136fc565b60405180910390f35b34801561036a57600080fd5b50610373610d18565b6040516103809190613959565b60405180910390f35b34801561039557600080fd5b506103b060048036038101906103ab9190613757565b610f45565b005b3480156103be57600080fd5b506103d960048036038101906103d49190613ab0565b610f65565b6040516103e691906134ec565b60405180910390f35b3480156103fb57600080fd5b50610416600480360381019061041191906135f8565b610fa1565b60405161042391906136fc565b60405180910390f35b34801561043857600080fd5b50610453600480360381019061044e91906135f8565b611012565b6040516104609190613666565b60405180910390f35b34801561047557600080fd5b50610490600480360381019061048b91906135f8565b611099565b60405161049d9190613b6f565b60405180910390f35b3480156104b257600080fd5b506104cd60048036038101906104c89190613b91565b6111dd565b6040516104da91906136fc565b60405180910390f35b3480156104ef57600080fd5b506104f8611295565b6040516105059190613959565b60405180910390f35b34801561051a57600080fd5b50610523611559565b005b34801561053157600080fd5b5061054c600480360381019061054791906135f8565b61156d565b005b34801561055a57600080fd5b506105636115c2565b6040516105709190613666565b60405180910390f35b34801561058557600080fd5b5061058e6115ec565b60405161059b91906135a0565b60405180910390f35b3480156105b057600080fd5b506105cb60048036038101906105c69190613bea565b61167e565b005b3480156105d957600080fd5b506105f460048036038101906105ef9190613ccb565b611694565b005b610610600480360381019061060b9190613d4e565b6116f6565b60405161061d91906136fc565b60405180910390f35b34801561063257600080fd5b5061063b611807565b60405161064891906136fc565b60405180910390f35b34801561065d57600080fd5b50610678600480360381019061067391906135f8565b61180d565b60405161068591906135a0565b60405180910390f35b34801561069a57600080fd5b506106a361181f565b6040516106b091906136fc565b60405180910390f35b3480156106c557600080fd5b506106e060048036038101906106db9190613daa565b611830565b6040516106ed91906134ec565b60405180910390f35b34801561070257600080fd5b5061071d60048036038101906107189190613b91565b6118c4565b005b600061072a82611948565b9050919050565b60606000805461074090613e19565b80601f016020809104026020016040519081016040528092919081815260200182805461076c90613e19565b80156107b95780601f1061078e576101008083540402835291602001916107b9565b820191906000526020600020905b81548152906001019060200180831161079c57829003601f168201915b5050505050905090565b60006107ce826119c2565b6004600083815260200190815260200160002060009054906101000a900473ffffffffffffffffffffffffffffffffffffffff169050919050565b600061081482611012565b90508073ffffffffffffffffffffffffffffffffffffffff168373ffffffffffffffffffffffffffffffffffffffff161415610885576040517f08c379a000000000000000000000000000000000000000000000000000000000815260040161087c90613ebd565b60405180910390fd5b8073ffffffffffffffffffffffffffffffffffffffff166108a4611a0d565b73ffffffffffffffffffffffffffffffffffffffff1614806108d357506108d2816108cd611a0d565b611830565b5b610912576040517f08c379a000000000000000000000000000000000000000000000000000000000815260040161090990613f4f565b60405180910390fd5b61091c8383611a15565b505050565b6000600980549050905090565b3373ffffffffffffffffffffffffffffffffffffffff1661094e83611012565b73ffffffffffffffffffffffffffffffffffffffff16146109a4576040517f08c379a000000000000000000000000000000000000000000000000000000000815260040161099b90613fbb565b60405180910390fd5b600015156010600084815260200190815260200160002060020160149054906101000a900460ff16151514610a0e576040517f08c379a0000000000000000000000000000000000000000000000000000000008152600401610a0590614027565b60405180910390fd5b600c543414610a52576040517f08c379a0000000000000000000000000000000000000000000000000000000008152600401610a49906140b9565b60405180910390fd5b60016010600084815260200190815260200160002060020160146101000a81548160ff021916908315150217905550806010600084815260200190815260200160002060010181905550610aa6600d611ace565b5050565b610abb610ab5611a0d565b82611ae4565b610afa576040517f08c379a0000000000000000000000000000000000000000000000000000000008152600401610af19061414b565b60405180910390fd5b610b05838383611b79565b505050565b6000601060008381526020019081526020016000206001015490506000610b3083611012565b90508073ffffffffffffffffffffffffffffffffffffffff163373ffffffffffffffffffffffffffffffffffffffff161415610ba1576040517f08c379a0000000000000000000000000000000000000000000000000000000008152600401610b98906141b7565b60405180910390fd5b813414610be3576040517f08c379a0000000000000000000000000000000000000000000000000000000008152600401610bda90614223565b60405180910390fd5b60006010600085815260200190815260200160002060020160146101000a81548160ff021916908315150217905550610c1c600d611e73565b610c27813385611b79565b8073ffffffffffffffffffffffffffffffffffffffff166108fc349081150290604051600060405180830381858888f19350505050158015610c6d573d6000803e3d6000fd5b50505050565b6000610c7e836111dd565b8210610cbf576040517f08c379a0000000000000000000000000000000000000000000000000000000008152600401610cb6906142b5565b60405180910390fd5b600760008473ffffffffffffffffffffffffffffffffffffffff1673ffffffffffffffffffffffffffffffffffffffff168152602001908152602001600020600083815260200190815260200160002054905092915050565b60606000610d24610921565b9050600080610d33600d611ecf565b67ffffffffffffffff811115610d4c57610d4b613985565b5b604051908082528060200260200182016040528015610d8557816020015b610d7261334e565b815260200190600190039081610d6a5790505b50905060005b83811015610f3b576000610d9e82610fa1565b90506000601060008381526020019081526020016000209050600115158160020160149054906101000a900460ff1615151415610f2657806040518060a001604052908160008201548152602001600182015481526020016002820160009054906101000a900473ffffffffffffffffffffffffffffffffffffffff1673ffffffffffffffffffffffffffffffffffffffff1673ffffffffffffffffffffffffffffffffffffffff1681526020016002820160149054906101000a900460ff16151515158152602001600382018054610e7690613e19565b80601f0160208091040260200160405190810160405280929190818152602001828054610ea290613e19565b8015610eef5780601f10610ec457610100808354040283529160200191610eef565b820191906000526020600020905b815481529060010190602001808311610ed257829003601f168201915b505050505081525050848681518110610f0b57610f0a6142d5565b5b6020026020010181905250600185610f239190614333565b94505b50508080610f3390614389565b915050610d8b565b5080935050505090565b610f6083838360405180602001604052806000815250611694565b505050565b600060011515600f83604051610f7b919061440e565b908152602001604051809103902060009054906101000a900460ff161515149050919050565b6000610fab610921565b8210610fec576040517f08c379a0000000000000000000000000000000000000000000000000000000008152600401610fe390614497565b60405180910390fd5b6009828154811061100057610fff6142d5565b5b90600052602060002001549050919050565b60008061101e83611edd565b9050600073ffffffffffffffffffffffffffffffffffffffff168173ffffffffffffffffffffffffffffffffffffffff161415611090576040517f08c379a000000000000000000000000000000000000000000000000000000000815260040161108790614503565b60405180910390fd5b80915050919050565b6110a161334e565b601060008381526020019081526020016000206040518060a001604052908160008201548152602001600182015481526020016002820160009054906101000a900473ffffffffffffffffffffffffffffffffffffffff1673ffffffffffffffffffffffffffffffffffffffff1673ffffffffffffffffffffffffffffffffffffffff1681526020016002820160149054906101000a900460ff1615151515815260200160038201805461115490613e19565b80601f016020809104026020016040519081016040528092919081815260200182805461118090613e19565b80156111cd5780601f106111a2576101008083540402835291602001916111cd565b820191906000526020600020905b8154815290600101906020018083116111b057829003601f168201915b5050505050815250509050919050565b60008073ffffffffffffffffffffffffffffffffffffffff168273ffffffffffffffffffffffffffffffffffffffff16141561124e576040517f08c379a000000000000000000000000000000000000000000000000000000000815260040161124590614595565b60405180910390fd5b600360008373ffffffffffffffffffffffffffffffffffffffff1673ffffffffffffffffffffffffffffffffffffffff168152602001908152602001600020549050919050565b6060600073ffffffffffffffffffffffffffffffffffffffff163373ffffffffffffffffffffffffffffffffffffffff16146114f95760006112d6336111dd565b905060008167ffffffffffffffff8111156112f4576112f3613985565b5b60405190808252806020026020018201604052801561132d57816020015b61131a61334e565b8152602001906001900390816113125790505b50905060005b828110156114ee5760006113473383610c73565b90506000601060008381526020019081526020016000206040518060a001604052908160008201548152602001600182015481526020016002820160009054906101000a900473ffffffffffffffffffffffffffffffffffffffff1673ffffffffffffffffffffffffffffffffffffffff1673ffffffffffffffffffffffffffffffffffffffff1681526020016002820160149054906101000a900460ff161515151581526020016003820180546113fe90613e19565b80601f016020809104026020016040519081016040528092919081815260200182805461142a90613e19565b80156114775780601f1061144c57610100808354040283529160200191611477565b820191906000526020600020905b81548152906001019060200180831161145a57829003601f168201915b505050505081525050905033816040019073ffffffffffffffffffffffffffffffffffffffff16908173ffffffffffffffffffffffffffffffffffffffff1681525050808484815181106114ce576114cd6142d5565b5b6020026020010181905250505080806114e690614389565b915050611333565b508092505050611556565b60008067ffffffffffffffff81111561151557611514613985565b5b60405190808252806020026020018201604052801561154e57816020015b61153b61334e565b8152602001906001900390816115335790505b509050809150505b90565b611561611f1a565b61156b6000611f98565b565b611575611f1a565b600081116115b8576040517f08c379a00000000000000000000000000000000000000000000000000000000081526004016115af90614601565b60405180910390fd5b80600c8190555050565b6000600b60009054906101000a900473ffffffffffffffffffffffffffffffffffffffff16905090565b6060600180546115fb90613e19565b80601f016020809104026020016040519081016040528092919081815260200182805461162790613e19565b80156116745780601f1061164957610100808354040283529160200191611674565b820191906000526020600020905b81548152906001019060200180831161165757829003601f168201915b5050505050905090565b611690611689611a0d565b838361205e565b5050565b6116a561169f611a0d565b83611ae4565b6116e4576040517f08c379a00000000000000000000000000000000000000000000000000000000081526004016116db9061414b565b60405180910390fd5b6116f0848484846121cb565b50505050565b600061170183610f65565b15611741576040517f08c379a00000000000000000000000000000000000000000000000000000000081526004016117389061466d565b60405180910390fd5b600c543414611785576040517f08c379a000000000000000000000000000000000000000000000000000000000815260040161177c906140b9565b60405180910390fd5b61178f600e611ace565b611799600d611ace565b60006117a5600e611ecf565b90506117b13382612227565b6117bb8185612245565b6117c68184866122b9565b6001600f856040516117d8919061440e565b908152602001604051809103902060006101000a81548160ff0219169083151502179055508091505092915050565b600c5481565b60606118188261242d565b9050919050565b600061182b600d611ecf565b905090565b6000600560008473ffffffffffffffffffffffffffffffffffffffff1673ffffffffffffffffffffffffffffffffffffffff16815260200190815260200160002060008373ffffffffffffffffffffffffffffffffffffffff1673ffffffffffffffffffffffffffffffffffffffff16815260200190815260200160002060009054906101000a900460ff16905092915050565b6118cc611f1a565b600073ffffffffffffffffffffffffffffffffffffffff168173ffffffffffffffffffffffffffffffffffffffff16141561193c576040517f08c379a0000000000000000000000000000000000000000000000000000000008152600401611933906146ff565b60405180910390fd5b61194581611f98565b50565b60007f780e9d63000000000000000000000000000000000000000000000000000000007bffffffffffffffffffffffffffffffffffffffffffffffffffffffff1916827bffffffffffffffffffffffffffffffffffffffffffffffffffffffff191614806119bb57506119ba82612540565b5b9050919050565b6119cb81612622565b611a0a576040517f08c379a0000000000000000000000000000000000000000000000000000000008152600401611a0190614503565b60405180910390fd5b50565b600033905090565b816004600083815260200190815260200160002060006101000a81548173ffffffffffffffffffffffffffffffffffffffff021916908373ffffffffffffffffffffffffffffffffffffffff160217905550808273ffffffffffffffffffffffffffffffffffffffff16611a8883611012565b73ffffffffffffffffffffffffffffffffffffffff167f8c5be1e5ebec7d5bd14f71427d1e84f3dd0314c0f7b2291e5b200ac8c7c3b92560405160405180910390a45050565b6001816000016000828254019250508190555050565b600080611af083611012565b90508073ffffffffffffffffffffffffffffffffffffffff168473ffffffffffffffffffffffffffffffffffffffff161480611b325750611b318185611830565b5b80611b7057508373ffffffffffffffffffffffffffffffffffffffff16611b58846107c3565b73ffffffffffffffffffffffffffffffffffffffff16145b91505092915050565b8273ffffffffffffffffffffffffffffffffffffffff16611b9982611012565b73ffffffffffffffffffffffffffffffffffffffff1614611bef576040517f08c379a0000000000000000000000000000000000000000000000000000000008152600401611be690614791565b60405180910390fd5b600073ffffffffffffffffffffffffffffffffffffffff168273ffffffffffffffffffffffffffffffffffffffff161415611c5f576040517f08c379a0000000000000000000000000000000000000000000000000000000008152600401611c5690614823565b60405180910390fd5b611c6c8383836001612663565b8273ffffffffffffffffffffffffffffffffffffffff16611c8c82611012565b73ffffffffffffffffffffffffffffffffffffffff1614611ce2576040517f08c379a0000000000000000000000000000000000000000000000000000000008152600401611cd990614791565b60405180910390fd5b6004600082815260200190815260200160002060006101000a81549073ffffffffffffffffffffffffffffffffffffffff02191690556001600360008573ffffffffffffffffffffffffffffffffffffffff1673ffffffffffffffffffffffffffffffffffffffff168152602001908152602001600020600082825403925050819055506001600360008473ffffffffffffffffffffffffffffffffffffffff1673ffffffffffffffffffffffffffffffffffffffff16815260200190815260200160002060008282540192505081905550816002600083815260200190815260200160002060006101000a81548173ffffffffffffffffffffffffffffffffffffffff021916908373ffffffffffffffffffffffffffffffffffffffff160217905550808273ffffffffffffffffffffffffffffffffffffffff168473ffffffffffffffffffffffffffffffffffffffff167fddf252ad1be2c89b69c2b068fc378daa952ba7f163c4a11628f55a4df523b3ef60405160405180910390a4611e6e8383836001612675565b505050565b60008160000154905060008111611ebf576040517f08c379a0000000000000000000000000000000000000000000000000000000008152600401611eb69061488f565b60405180910390fd5b6001810382600001819055505050565b600081600001549050919050565b60006002600083815260200190815260200160002060009054906101000a900473ffffffffffffffffffffffffffffffffffffffff169050919050565b611f22611a0d565b73ffffffffffffffffffffffffffffffffffffffff16611f406115c2565b73ffffffffffffffffffffffffffffffffffffffff1614611f96576040517f08c379a0000000000000000000000000000000000000000000000000000000008152600401611f8d906148fb565b60405180910390fd5b565b6000600b60009054906101000a900473ffffffffffffffffffffffffffffffffffffffff16905081600b60006101000a81548173ffffffffffffffffffffffffffffffffffffffff021916908373ffffffffffffffffffffffffffffffffffffffff1602179055508173ffffffffffffffffffffffffffffffffffffffff168173ffffffffffffffffffffffffffffffffffffffff167f8be0079c531659141344cd1fd0a4f28419497f9722a3daafe3b4186f6b6457e060405160405180910390a35050565b8173ffffffffffffffffffffffffffffffffffffffff168373ffffffffffffffffffffffffffffffffffffffff1614156120cd576040517f08c379a00000000000000000000000000000000000000000000000000000000081526004016120c490614967565b60405180910390fd5b80600560008573ffffffffffffffffffffffffffffffffffffffff1673ffffffffffffffffffffffffffffffffffffffff16815260200190815260200160002060008473ffffffffffffffffffffffffffffffffffffffff1673ffffffffffffffffffffffffffffffffffffffff16815260200190815260200160002060006101000a81548160ff0219169083151502179055508173ffffffffffffffffffffffffffffffffffffffff168373ffffffffffffffffffffffffffffffffffffffff167f17307eab39ab6107e8899845ad3d59bd9653f200f220920489ca2b5937696c31836040516121be91906134ec565b60405180910390a3505050565b6121d6848484611b79565b6121e28484848461267b565b612221576040517f08c379a0000000000000000000000000000000000000000000000000000000008152600401612218906149f9565b60405180910390fd5b50505050565b612241828260405180602001604052806000815250612812565b5050565b61224e82612622565b61228d576040517f08c379a000000000000000000000000000000000000000000000000000000000815260040161228490614a8b565b60405180910390fd5b806006600084815260200190815260200160002090805190602001906122b4929190613395565b505050565b600082116122fc576040517f08c379a00000000000000000000000000000000000000000000000000000000081526004016122f390614601565b60405180910390fd5b6040518060a001604052808481526020018381526020013373ffffffffffffffffffffffffffffffffffffffff1681526020016001151581526020018281525060106000858152602001908152602001600020600082015181600001556020820151816001015560408201518160020160006101000a81548173ffffffffffffffffffffffffffffffffffffffff021916908373ffffffffffffffffffffffffffffffffffffffff16021790555060608201518160020160146101000a81548160ff02191690831515021790555060808201518160030190805190602001906123e6929190613395565b509050507f470031062672bc0246e132c723a729c4676710ec663a29e86c88678032daddea83833360016040516124209493929190614aab565b60405180910390a1505050565b6060612438826119c2565b600060066000848152602001908152602001600020805461245890613e19565b80601f016020809104026020016040519081016040528092919081815260200182805461248490613e19565b80156124d15780601f106124a6576101008083540402835291602001916124d1565b820191906000526020600020905b8154815290600101906020018083116124b457829003601f168201915b5050505050905060006124e261286d565b90506000815114156124f857819250505061253b565b60008251111561252d578082604051602001612515929190614af0565b6040516020818303038152906040529250505061253b565b61253684612884565b925050505b919050565b60007f80ac58cd000000000000000000000000000000000000000000000000000000007bffffffffffffffffffffffffffffffffffffffffffffffffffffffff1916827bffffffffffffffffffffffffffffffffffffffffffffffffffffffff1916148061260b57507f5b5e139f000000000000000000000000000000000000000000000000000000007bffffffffffffffffffffffffffffffffffffffffffffffffffffffff1916827bffffffffffffffffffffffffffffffffffffffffffffffffffffffff1916145b8061261b575061261a826128ec565b5b9050919050565b60008073ffffffffffffffffffffffffffffffffffffffff1661264483611edd565b73ffffffffffffffffffffffffffffffffffffffff1614159050919050565b61266f84848484612956565b50505050565b50505050565b600061269c8473ffffffffffffffffffffffffffffffffffffffff16612ab6565b15612805578373ffffffffffffffffffffffffffffffffffffffff1663150b7a026126c5611a0d565b8786866040518563ffffffff1660e01b81526004016126e79493929190614b69565b602060405180830381600087803b15801561270157600080fd5b505af192505050801561273257506040513d601f19601f8201168201806040525081019061272f9190614bca565b60015b6127b5573d8060008114612762576040519150601f19603f3d011682016040523d82523d6000602084013e612767565b606091505b506000815114156127ad576040517f08c379a00000000000000000000000000000000000000000000000000000000081526004016127a4906149f9565b60405180910390fd5b805181602001fd5b63150b7a0260e01b7bffffffffffffffffffffffffffffffffffffffffffffffffffffffff1916817bffffffffffffffffffffffffffffffffffffffffffffffffffffffff19161491505061280a565b600190505b949350505050565b61281c8383612ad9565b612829600084848461267b565b612868576040517f08c379a000000000000000000000000000000000000000000000000000000000815260040161285f906149f9565b60405180910390fd5b505050565b606060405180602001604052806000815250905090565b606061288f826119c2565b600061289961286d565b905060008151116128b957604051806020016040528060008152506128e4565b806128c384612cf7565b6040516020016128d4929190614af0565b6040516020818303038152906040525b915050919050565b60007f01ffc9a7000000000000000000000000000000000000000000000000000000007bffffffffffffffffffffffffffffffffffffffffffffffffffffffff1916827bffffffffffffffffffffffffffffffffffffffffffffffffffffffff1916149050919050565b61296284848484612dcf565b60018111156129a6576040517f08c379a000000000000000000000000000000000000000000000000000000000815260040161299d90614c69565b60405180910390fd5b6000829050600073ffffffffffffffffffffffffffffffffffffffff168573ffffffffffffffffffffffffffffffffffffffff1614156129ee576129e981612ef5565b612a2d565b8373ffffffffffffffffffffffffffffffffffffffff168573ffffffffffffffffffffffffffffffffffffffff1614612a2c57612a2b8582612f3e565b5b5b600073ffffffffffffffffffffffffffffffffffffffff168473ffffffffffffffffffffffffffffffffffffffff161415612a7057612a6b816130ab565b612aaf565b8473ffffffffffffffffffffffffffffffffffffffff168473ffffffffffffffffffffffffffffffffffffffff1614612aae57612aad848261317c565b5b5b5050505050565b6000808273ffffffffffffffffffffffffffffffffffffffff163b119050919050565b600073ffffffffffffffffffffffffffffffffffffffff168273ffffffffffffffffffffffffffffffffffffffff161415612b49576040517f08c379a0000000000000000000000000000000000000000000000000000000008152600401612b4090614cd5565b60405180910390fd5b612b5281612622565b15612b92576040517f08c379a0000000000000000000000000000000000000000000000000000000008152600401612b8990614d41565b60405180910390fd5b612ba0600083836001612663565b612ba981612622565b15612be9576040517f08c379a0000000000000000000000000000000000000000000000000000000008152600401612be090614d41565b60405180910390fd5b6001600360008473ffffffffffffffffffffffffffffffffffffffff1673ffffffffffffffffffffffffffffffffffffffff16815260200190815260200160002060008282540192505081905550816002600083815260200190815260200160002060006101000a81548173ffffffffffffffffffffffffffffffffffffffff021916908373ffffffffffffffffffffffffffffffffffffffff160217905550808273ffffffffffffffffffffffffffffffffffffffff16600073ffffffffffffffffffffffffffffffffffffffff167fddf252ad1be2c89b69c2b068fc378daa952ba7f163c4a11628f55a4df523b3ef60405160405180910390a4612cf3600083836001612675565b5050565b606060006001612d06846131fb565b01905060008167ffffffffffffffff811115612d2557612d24613985565b5b6040519080825280601f01601f191660200182016040528015612d575781602001600182028036833780820191505090505b509050600082602001820190505b600115612dc4578080600190039150507f3031323334353637383961626364656600000000000000000000000000000000600a86061a8153600a8581612dae57612dad614d61565b5b0494506000851415612dbf57612dc4565b612d65565b819350505050919050565b6001811115612eef57600073ffffffffffffffffffffffffffffffffffffffff168473ffffffffffffffffffffffffffffffffffffffff1614612e635780600360008673ffffffffffffffffffffffffffffffffffffffff1673ffffffffffffffffffffffffffffffffffffffff1681526020019081526020016000206000828254612e5b9190614d90565b925050819055505b600073ffffffffffffffffffffffffffffffffffffffff168373ffffffffffffffffffffffffffffffffffffffff1614612eee5780600360008573ffffffffffffffffffffffffffffffffffffffff1673ffffffffffffffffffffffffffffffffffffffff1681526020019081526020016000206000828254612ee69190614333565b925050819055505b5b50505050565b600980549050600a600083815260200190815260200160002081905550600981908060018154018082558091505060019003906000526020600020016000909190919091505550565b60006001612f4b846111dd565b612f559190614d90565b905060006008600084815260200190815260200160002054905081811461303a576000600760008673ffffffffffffffffffffffffffffffffffffffff1673ffffffffffffffffffffffffffffffffffffffff168152602001908152602001600020600084815260200190815260200160002054905080600760008773ffffffffffffffffffffffffffffffffffffffff1673ffffffffffffffffffffffffffffffffffffffff168152602001908152602001600020600084815260200190815260200160002081905550816008600083815260200190815260200160002081905550505b6008600084815260200190815260200160002060009055600760008573ffffffffffffffffffffffffffffffffffffffff1673ffffffffffffffffffffffffffffffffffffffff16815260200190815260200160002060008381526020019081526020016000206000905550505050565b600060016009805490506130bf9190614d90565b90506000600a60008481526020019081526020016000205490506000600983815481106130ef576130ee6142d5565b5b906000526020600020015490508060098381548110613111576131106142d5565b5b906000526020600020018190555081600a600083815260200190815260200160002081905550600a60008581526020019081526020016000206000905560098054806131605761315f614dc4565b5b6001900381819060005260206000200160009055905550505050565b6000613187836111dd565b905081600760008573ffffffffffffffffffffffffffffffffffffffff1673ffffffffffffffffffffffffffffffffffffffff168152602001908152602001600020600083815260200190815260200160002081905550806008600084815260200190815260200160002081905550505050565b600080600090507a184f03e93ff9f4daa797ed6e38ed64bf6a1f0100000000000000008310613259577a184f03e93ff9f4daa797ed6e38ed64bf6a1f010000000000000000838161324f5761324e614d61565b5b0492506040810190505b6d04ee2d6d415b85acef81000000008310613296576d04ee2d6d415b85acef8100000000838161328c5761328b614d61565b5b0492506020810190505b662386f26fc1000083106132c557662386f26fc1000083816132bb576132ba614d61565b5b0492506010810190505b6305f5e10083106132ee576305f5e10083816132e4576132e3614d61565b5b0492506008810190505b612710831061331357612710838161330957613308614d61565b5b0492506004810190505b60648310613336576064838161332c5761332b614d61565b5b0492506002810190505b600a8310613345576001810190505b80915050919050565b6040518060a001604052806000815260200160008152602001600073ffffffffffffffffffffffffffffffffffffffff168152602001600015158152602001606081525090565b8280546133a190613e19565b90600052602060002090601f0160209004810192826133c3576000855561340a565b82601f106133dc57805160ff191683800117855561340a565b8280016001018555821561340a579182015b828111156134095782518255916020019190600101906133ee565b5b509050613417919061341b565b5090565b5b8082111561343457600081600090555060010161341c565b5090565b6000604051905090565b600080fd5b600080fd5b60007fffffffff0000000000000000000000000000000000000000000000000000000082169050919050565b6134818161344c565b811461348c57600080fd5b50565b60008135905061349e81613478565b92915050565b6000602082840312156134ba576134b9613442565b5b60006134c88482850161348f565b91505092915050565b60008115159050919050565b6134e6816134d1565b82525050565b600060208201905061350160008301846134dd565b92915050565b600081519050919050565b600082825260208201905092915050565b60005b83811015613541578082015181840152602081019050613526565b83811115613550576000848401525b50505050565b6000601f19601f8301169050919050565b600061357282613507565b61357c8185613512565b935061358c818560208601613523565b61359581613556565b840191505092915050565b600060208201905081810360008301526135ba8184613567565b905092915050565b6000819050919050565b6135d5816135c2565b81146135e057600080fd5b50565b6000813590506135f2816135cc565b92915050565b60006020828403121561360e5761360d613442565b5b600061361c848285016135e3565b91505092915050565b600073ffffffffffffffffffffffffffffffffffffffff82169050919050565b600061365082613625565b9050919050565b61366081613645565b82525050565b600060208201905061367b6000830184613657565b92915050565b61368a81613645565b811461369557600080fd5b50565b6000813590506136a781613681565b92915050565b600080604083850312156136c4576136c3613442565b5b60006136d285828601613698565b92505060206136e3858286016135e3565b9150509250929050565b6136f6816135c2565b82525050565b600060208201905061371160008301846136ed565b92915050565b6000806040838503121561372e5761372d613442565b5b600061373c858286016135e3565b925050602061374d858286016135e3565b9150509250929050565b6000806000606084860312156137705761376f613442565b5b600061377e86828701613698565b935050602061378f86828701613698565b92505060406137a0868287016135e3565b9150509250925092565b600081519050919050565b600082825260208201905092915050565b6000819050602082019050919050565b6137df816135c2565b82525050565b6137ee81613645565b82525050565b6137fd816134d1565b82525050565b600082825260208201905092915050565b600061381f82613507565b6138298185613803565b9350613839818560208601613523565b61384281613556565b840191505092915050565b600060a08301600083015161386560008601826137d6565b50602083015161387860208601826137d6565b50604083015161388b60408601826137e5565b50606083015161389e60608601826137f4565b50608083015184820360808601526138b68282613814565b9150508091505092915050565b60006138cf838361384d565b905092915050565b6000602082019050919050565b60006138ef826137aa565b6138f981856137b5565b93508360208202850161390b856137c6565b8060005b85811015613947578484038952815161392885826138c3565b9450613933836138d7565b925060208a0199505060018101905061390f565b50829750879550505050505092915050565b6000602082019050818103600083015261397381846138e4565b905092915050565b600080fd5b600080fd5b7f4e487b7100000000000000000000000000000000000000000000000000000000600052604160045260246000fd5b6139bd82613556565b810181811067ffffffffffffffff821117156139dc576139db613985565b5b80604052505050565b60006139ef613438565b90506139fb82826139b4565b919050565b600067ffffffffffffffff821115613a1b57613a1a613985565b5b613a2482613556565b9050602081019050919050565b82818337600083830152505050565b6000613a53613a4e84613a00565b6139e5565b905082815260208101848484011115613a6f57613a6e613980565b5b613a7a848285613a31565b509392505050565b600082601f830112613a9757613a9661397b565b5b8135613aa7848260208601613a40565b91505092915050565b600060208284031215613ac657613ac5613442565b5b600082013567ffffffffffffffff811115613ae457613ae3613447565b5b613af084828501613a82565b91505092915050565b600060a083016000830151613b1160008601826137d6565b506020830151613b2460208601826137d6565b506040830151613b3760408601826137e5565b506060830151613b4a60608601826137f4565b5060808301518482036080860152613b628282613814565b9150508091505092915050565b60006020820190508181036000830152613b898184613af9565b905092915050565b600060208284031215613ba757613ba6613442565b5b6000613bb584828501613698565b91505092915050565b613bc7816134d1565b8114613bd257600080fd5b50565b600081359050613be481613bbe565b92915050565b60008060408385031215613c0157613c00613442565b5b6000613c0f85828601613698565b9250506020613c2085828601613bd5565b9150509250929050565b600067ffffffffffffffff821115613c4557613c44613985565b5b613c4e82613556565b9050602081019050919050565b6000613c6e613c6984613c2a565b6139e5565b905082815260208101848484011115613c8a57613c89613980565b5b613c95848285613a31565b509392505050565b600082601f830112613cb257613cb161397b565b5b8135613cc2848260208601613c5b565b91505092915050565b60008060008060808587031215613ce557613ce4613442565b5b6000613cf387828801613698565b9450506020613d0487828801613698565b9350506040613d15878288016135e3565b925050606085013567ffffffffffffffff811115613d3657613d35613447565b5b613d4287828801613c9d565b91505092959194509250565b60008060408385031215613d6557613d64613442565b5b600083013567ffffffffffffffff811115613d8357613d82613447565b5b613d8f85828601613a82565b9250506020613da0858286016135e3565b9150509250929050565b60008060408385031215613dc157613dc0613442565b5b6000613dcf85828601613698565b9250506020613de085828601613698565b9150509250929050565b7f4e487b7100000000000000000000000000000000000000000000000000000000600052602260045260246000fd5b60006002820490506001821680613e3157607f821691505b60208210811415613e4557613e44613dea565b5b50919050565b7f4552433732313a20617070726f76616c20746f2063757272656e74206f776e6560008201527f7200000000000000000000000000000000000000000000000000000000000000602082015250565b6000613ea7602183613512565b9150613eb282613e4b565b604082019050919050565b60006020820190508181036000830152613ed681613e9a565b9050919050565b7f4552433732313a20617070726f76652063616c6c6572206973206e6f7420746f60008201527f6b656e206f776e6572206f7220617070726f76656420666f7220616c6c000000602082015250565b6000613f39603d83613512565b9150613f4482613edd565b604082019050919050565b60006020820190508181036000830152613f6881613f2c565b9050919050565b7f596f7520617265206e6f74206f776e6572206f662074686973206e6674000000600082015250565b6000613fa5601d83613512565b9150613fb082613f6f565b602082019050919050565b60006020820190508181036000830152613fd481613f98565b9050919050565b7f4974656d20697320616c7265616479206f6e2073616c65000000000000000000600082015250565b6000614011601783613512565b915061401c82613fdb565b602082019050919050565b6000602082019050818103600083015261404081614004565b9050919050565b7f5072696365206d75737420626520657175616c20746f206c697374696e67207060008201527f7269636500000000000000000000000000000000000000000000000000000000602082015250565b60006140a3602483613512565b91506140ae82614047565b604082019050919050565b600060208201905081810360008301526140d281614096565b9050919050565b7f4552433732313a2063616c6c6572206973206e6f7420746f6b656e206f776e6560008201527f72206f7220617070726f76656400000000000000000000000000000000000000602082015250565b6000614135602d83613512565b9150614140826140d9565b604082019050919050565b6000602082019050818103600083015261416481614128565b9050919050565b7f596f7520616c7265616479206f776e2074686973204e46540000000000000000600082015250565b60006141a1601883613512565b91506141ac8261416b565b602082019050919050565b600060208201905081810360008301526141d081614194565b9050919050565b7f506c65617365207375626d6974207468652061736b696e672070726963650000600082015250565b600061420d601e83613512565b9150614218826141d7565b602082019050919050565b6000602082019050818103600083015261423c81614200565b9050919050565b7f455243373231456e756d657261626c653a206f776e657220696e646578206f7560008201527f74206f6620626f756e6473000000000000000000000000000000000000000000602082015250565b600061429f602b83613512565b91506142aa82614243565b604082019050919050565b600060208201905081810360008301526142ce81614292565b9050919050565b7f4e487b7100000000000000000000000000000000000000000000000000000000600052603260045260246000fd5b7f4e487b7100000000000000000000000000000000000000000000000000000000600052601160045260246000fd5b600061433e826135c2565b9150614349836135c2565b9250827fffffffffffffffffffffffffffffffffffffffffffffffffffffffffffffffff0382111561437e5761437d614304565b5b828201905092915050565b6000614394826135c2565b91507fffffffffffffffffffffffffffffffffffffffffffffffffffffffffffffffff8214156143c7576143c6614304565b5b600182019050919050565b600081905092915050565b60006143e882613507565b6143f281856143d2565b9350614402818560208601613523565b80840191505092915050565b600061441a82846143dd565b915081905092915050565b7f455243373231456e756d657261626c653a20676c6f62616c20696e646578206f60008201527f7574206f6620626f756e64730000000000000000000000000000000000000000602082015250565b6000614481602c83613512565b915061448c82614425565b604082019050919050565b600060208201905081810360008301526144b081614474565b9050919050565b7f4552433732313a20696e76616c696420746f6b656e2049440000000000000000600082015250565b60006144ed601883613512565b91506144f8826144b7565b602082019050919050565b6000602082019050818103600083015261451c816144e0565b9050919050565b7f4552433732313a2061646472657373207a65726f206973206e6f74206120766160008201527f6c6964206f776e65720000000000000000000000000000000000000000000000602082015250565b600061457f602983613512565b915061458a82614523565b604082019050919050565b600060208201905081810360008301526145ae81614572565b9050919050565b7f5072696365206d757374206265206174206c6561737420312077656900000000600082015250565b60006145eb601c83613512565b91506145f6826145b5565b602082019050919050565b6000602082019050818103600083015261461a816145de565b9050919050565b7f546f6b656e2055524920616c7265616479206578697374730000000000000000600082015250565b6000614657601883613512565b915061466282614621565b602082019050919050565b600060208201905081810360008301526146868161464a565b9050919050565b7f4f776e61626c653a206e6577206f776e657220697320746865207a65726f206160008201527f6464726573730000000000000000000000000000000000000000000000000000602082015250565b60006146e9602683613512565b91506146f48261468d565b604082019050919050565b60006020820190508181036000830152614718816146dc565b9050919050565b7f4552433732313a207472616e736665722066726f6d20696e636f72726563742060008201527f6f776e6572000000000000000000000000000000000000000000000000000000602082015250565b600061477b602583613512565b91506147868261471f565b604082019050919050565b600060208201905081810360008301526147aa8161476e565b9050919050565b7f4552433732313a207472616e7366657220746f20746865207a65726f2061646460008201527f7265737300000000000000000000000000000000000000000000000000000000602082015250565b600061480d602483613512565b9150614818826147b1565b604082019050919050565b6000602082019050818103600083015261483c81614800565b9050919050565b7f436f756e7465723a2064656372656d656e74206f766572666c6f770000000000600082015250565b6000614879601b83613512565b915061488482614843565b602082019050919050565b600060208201905081810360008301526148a88161486c565b9050919050565b7f4f776e61626c653a2063616c6c6572206973206e6f7420746865206f776e6572600082015250565b60006148e5602083613512565b91506148f0826148af565b602082019050919050565b60006020820190508181036000830152614914816148d8565b9050919050565b7f4552433732313a20617070726f766520746f2063616c6c657200000000000000600082015250565b6000614951601983613512565b915061495c8261491b565b602082019050919050565b6000602082019050818103600083015261498081614944565b9050919050565b7f4552433732313a207472616e7366657220746f206e6f6e20455243373231526560008201527f63656976657220696d706c656d656e7465720000000000000000000000000000602082015250565b60006149e3603283613512565b91506149ee82614987565b604082019050919050565b60006020820190508181036000830152614a12816149d6565b9050919050565b7f45524337323155524953746f726167653a2055524920736574206f66206e6f6e60008201527f6578697374656e7420746f6b656e000000000000000000000000000000000000602082015250565b6000614a75602e83613512565b9150614a8082614a19565b604082019050919050565b60006020820190508181036000830152614aa481614a68565b9050919050565b6000608082019050614ac060008301876136ed565b614acd60208301866136ed565b614ada6040830185613657565b614ae760608301846134dd565b95945050505050565b6000614afc82856143dd565b9150614b0882846143dd565b91508190509392505050565b600081519050919050565b600082825260208201905092915050565b6000614b3b82614b14565b614b458185614b1f565b9350614b55818560208601613523565b614b5e81613556565b840191505092915050565b6000608082019050614b7e6000830187613657565b614b8b6020830186613657565b614b9860408301856136ed565b8181036060830152614baa8184614b30565b905095945050505050565b600081519050614bc481613478565b92915050565b600060208284031215614be057614bdf613442565b5b6000614bee84828501614bb5565b91505092915050565b7f455243373231456e756d657261626c653a20636f6e736563757469766520747260008201527f616e7366657273206e6f7420737570706f727465640000000000000000000000602082015250565b6000614c53603583613512565b9150614c5e82614bf7565b604082019050919050565b60006020820190508181036000830152614c8281614c46565b9050919050565b7f4552433732313a206d696e7420746f20746865207a65726f2061646472657373600082015250565b6000614cbf602083613512565b9150614cca82614c89565b602082019050919050565b60006020820190508181036000830152614cee81614cb2565b9050919050565b7f4552433732313a20746f6b656e20616c7265616479206d696e74656400000000600082015250565b6000614d2b601c83613512565b9150614d3682614cf5565b602082019050919050565b60006020820190508181036000830152614d5a81614d1e565b9050919050565b7f4e487b7100000000000000000000000000000000000000000000000000000000600052601260045260246000fd5b6000614d9b826135c2565b9150614da6836135c2565b925082821015614db957614db8614304565b5b828203905092915050565b7f4e487b7100000000000000000000000000000000000000000000000000000000600052603160045260246000fdfea26469706673582212202188ca5c94584416beec4bbe9f1c52bf90ba19d89556e0b67291855ac180550864736f6c63430008090033",
  "devdoc": {
    "kind": "dev",
    "methods": {
      "approve(address,uint256)": {
        "details": "See {IERC721-approve}."
      },
      "balanceOf(address)": {
        "details": "See {IERC721-balanceOf}."
      },
      "getApproved(uint256)": {
        "details": "See {IERC721-getApproved}."
      },
      "isApprovedForAll(address,address)": {
        "details": "See {IERC721-isApprovedForAll}."
      },
      "name()": {
        "details": "See {IERC721Metadata-name}."
      },
      "owner()": {
        "details": "Returns the address of the current owner."
      },
      "ownerOf(uint256)": {
        "details": "See {IERC721-ownerOf}."
      },
      "renounceOwnership()": {
        "details": "Leaves the contract without owner. It will not be possible to call `onlyOwner` functions anymore. Can only be called by the current owner. NOTE: Renouncing ownership will leave the contract without an owner, thereby removing any functionality that is only available to the owner."
      },
      "safeTransferFrom(address,address,uint256)": {
        "details": "See {IERC721-safeTransferFrom}."
      },
      "safeTransferFrom(address,address,uint256,bytes)": {
        "details": "See {IERC721-safeTransferFrom}."
      },
      "setApprovalForAll(address,bool)": {
        "details": "See {IERC721-setApprovalForAll}."
      },
      "symbol()": {
        "details": "See {IERC721Metadata-symbol}."
      },
      "tokenByIndex(uint256)": {
        "details": "See {IERC721Enumerable-tokenByIndex}."
      },
      "tokenOfOwnerByIndex(address,uint256)": {
        "details": "See {IERC721Enumerable-tokenOfOwnerByIndex}."
      },
      "totalSupply()": {
        "details": "See {IERC721Enumerable-totalSupply}."
      },
      "transferFrom(address,address,uint256)": {
        "details": "See {IERC721-transferFrom}."
      },
      "transferOwnership(address)": {
        "details": "Transfers ownership of the contract to a new account (`newOwner`). Can only be called by the current owner."
      }
    },
    "version": 1
  },
  "userdoc": {
    "kind": "user",
    "methods": {},
    "version": 1
  },
  "storageLayout": {
    "storage": [
      {
        "astId": 138,
        "contract": "contracts/NftMarket.sol:NftMarket",
        "label": "_name",
        "offset": 0,
        "slot": "0",
        "type": "t_string_storage"
      },
      {
        "astId": 140,
        "contract": "contracts/NftMarket.sol:NftMarket",
        "label": "_symbol",
        "offset": 0,
        "slot": "1",
        "type": "t_string_storage"
      },
      {
        "astId": 144,
        "contract": "contracts/NftMarket.sol:NftMarket",
        "label": "_owners",
        "offset": 0,
        "slot": "2",
        "type": "t_mapping(t_uint256,t_address)"
      },
      {
        "astId": 148,
        "contract": "contracts/NftMarket.sol:NftMarket",
        "label": "_balances",
        "offset": 0,
        "slot": "3",
        "type": "t_mapping(t_address,t_uint256)"
      },
      {
        "astId": 152,
        "contract": "contracts/NftMarket.sol:NftMarket",
        "label": "_tokenApprovals",
        "offset": 0,
        "slot": "4",
        "type": "t_mapping(t_uint256,t_address)"
      },
      {
        "astId": 158,
        "contract": "contracts/NftMarket.sol:NftMarket",
        "label": "_operatorApprovals",
        "offset": 0,
        "slot": "5",
        "type": "t_mapping(t_address,t_mapping(t_address,t_bool))"
      },
      {
        "astId": 1558,
        "contract": "contracts/NftMarket.sol:NftMarket",
        "label": "_tokenURIs",
        "offset": 0,
        "slot": "6",
        "type": "t_mapping(t_uint256,t_string_storage)"
      },
      {
        "astId": 1206,
        "contract": "contracts/NftMarket.sol:NftMarket",
        "label": "_ownedTokens",
        "offset": 0,
        "slot": "7",
        "type": "t_mapping(t_address,t_mapping(t_uint256,t_uint256))"
      },
      {
        "astId": 1210,
        "contract": "contracts/NftMarket.sol:NftMarket",
        "label": "_ownedTokensIndex",
        "offset": 0,
        "slot": "8",
        "type": "t_mapping(t_uint256,t_uint256)"
      },
      {
        "astId": 1213,
        "contract": "contracts/NftMarket.sol:NftMarket",
        "label": "_allTokens",
        "offset": 0,
        "slot": "9",
        "type": "t_array(t_uint256)dyn_storage"
      },
      {
        "astId": 1217,
        "contract": "contracts/NftMarket.sol:NftMarket",
        "label": "_allTokensIndex",
        "offset": 0,
        "slot": "10",
        "type": "t_mapping(t_uint256,t_uint256)"
      },
      {
        "astId": 7,
        "contract": "contracts/NftMarket.sol:NftMarket",
        "label": "_owner",
        "offset": 0,
        "slot": "11",
        "type": "t_address"
      },
      {
        "astId": 3261,
        "contract": "contracts/NftMarket.sol:NftMarket",
        "label": "listingPrice",
        "offset": 0,
        "slot": "12",
        "type": "t_uint256"
      },
      {
        "astId": 3264,
        "contract": "contracts/NftMarket.sol:NftMarket",
        "label": "_listedItems",
        "offset": 0,
        "slot": "13",
        "type": "t_struct(Counter)2086_storage"
      },
      {
        "astId": 3267,
        "contract": "contracts/NftMarket.sol:NftMarket",
        "label": "_tokenIds",
        "offset": 0,
        "slot": "14",
        "type": "t_struct(Counter)2086_storage"
      },
      {
        "astId": 3271,
        "contract": "contracts/NftMarket.sol:NftMarket",
        "label": "_usedTokenURIs",
        "offset": 0,
        "slot": "15",
        "type": "t_mapping(t_string_memory_ptr,t_bool)"
      },
      {
        "astId": 3276,
        "contract": "contracts/NftMarket.sol:NftMarket",
        "label": "_idToNftItem",
        "offset": 0,
        "slot": "16",
        "type": "t_mapping(t_uint256,t_struct(NftItem)3258_storage)"
      }
    ],
    "types": {
      "t_address": {
        "encoding": "inplace",
        "label": "address",
        "numberOfBytes": "20"
      },
      "t_array(t_uint256)dyn_storage": {
        "base": "t_uint256",
        "encoding": "dynamic_array",
        "label": "uint256[]",
        "numberOfBytes": "32"
      },
      "t_bool": {
        "encoding": "inplace",
        "label": "bool",
        "numberOfBytes": "1"
      },
      "t_mapping(t_address,t_bool)": {
        "encoding": "mapping",
        "key": "t_address",
        "label": "mapping(address => bool)",
        "numberOfBytes": "32",
        "value": "t_bool"
      },
      "t_mapping(t_address,t_mapping(t_address,t_bool))": {
        "encoding": "mapping",
        "key": "t_address",
        "label": "mapping(address => mapping(address => bool))",
        "numberOfBytes": "32",
        "value": "t_mapping(t_address,t_bool)"
      },
      "t_mapping(t_address,t_mapping(t_uint256,t_uint256))": {
        "encoding": "mapping",
        "key": "t_address",
        "label": "mapping(address => mapping(uint256 => uint256))",
        "numberOfBytes": "32",
        "value": "t_mapping(t_uint256,t_uint256)"
      },
      "t_mapping(t_address,t_uint256)": {
        "encoding": "mapping",
        "key": "t_address",
        "label": "mapping(address => uint256)",
        "numberOfBytes": "32",
        "value": "t_uint256"
      },
      "t_mapping(t_string_memory_ptr,t_bool)": {
        "encoding": "mapping",
        "key": "t_string_memory_ptr",
        "label": "mapping(string => bool)",
        "numberOfBytes": "32",
        "value": "t_bool"
      },
      "t_mapping(t_uint256,t_address)": {
        "encoding": "mapping",
        "key": "t_uint256",
        "label": "mapping(uint256 => address)",
        "numberOfBytes": "32",
        "value": "t_address"
      },
      "t_mapping(t_uint256,t_string_storage)": {
        "encoding": "mapping",
        "key": "t_uint256",
        "label": "mapping(uint256 => string)",
        "numberOfBytes": "32",
        "value": "t_string_storage"
      },
      "t_mapping(t_uint256,t_struct(NftItem)3258_storage)": {
        "encoding": "mapping",
        "key": "t_uint256",
        "label": "mapping(uint256 => struct NftMarket.NftItem)",
        "numberOfBytes": "32",
        "value": "t_struct(NftItem)3258_storage"
      },
      "t_mapping(t_uint256,t_uint256)": {
        "encoding": "mapping",
        "key": "t_uint256",
        "label": "mapping(uint256 => uint256)",
        "numberOfBytes": "32",
        "value": "t_uint256"
      },
      "t_string_memory_ptr": {
        "encoding": "bytes",
        "label": "string",
        "numberOfBytes": "32"
      },
      "t_string_storage": {
        "encoding": "bytes",
        "label": "string",
        "numberOfBytes": "32"
      },
      "t_struct(Counter)2086_storage": {
        "encoding": "inplace",
        "label": "struct Counters.Counter",
        "members": [
          {
            "astId": 2085,
            "contract": "contracts/NftMarket.sol:NftMarket",
            "label": "_value",
            "offset": 0,
            "slot": "0",
            "type": "t_uint256"
          }
        ],
        "numberOfBytes": "32"
      },
      "t_struct(NftItem)3258_storage": {
        "encoding": "inplace",
        "label": "struct NftMarket.NftItem",
        "members": [
          {
            "astId": 3249,
            "contract": "contracts/NftMarket.sol:NftMarket",
            "label": "tokenId",
            "offset": 0,
            "slot": "0",
            "type": "t_uint256"
          },
          {
            "astId": 3251,
            "contract": "contracts/NftMarket.sol:NftMarket",
            "label": "price",
            "offset": 0,
            "slot": "1",
            "type": "t_uint256"
          },
          {
            "astId": 3253,
            "contract": "contracts/NftMarket.sol:NftMarket",
            "label": "creator",
            "offset": 0,
            "slot": "2",
            "type": "t_address"
          },
          {
            "astId": 3255,
            "contract": "contracts/NftMarket.sol:NftMarket",
            "label": "isListed",
            "offset": 20,
            "slot": "2",
            "type": "t_bool"
          },
          {
            "astId": 3257,
            "contract": "contracts/NftMarket.sol:NftMarket",
            "label": "_tokenURI",
            "offset": 0,
            "slot": "3",
            "type": "t_string_storage"
          }
        ],
        "numberOfBytes": "128"
      },
      "t_uint256": {
        "encoding": "inplace",
        "label": "uint256",
        "numberOfBytes": "32"
      }
    }
  }
}